:020000040000fa
:080000000002040000000000f2
:020000040000fa
:040008002c030000c5
:020000040000fa
:04000c002c030000c1
:020000040000fa
:040010002c030000bd
:020000040000fa
:040014002c030000b9
:020000040000fa
:040018002c030000b5
:020000040000fa
:04001c002c030000b1
:020000040000fa
:040020002c030000ad
:020000040000fa
:040024002c030000a9
:020000040000fa
:040028002c030000a5
:020000040000fa
:04002c002c030000a1
:020000040000fa
:040030002c0300009d
:020000040000fa
:040034002c03000099
:020000040000fa
:040038002c03000095
:020000040000fa
:04003c002c03000091
:020000040000fa
:040040002c0300008d
:020000040000fa
:040044002c03000089
:020000040000fa
:040048002c03000085
:020000040000fa
:04004c002c03000081
:020000040000fa
:040050002c0300007d
:020000040000fa
:040054002c03000079
:020000040000fa
:040058002c03000075
:020000040000fa
:04005c002c03000071
:020000040000fa
:040060002c0300006d
:020000040000fa
:040064002c03000069
:020000040000fa
:040068002c03000065
:020000040000fa
:04006c002c03000061
:020000040000fa
:040070002c0300005d
:020000040000fa
:040074002c03000059
:020000040000fa
:040078002c03000055
:020000040000fa
:04007c002c03000051
:020000040000fa
:040080002c0300004d
:020000040000fa
:040084002c03000049
:020000040000fa
:040088002c03000045
:020000040000fa
:04008c002c03000041
:020000040000fa
:040090002c0300003d
:020000040000fa
:040094002c03000039
:020000040000fa
:040098002c03000035
:020000040000fa
:04009c002c03000031
:020000040000fa
:0400a0002c0300002d
:020000040000fa
:0400a4002c03000029
:020000040000fa
:0400a8002c03000025
:020000040000fa
:0400ac002c03000021
:020000040000fa
:0400b0002c0300001d
:020000040000fa
:0400b4002c03000019
:020000040000fa
:0400b8002c03000015
:020000040000fa
:0400bc002c03000011
:020000040000fa
:0400c0002c0300000d
:020000040000fa
:0400c4002c03000009
:020000040000fa
:0400c8002c03000005
:020000040000fa
:0400cc002c03000001
:020000040000fa
:0400d0002c030000fd
:020000040000fa
:0400d4002c030000f9
:020000040000fa
:0400d8002c030000f5
:020000040000fa
:0400dc002c030000f1
:020000040000fa
:0400e0002c030000ed
:020000040000fa
:0400e4002c030000e9
:020000040000fa
:0400e8002c030000e5
:020000040000fa
:0400ec002c030000e1
:020000040000fa
:0400f0002c030000dd
:020000040000fa
:0400f4002c030000d9
:020000040000fa
:0400f8002c030000d5
:020000040000fa
:0400fc002c030000d1
:020000040000fa
:040100002c030000cc
:020000040000fa
:040104002c030000c8
:020000040000fa
:040108002c030000c4
:020000040000fa
:04010c002c030000c0
:020000040000fa
:040110002c030000bc
:020000040000fa
:040114002c030000b8
:020000040000fa
:040118002c030000b4
:020000040000fa
:04011c002c030000b0
:020000040000fa
:040120002c030000ac
:020000040000fa
:040124002c030000a8
:020000040000fa
:040128002c030000a4
:020000040000fa
:04012c002c030000a0
:020000040000fa
:040130002c0300009c
:020000040000fa
:040134002c03000098
:020000040000fa
:040138002c03000094
:020000040000fa
:04013c002c03000090
:020000040000fa
:040140002c0300008c
:020000040000fa
:040144002c03000088
:020000040000fa
:040148002c03000084
:020000040000fa
:04014c002c03000080
:020000040000fa
:040150002c0300007c
:020000040000fa
:040154002c03000078
:020000040000fa
:040158002c03000074
:020000040000fa
:04015c002c03000070
:020000040000fa
:040160002c0300006c
:020000040000fa
:040164002c03000068
:020000040000fa
:040168002c03000064
:020000040000fa
:04016c002c03000060
:020000040000fa
:040170002c0300005c
:020000040000fa
:040174002c03000058
:020000040000fa
:040178002c03000054
:020000040000fa
:04017c002c03000050
:020000040000fa
:040180002c0300004c
:020000040000fa
:040184002c03000048
:020000040000fa
:040188002c03000044
:020000040000fa
:04018c002c03000040
:020000040000fa
:040190002c0300003c
:020000040000fa
:040194002c03000038
:020000040000fa
:040198002c03000034
:020000040000fa
:04019c002c03000030
:020000040000fa
:040208002c030000c3
:020000040000fa
:04020c002c030000bf
:020000040000fa
:040210002c030000bb
:020000040000fa
:040214002c030000b7
:020000040000fa
:040218002c030000b3
:020000040000fa
:04021c002c030000af
:020000040000fa
:040220002c030000ab
:020000040000fa
:040224002c030000a7
:020000040000fa
:040228002c030000a3
:020000040000fa
:04022c002c0300009f
:020000040000fa
:040230002c0300009b
:020000040000fa
:040234002c03000097
:020000040000fa
:040238002c03000093
:020000040000fa
:04023c002c0300008f
:020000040000fa
:040240002c0300008b
:020000040000fa
:040244002c03000087
:020000040000fa
:040248002c03000083
:020000040000fa
:04024c002c0300007f
:020000040000fa
:040250002c0300007b
:020000040000fa
:040254002c03000077
:020000040000fa
:040258002c03000073
:020000040000fa
:04025c002c0300006f
:020000040000fa
:040260002c0300006b
:020000040000fa
:040264002c03000067
:020000040000fa
:040268002c03000063
:020000040000fa
:04026c002c0300005f
:020000040000fa
:040270002c0300005b
:020000040000fa
:040274002c03000057
:020000040000fa
:040278002c03000053
:020000040000fa
:04027c002c0300004f
:020000040000fa
:040280002c0300004b
:020000040000fa
:040284002c03000047
:020000040000fa
:040288002c03000043
:020000040000fa
:04028c002c0300003f
:020000040000fa
:040290002c0300003b
:020000040000fa
:040294002c03000037
:020000040000fa
:040298002c03000033
:020000040000fa
:04029c002c0300002f
:020000040000fa
:0402a0002c0300002b
:020000040000fa
:0402a4002c03000027
:020000040000fa
:0402a8002c03000023
:020000040000fa
:0402ac002c0300001f
:020000040000fa
:0402b0002c0300001b
:020000040000fa
:0402b4002c03000017
:020000040000fa
:0402b8002c03000013
:020000040000fa
:0402bc002c0300000f
:020000040000fa
:0402c0002c0300000b
:020000040000fa
:0402c4002c03000007
:020000040000fa
:0402c8002c03000003
:020000040000fa
:0402cc002c030000ff
:020000040000fa
:0402d0002c030000fb
:020000040000fa
:0402d4002c030000f7
:020000040000fa
:0402d8002c030000f3
:020000040000fa
:0402dc002c030000ef
:020000040000fa
:0402e0002c030000eb
:020000040000fa
:0402e4002c030000e7
:020000040000fa
:0402e8002c030000e3
:020000040000fa
:0402ec002c030000df
:020000040000fa
:0402f0002c030000db
:020000040000fa
:0402f4002c030000d7
:020000040000fa
:0402f8002c030000d3
:020000040000fa
:0402fc002c030000cf
:020000040000fa
:040300002c030000ca
:020000040000fa
:040304002c030000c6
:020000040000fa
:040308002c030000c2
:020000040000fa
:04030c002c030000be
:020000040000fa
:040310002c030000ba
:020000040000fa
:040314002c030000b6
:020000040000fa
:040318002c030000b2
:020000040000fa
:04031c002c030000ae
:020000040000fa
:040320002c030000aa
:020000040000fa
:040324002c030000a6
:020000040000fa
:040328002c030000a2
:020000040000fa
:04032c002c0300009e
:020000040000fa
:040330002c0300009a
:020000040000fa
:040334002c03000096
:020000040000fa
:040338002c03000092
:020000040000fa
:04033c002c0300008e
:020000040000fa
:040340002c0300008a
:020000040000fa
:040344002c03000086
:020000040000fa
:040348002c03000082
:020000040000fa
:04034c002c0300007e
:020000040000fa
:040350002c0300007a
:020000040000fa
:040354002c03000076
:020000040000fa
:040358002c03000072
:020000040000fa
:04035c002c0300006e
:020000040000fa
:040360002c0300006a
:020000040000fa
:040364002c03000066
:020000040000fa
:040368002c03000062
:020000040000fa
:04036c002c0300005e
:020000040000fa
:040370002c0300005a
:020000040000fa
:040374002c03000056
:020000040000fa
:040378002c03000052
:020000040000fa
:04037c002c0300004e
:020000040000fa
:040380002c0300004a
:020000040000fa
:040384002c03000046
:020000040000fa
:040388002c03000042
:020000040000fa
:04038c002c0300003e
:020000040000fa
:040390002c0300003a
:020000040000fa
:040394002c03000036
:020000040000fa
:040398002c03000032
:020000040000fa
:04039c002c0300002e
:020000040000fa
:100400008fa921000eff27000e01880000000000c8
:10041000000020000000e000020032000001200087
:100420002002880014000700ba0007000000e00066
:1004300003003a0080e82800010020000200370095
:100440000000200001002000810f70000100320038
:1004500014000700000020000000e000020032004d
:1004600000000200000000001e6602000000000004
:100470000040da000000fe004440a90080e72000b0
:100480000000e000030032000020200090018800fe
:100490004440a800000006008a1f78008b1f7800e7
:1004a00000000600a1028800800478000000eb0034
:1004b0001f003700e284440054a0b4009905ba003c
:1004c000e284440054a0b4009906ba00e2844400d7
:1004d00054a0b4000006eb00476fde00fd07b20039
:1004e000ae018800636ce10003003a00eaff0700f8
:1004f0000000eb000e003700606ce10008003a00dd
:10050000004deb000a05e800020039003420ec0041
:100510000af0a0008b05e900f9ff3e000400370057
:100520006168e100010032000086eb000b0007006b
:1005300019c7ba001905ba000e04e00003003a001a
:100540000a00e000dbff3a0000000600fe07b200f0
:10055000ae0288008a047800f5ff37000cd0a300b3
:10056000e20f4d001c00390089027800354dba00b9
:100570000a05e800020039003420ec000af0a0006f
:100580008b05e9000f003200254dba000a05e8008e
:10059000020039003420ec000af0a0008b05e900cd
:1005a000080032000c00e0000600320015cdba0051
:1005b0000a05e800020039003420ec000af0a0002f
:1005c0008b05e9008984e80054a0b4000b00e0002a
:1005d000e2ff3a00000006009902ba00055d7800cb
:1005e0008b05e900f7ff3200c82ade00055d7800c0
:1005f0008b05e900f3ff32000c00e000f1ff320050
:1006000019ddba00eeff3700426704000000000069
:100610005867040000000000786904000000000032
:10062000626704000000000054690400000000003c
:1006300066690400000000006e670400000000000e
:100640007c680400000000006a81040000000000d3
:100650006a820400000000000040da000000fe0092
:100660000a00fa00e20f50001f003e00b0d48000e4
:10067000e10f5000060032008023200045232000b7
:1006800023232000042320000000e00004003a009f
:100690008022200045222000232220000422200066
:1006a000060028009403630002003a00070878005f
:1006b000140a730013a8a30001003a0013a0a000bd
:1006c00002007800050037001388a300feff320007
:1006d0003102fb00840a78000000e9000000e0001d
:1006e000f9ff3a000800370033002000b3bf9f0035
:1006f000c0bf9f00d1bf9f00e2bf9f006a8057002c
:10070000a50407006fb99700020078000080fa0086
:1007100000000600000005000c00fa00889fbe00e3
:1007200000047800f0ff2700d0bf9f008004eb009a
:1007300099bf9f0088bf9f00a8bf9f00200c20008a
:10074000b0bf9f0078815700cfb0970070805700ee
:10075000100007000fb89700094878008fb897007d
:10076000088050004f04be000080fa000000060020
:10077000d0019000028151004240a90003003400e2
:1007800010017800014978000208e80001007800b3
:1007900000000600f6874700889fbe008a9fbe00c3
:1007a0008c9fbe008e1f780000057800a1b79f00c7
:1007b000020778008004eb0090023700afb097008a
:1007c0008100e800a1b79f0051c2b300814f5000e3
:1007d00003003a00afb097000004eb0011003700af
:1007e000ba0090000000fb000168a300070032007f
:1007f00009017800800078000a007800dcff07001b
:100800000000e00005003a007c0237008a00780012
:1008100041030700e10f4000780232008904e8003c
:10082000760237000100780031417800d3c2b3006e
:10083000834f51000c00320007003c00edc1510015
:10084000834f51000a003200ebc14100834f510039
:100850000d003a000800370003c3b300834f510076
:1008600009003a00060037000830a000edff37000d
:100870000800a000ebff37000810a000e9ff3700d8
:100880000820a000e7ff37000818a300010032008d
:100890000800a1000838a300010032000820a100d0
:1008a0008200fb000103b100e98f50000c003e0004
:1008b000000178008000eb006a08b900b201fb007b
:1008c0000303b10080804100020078009201fb0028
:1008d0000303b100e98f5100f7ff3600060037002f
:1008e0008000eb00a3c2b300834f510002003a0026
:1008f000ce0078000000e8008005eb00e2c2b30003
:10090000904f110009003a0008e0a0006441510036
:10091000d04f11000300320000017800010278007e
:1009200006003700ce0578000000e80000017800de
:10093000090037006a58b90080854100020078003c
:10094000b201fb000303b100e98f5100f9ff36004b
:1009500084007800f5ff370032407800a2b79f008e
:10096000c3c6b300834f5000250032000f003c0087
:1009700032c6b300824f50008800320004003c00b1
:100980000004e000220232006b4151000f003700ea
:1009900042c6b300824f500017003200654141004b
:1009a000824f500094003a001300370032c7b30062
:1009b000824f50001b00320007003c006441510090
:1009c000824f5000100032000241e800824f500078
:1009d00089003a000f00370052c7b300824f500021
:1009e0008a00320063414100824f500082003a0089
:1009f000e0df9f0009003700e0df9f00850037003f
:100a00000840a000d4ff3700e0df9f000860a0008e
:100a100080003700e0df9f000850a0000870a000b1
:100a20007c003700e0df9f004e0078000006780071
:100a30000000e00001003a008c8f21000c017800da
:100a40000000eb00010037000000e800e241780000
:100a50000304e000fcff3a00800678000b00e00091
:100a6000030032008d8f5500010031008b067800a5
:100a70008005eb008d8f5000010036008d85500001
:100a8000680464002a003a00110037003a00900020
:100a90000068a3000700320009017800010220006d
:100aa0000a00780032ff07000000e00006003a006c
:100ab000060037008a007800000220009602070036
:100ac000e10f4000010032008904e8008b05e900d5
:100ad0000b00e000edff3a008085eb0014003700ca
:100ae0003a0090000068a300090032000c00780072
:100af000b000fb0000067800090178000a007800c9
:100b00001bff07000000e00008003a000800370063
:100b10008c0078003100fb00010678008a00780024
:100b20007d020700e10f4000010032008904e80067
:100b30000d0078008006e9000000e000e8ff3a00c0
:100b40000800e000ad013200110037003a009000cb
:100b50000068a300070032000901780001022000ac
:100b60000a00780002ff07000000e00006003a00db
:100b7000060037008a0078000002200066020700a5
:100b8000e10f4000010032008904e8008b05e90014
:100b90000b00e000edff3a00980137004e017800ad
:100ba000cf91de00c81ade004818dd004812de00d2
:100bb00004027000e4df9f000848a3000800320030
:100bc0000404e00006003200e14f4200040032005d
:100bd000f4df9f0082e79f002d0020000200370015
:100be000f2df9f001d002000e2fd2f000f014100f9
:100bf0000206e80099ff3700e0df9f00ecfd2f00c0
:100c00000f0646001d00200094ff3700e0df9f0024
:100c1000080cb30008017800020cb20070006400f8
:100c20000200e0000d003a000000e0000200320087
:100c30004e06be00020037004e067800cfe6de000a
:100c4000e00f5600e08f5e000a003d003800b30060
:100c500060061600e0861e00060037000000e00077
:100c6000020032004e06be00020037004e06780039
:100c70008006eb000b00e00005003a008c85760052
:100c80000bf0a7008b05ea008b05e900cf5dde00c5
:100c900088017800030cb200e3b79f000004200035
:100ca000808f51002300320003003c000300e0006d
:100cb000080032002d003700000820006fb29700b6
:100cc000800f52000d003200000c2000800f5200f7
:100cd00026003a000290210010c0b30064014100d8
:100ce000b20f5600a28f5e001f0039000040e800de
:100cf000ea4f5000f9ff3a001b00370010c0b30064
:100d00000201200003002000820f5600838f5e0046
:100d100015003900441add00cc11de008301720099
:100d20004411dd000040e800e84f5000f6ff3a00b3
:100d30000d00370010c0b300820020000300200027
:100d4000820f5600838f5e0007003900431add00d2
:100d5000cd11de00830172004311dd000040e80088
:100d6000eb4f5000f6ff3a00e0df9f006fd997008d
:100d70000200fb008b0f500002003d00ebdf9f00e4
:100d800003003700808f550001003d00800578008a
:100d90000100e00003003200630064000100320043
:100da0008100e90008e8a300050032008b8f5000a5
:100db000020034008b805000010037008000eb00ff
:100dc000efd997000300fb000002eb00d4b79f00af
:100dd000808f50000200340000805000d0b79f0088
:100de0000828a30040003200610164000818a30035
:100df0000f0032003a0090000068a30006003200a5
:100e0000b10220000200e000010032008180e80011
:100e1000090178000d003700b00220000200e00058
:100e2000010032000080e8008a0078000e003700e0
:100e30000200e000100032003a0090000068a300b9
:100e40000700320009017800010220000a00780042
:100e500047fe07000000e00006003a0006003700e9
:100e60008a00780000022000ab010700e10f40007b
:100e7000010032008904e8005fb097000000e00044
:100e80005a003200bcb79f00cdb79f0080067800a3
:100e90003a0090000068a3000700320009017800c2
:100ea000010320000a00780031fe07000000e00086
:100eb00006003a00060037008a0078000003200090
:100ec00095010700e10f4000010032008904e800ad
:100ed0008d06e900eeff3a00ddb79f003fb69700b0
:100ee000cfb6970041003700dfb197000300e00064
:100ef0001a0032000838a30018003a00bcb79f005f
:100f0000cdb79f00830678003a0090000068a300e8
:100f10000700320009017800010220000a00780071
:100f200013fe07000000e00006003a00060037004c
:100f30008a0078000002200077010700e10f4000de
:100f4000010032008904e8008d06e900eeff3a0056
:100f5000ddb79f003fb69700cfb6970061016400f0
:100f60000818a3000f0032003a0090000068a300a8
:100f700006003200b10220000200e0000100320051
:100f80008180e800090178000d003700b0022000e0
:100f90000200e000010032000080e8008a007800d2
:100fa0000e0037000200e000100032003a0090000e
:100fb0000068a30007003200090178000102200048
:100fc0000a007800eafd07000000e00006003a0091
:100fd000060037008a007800000220004e0107005a
:100fe000e10f4000010032008904e8000b03e90032
:100ff0006330b90000017800b2b79f004233dd00d2
:1010000000902100000343008e01780093b79f00f9
:1010100008077800060478005c0037008b05e900bb
:10102000000420006fb29700800f52003800320099
:1010300003003c000400e000080032003e003700de
:1010400000082000efb09700808f50002000320091
:10105000000c2000808f500037003a000e48a3009b
:10106000100032001802be000401be000c00be00d9
:10107000f4b79f0085bf9f0067020700e0df9f0075
:101080000000fb00cf80de007fb297008fba970090
:101090000401be00730207000006560081865e0050
:1010a0000700370018017800110009000286d800f7
:1010b000a2002000110009000280d800e1df9f009b
:1010c0006fd997000243b000e2df9f001a0037009b
:1010d000708e21000e58a30001003200608d2100a7
:1010e00001902100810054000c01be008100e90044
:1010f000030033008301d1000281d300fbff3700de
:10110000ef006100e0c07800e1df9f000a003700d7
:101110000c00be00bfb197008301e900030033005b
:101120008100d1000080d300fbff370067406000e2
:101130000043b000e0df9f00ba0090006fda970034
:101140000400fb000168a3000700320009017800d9
:10115000800078000a00780085fd07000000e000ac
:1011600005003a00050037008a007800ea00070011
:10117000e10f4000010032008904e8003fb0970011
:1011800063005000b0b79f00640454000b00e000ff
:10119000a2ff3a000e0478001fb797000838a3009a
:1011a00016003200dfb097000100e00013003400a9
:1011b000010478003a0090000068a30007003200a4
:1011c00009017800010220000a00780068fd07008c
:1011d0000000e00006003a00060037008a007800b0
:1011e00000022000cc000700e10f400001003200a7
:1011f0008904e8000804e900eeff3a002fb19700e7
:1012000012407800e0df9f000004e0006bfd3a0030
:10121000090078004f0778004f06be004f05be005a
:101220004f04be006f01b1000000060003487800c3
:10123000000278008100fb00a300200011000900db
:101240008300d8008000fd008001780000c3b30057
:1012500000e241000104e0000300320080c04000d1
:1012600071fa9f000000060072fa9f00000006005d
:101270008001780063816100d016200010003a00e0
:1012800042062000110009008281d8000101780087
:10129000e01620000200e00009003a00c112200020
:1012a0008380400002192000110009008280d800cc
:1012b000d01620000100e00001003a000000e80024
:1012c00000000600889fbe001004be00c20320007c
:1012d000030020000800be00c001070030d38800d2
:1012e000c2032000030020000800be00ac0107007c
:1012f0000004be00c203200003002000b701070065
:1013000040d38800c2032000030020000800be0074
:10131000a30107000004be0082012000030020009a
:10132000ae01070050d38800820120000300200096
:101330000800be009a0107000004be00e40140005e
:1013400072002000110009008201d800010178001c
:1013500092d3880069042000020037000004540082
:101360008904e80009007800c1ff0700800f5400dd
:10137000faff3d0089d3880062406000a8d388004e
:101380008000eb0004003700020454008100e800f4
:101390000080fb000000d1003296210062c178007d
:1013a000024170000281fb00820f5400f6ff3d00f5
:1013b00071d38800c0a621000808e800660050002c
:1013c0004f04be00000006000400fa0041fc2f009c
:1013d00022d380000191b90030024100a08249006f
:1013e000e4bf9f00f5bf9f0064805700b5ff070072
:1013f0000080fa0000000600889fbe008a9fbe00a1
:1014000000047800680090006300b9008192210018
:101410000ba32100e14d7800008040008b00e80024
:10142000d04878008b80e800104090008048780019
:1014300009c2b3000100e8000948780048009000a4
:101440006300b900e193210064814500614978009f
:1014500000804000e5804500d0487800e6804500e7
:1014600010409000804878000100e80009487800aa
:10147000b80090008941780009417800630040007d
:101480006aff0700a8009000a3c3b30002c3b30023
:101490006d80450065ff070098009000a3c3b3006e
:1014a00002c3b3007080450060ff07009800780019
:1014b0008941780002c3b300738045005bff0700d9
:1014c000d80090004a062000110009008a00d800c8
:1014d000f34040008041eb000941780076804500f0
:1014e00052ff0700d8009000110009008a00d800c0
:1014f000a3c0b30002c3b300788045004bff0700d0
:101500000b0078004f05be004f04be00000006002f
:10151000adff0700b8ff3700889fbe0001047800c8
:10152000b80090008084eb000118a3003a0032005c
:10153000180190000198a30002003a000200e000a8
:1015400035003a000190a000310498008004780032
:10155000f90fb2000200e00002003a0028009000fb
:10156000000c7800ea8f540005003a000178a300cf
:1015700003003a0088007800d0002000e6ff070052
:1015800018009000d8009000810f50000b0032002e
:101590000000e8001004980018007800094878005e
:1015a000000ce80011c0b30000a921000148780038
:1015b000ea8f540018003a000500370088007800d0
:1015c00009407800b5000700800478001200370059
:1015d000380090000088a3000f003200180190002e
:1015e000a8009000480090001dfc070098009000a3
:1015f000810f500004003200380090000003b30057
:10160000300498008084eb000000eb001004980088
:1016100028009000000c7800090078004f04be00fc
:10162000000006008001780002003700b159780000
:101630000201e9000200e000fcff3a0000000600a1
:101640008001780002003700815978000201e9002a
:101650000200e000fcff3a00000006008001780074
:1016600002192000110009008281d8008000fd00cd
:1016700000017800110020000200e0000a003200a2
:10168000638161008000eb0007003a004206200001
:10169000110009008281d80001f0a7008100ea0052
:1016a0008100ea00cf08de0001007800000006009b
:1016b00011bf20000180b90012442f00000041003a
:1016c00042062000110009000280d8000000060038
:1016d000881f7800000478004242de0003192000d1
:1016e000110009000384d800000178008001eb009c
:1016f00002014200e0814900d61620000643b800ee
:101700000202430083824b004206200011000900c0
:101710000284d8008000fd0001005200e0805a00e1
:101720004f04780000000600889fbe008a9fbe001c
:101730000004be00020578000900e800dcff070095
:101740000a0540008005eb00e18f54000a003600d6
:1017500008007800c1ff07002200200003002000dd
:101760000000e00002003200120020000300200010
:101770000205550083855d000800e900d4ff0700dd
:101780000000450081804d004f05be004f04be00a3
:1017900000000600889fbe008a9fbe008c9fbe008e
:1017a00000047800d8049000a3fb2f008981410039
:1017b0000080eb008080eb00e2102000828f51005f
:1017c00032003e00c07620000080440038019000c6
:1017d000c8009000d4ff07000006be0012002000e1
:1017e0008000eb00207b2000cfff070000055600a3
:1017f00081855e0072002000030020000a00be0008
:101800007600070064004000e0804800720020007d
:10181000030020007100070060049800b0762000eb
:1018200000804400aaff07000c06e90000065600ed
:101830007c04980082012000030020000a00be0002
:101840008800070028019000cf91de0000004100d1
:1018500081804900c20320000300200081000700ae
:1018600018019000cf91de00000041008180490006
:10187000c2032000030020007a000700180178004e
:10188000cf91de0000004100818049004f06be007c
:101890004f05be004f04be00000006000200fa0023
:1018a000889fbe00a0ff9f000104780038009000d0
:1018b0000068a30033003a00e200600005003a002f
:1018c0000003b30030049800110498000080eb007e
:1018d0002e003700d80490000900e00006003a000e
:1018e00012002000e6805700480090005cfb0700d3
:1018f0001904980023003700a80090000100e000c0
:1019000008003a0031a9210021049800010c780058
:101910002100200051049800110498000030a0001c
:101920003004980018019000a80090004800900032
:101930004bfb0700280090008080eb00110498000a
:10194000aff8970001487800000ce8002ff89700e6
:10195000ea4f50000b003a00380090000088a300c6
:101960000800320018019000a80090004800900084
:101970003bfb07000000eb0010049800a80090005b
:10198000010c7800aff897000100fb004f04be0087
:101990000080fa000000060000c0da000000060027
:1019a000839f68000100e00002003d00600010001d
:1019b000e08018000300e00002003d00600111001b
:1019c000e0811900140007004f00e00002003b0016
:1019d00060001000e080180000000600811f780001
:1019e0000100e00002003d0060001000e0801800ef
:1019f0000300e00002003d0060011100e0811900d9
:101a0000150007004f00e00002003b0060001000de
:101a1000e0801800000006006022b80006022000e6
:101a20000000d0008180d2000482d2008582d200e2
:101a30000000a0000202520083825a00030031001d
:101a40000202420083824a000000a1000603e9006e
:101a5000f3ff3a0000000600efff07000400be009d
:101a600000000600020ab900001bb9000200b8001d
:0c1a7000810042008100430000000600dd
:020000040000fa
:101a7c00202000002020000020200000202000005a
:101a8c00202000002020000020200000202000004a
:101a9c00202000002020000020200000202000003a
:101aac00202000002020000020200000202000002a
:101abc00202000002020000020200000202000001a
:101acc00202000002020000020200000202000000a
:101adc000d0a00000d0a00000d0a00000d0a00009e
:101aec000d0a000000000000000000002020000093
:101afc0020200000202000002020000020200000da
:101b0c0020200000202000002020000020200000c9
:101b1c0020200000202000002020000020200000b9
:101b2c00544900004d45000020430000484100008e
:101b3c005254000020200000202000002020000033
:101b4c002020000020200000202000002020000089
:101b5c002020000020200000202000002020000079
:101b6c000d0a0000000000002020000020200000d2
:101b7c002020000020200000202000002020000059
:101b8c002020000020200000202000002020000049
:101b9c002020000020200000202000002d2d00001f
:101bac002d2d00002d2d00002d2d00002d2d0000c1
:101bbc002020000020200000202000002020000019
:101bcc002020000020200000202000002020000009
:101bdc002020000020200000202000000d0a000022
:101bec000000000020200000202000002020000029
:101bfc00202000002020000044490000474900003c
:101c0c00544100004c200000415800004c4500009d
:101c1c00204300004f5500004e5400004552000078
:101c2c002053000053440000414300002d470000a6
:101c3c00333600002020000020200000205300003c
:101c4c006c2e00004e6f00003a2000002020000097
:101c5c0020200000202000000d0a000000000000e1
:101c6c002020000020200000202000002020000068
:101c7c002020000020200000202000002020000058
:101c8c002020000020200000202000002020000048
:101c9c002020000020200000202000002020000038
:101cac002020000020200000202000002020000028
:101cbc002020000020200000202000002020000018
:101ccc002020000020200000202000002020000008
:101cdc00202000000d0a0000000000002020000061
:101cec00202000002020000020200000203d0000cb
:101cfc003d3d00003d3d00003d3d00003d3d0000f0
:101d0c003d3d00003d3d00003d3d00003d3d0000df
:101d1c003d3d00003d3d00003d3d00003d3d0000cf
:101d2c003d3d00003d3d00003d3d00003d3d0000bf
:101d3c003d3d00003d3d00003d3d00003d3d0000af
:101d4c003d3d00003d3d00003d3d00003d3d00009f
:101d5c000d0a0000000000002020000020200000e0
:101d6c002020000020200000207c0000202000000b
:101d7c002020000020200000202000002020000057
:101d8c002020000020200000202000002020000047
:101d9c002020000020200000207c000020200000db
:101dac002020000020200000202000002020000027
:101dbc002020000020200000202000002020000017
:101dcc002020000020200000207c00000d0a0000d4
:101ddc000000000020200000202000002020000037
:101dec0020200000207c0000205400005241000004
:101dfc00494e0000204500004e540000525900008e
:101e0c0020540000494d0000452000002020000017
:101e1c0020200000207c00002054000052410000d3
:101e2c00494e000020450000584900005420000095
:101e3c00544900004d4500002020000020200000e7
:101e4c0020200000207c00000d0a00000000000093
:101e5c002020000020200000202000002020000076
:101e6c00207c00002020000020200000202000000a
:101e7c002020000020200000202000002020000056
:101e8c002020000020200000202000002020000046
:101e9c00207c0000202000002020000020200000da
:101eac002020000020200000202000002020000026
:101ebc002020000020200000202000002020000016
:101ecc00207c00000d0a0000000000002020000013
:101edc00202000002020000020200000207c00009a
:101eec0020200000202000002020000020200000e6
:101efc0020200000202000002020000020200000d6
:101f0c00202000002020000020200000207c000069
:101f1c0020200000202000002020000020200000b5
:101f2c0020200000202000002020000020200000a5
:101f3c00202000002020000020200000207c000039
:101f4c000d0a0000000000002020000020200000ee
:101f5c002020000020200000207c00002020000019
:101f6c002020000020200000202000002020000065
:101f7c002020000020200000202000002020000055
:101f8c002020000020200000207c000020200000e9
:101f9c002020000020200000202000002020000035
:101fac002020000020200000202000002020000025
:101fbc002020000020200000207c00000d0a0000e2
:101fcc000000000020200000202000002020000045
:101fdc0020200000207c00003d3d00003d3d000025
:101fec003d3d00003d3d00003d3d00003d3d0000fd
:101ffc003d3d00003d3d00003d3d00003d3d0000ed
:10200c003d3d00003d2b00003d3d00003d3d0000ee
:10201c003d3d00003d3d00003d3d00003d3d0000cc
:10202c003d3d00003d3d00003d3d00003d3d0000bc
:10203c003d3d00003d7c00000d0a0000000000004a
:10204c002020000020200000202000002020000084
:10205c00207c000020200000202000002020000018
:10206c002020000020200000202000002020000064
:10207c002020000020200000202000002020000054
:10208c00207c0000202000002020000020200000e8
:10209c002020000020200000202000002020000034
:1020ac002020000020200000202000002020000024
:1020bc00207c00000d0a0000000000002020000021
:1020cc00202000002020000020200000207c0000a8
:1020dc00204f0000434300005550000041540000c5
:1020ec00494f00004e2000004455000052410000b2
:1020fc00544900004f4e000020200000207c0000be
:10210c00204c00004f410000444900004e470000a5
:10211c00204400005552000041540000494f00007b
:10212c004e2000002020000020200000207c000019
:10213c000d0a0000000000002020000020200000fc
:10214c002020000020200000207c00002020000027
:10215c002020000020200000286900006e200000d4
:10216c00486f0000757200007329000020200000e9
:10217c002020000020200000207c000020200000f7
:10218c002020000020280000696e0000204800007c
:10219c006f750000727300002920000020200000e1
:1021ac002020000020200000207c00000d0a0000f0
:1021bc000000000020200000202000002020000053
:1021cc0020200000207c00002020000020200000a7
:1021dc0020200000202000002020000020200000f3
:1021ec0020200000202000002020000020200000e3
:1021fc0020200000207c0000202000002020000077
:10220c0020200000202000002020000020200000c2
:10221c0020200000202000002020000020200000b2
:10222c0020200000207c00000d0a000000000000af
:10223c002020000020200000202000002020000092
:10224c00207c000020200000202000002020000026
:10225c00202000002020000028680000683a0000c0
:10226c006d6d00003a7300007329000020200000ff
:10227c00207c0000202000002020000020200000f6
:10228c00202000002020000028680000683a000090
:10229c006d6d00003a7300007329000020200000cf
:1022ac00207c00000d0a000000000000202000002f
:1022bc00202000002020000020200000207c0000b6
:1022cc002020000020200000202000002020000002
:1022dc0020200000202000002020000020200000f2
:1022ec00202000002020000020200000207c000086
:1022fc0020200000202000002020000020200000d2
:10230c0020200000202000002020000020200000c1
:10231c00202000002020000020200000207c000055
:10232c000d0a00000000000020200000202000000a
:10233c002020000020200000207c00003d3d0000fb
:10234c003d3d00003d3d00003d3d00003d3d000099
:10235c003d3d00003d3d00003d3d00003d3d000089
:10236c003d3d00003d3d00003d2b00003d3d00008b
:10237c003d3d00003d3d00003d3d00003d3d000069
:10238c003d3d00003d3d00003d3d00003d3d000059
:10239c003d3d00003d3d00003d7c00000d0a00006d
:1023ac000000000020200000202000002020000061
:1023bc0020200000207c00002020000020200000b5
:1023cc002020000020200000202000002020000001
:1023dc0020200000202000002020000020200000f1
:1023ec0020200000207c0000202000002020000085
:1023fc0020200000202000002020000020200000d1
:10240c0020200000202000002020000020200000c0
:10241c0020200000207c00000d0a000000000000bd
:10242c0020200000202000002020000020200000a0
:10243c00207c0000204500004e5400005259000042
:10244c0020410000584c000045200000434f000084
:10245c00554e0000545300002020000020200000a6
:10246c00207c000020200000202000002020000004
:10247c002020000020200000202000002020000050
:10248c002020000020200000202000002020000040
:10249c00207c00000d0a000000000000202000003d
:1024ac00202000002020000020200000207c0000c4
:1024bc002020000020200000202000002020000010
:1024cc002020000020200000202000002020000000
:1024dc00202000002020000020200000207c000094
:1024ec0020200000202000002020000020200000e0
:1024fc0020200000202000002020000020200000d0
:10250c00202000002020000020200000207c000063
:10251c000d0a000000000000202000002020000018
:10252c002020000020200000207c00002020000043
:10253c00202000002020000020200000202000008f
:10254c00202000002020000020200000202000007f
:10255c002020000020200000207c00002020000013
:10256c00202000002020000020200000202000005f
:10257c00202000002020000020200000202000004f
:10258c002020000020200000207c00000d0a00000c
:10259c00000000002020000020200000202000006f
:1025ac0020200000203d00003d3d00003d3d00008e
:1025bc003d3d00003d3d00003d3d00003d3d000027
:1025cc003d3d00003d3d00003d3d00003d3d000017
:1025dc003d3d00003d2b00003d3d00003d3d000019
:1025ec003d3d00003d3d00003d3d00003d3d0000f7
:1025fc003d3d00003d3d00003d3d00003d3d0000e7
:10260c003d3d00003d3d00000d0a000000000000b3
:10261c00000000000000000096300000077700006a
:10262c002c6100000eee0000ba5100000999000068
:10263c0019c400006d0700008ff400006a700000e0
:10264c0035a5000063e90000a3950000649e00001e
:10265c0032880000db0e0000a4b80000dc7900001a
:10266c001ee90000d5e0000088d90000d2970000d8
:10267c002b4c0000b6090000bd7c0000b17e0000b0
:10268c00072d0000b8e70000911d0000bf9000006e
:10269c0064100000b71d0000f2200000b06a0000ba
:1026ac0048710000b9f30000de410000be84000058
:1026bc007dd40000da1a0000ebe40000dd6d0000b0
:1026cc0051b50000d4f40000c7850000d38300008e
:1026dc00569800006c130000c0a800006b6400004a
:1026ec007af9000062fd0000ecc90000658a000068
:1026fc004f5c000001140000d96c00000663000060
:10270c00633d00000ffa0000f50d0000088d00007d
:10271c00c82000006e3b00005e100000694c0000f9
:10272c00e441000060d500007271000067a2000057
:10273c00d1e40000033c000047d40000044b00002f
:10274c00fd8500000dd200006bb500000aa500004d
:10275c00faa80000b53500006c980000b2420000e9
:10276c00d6c90000bbdb000040f90000bcac000087
:10277c00e36c0000d8320000755c0000df450000ff
:10278c00cf0d0000d6dc0000593d0000d1ab00009d
:10279c00ac300000d92600003a000000de510000e9
:1027ac0080510000d7c8000016610000d0bf0000a7
:1027bc00b5f40000b421000023c40000b35600009f
:1027cc0099950000bacf00000fa50000bdb800001d
:1027dc009eb800000228000008880000055f000079
:1027ec00b2d900000cc6000024e900000bb10000b7
:1027fc00877c00006f2f0000114c0000685800000f
:10280c00ab1d000061c100003d2d000066b600004c
:10281c0090410000dc76000006710000db01000036
:10282c00bc200000d29800002a100000d5ef000058
:10283c0089850000b17100001fb50000b6060000cc
:10284c00a5e40000bf9f000033d40000b8e80000ee
:10285c00a2c900000778000034f90000000f000046
:10286c008ea8000009960000189800000ee10000e8
:10287c00bb0d00006a7f00002d3d00006d080000bc
:10288c00976c000064910000015c000063e600009e
:10289c00f45100006b6b0000626100006c1c0000c6
:1028ac00d8300000658500004e00000062f2000088
:1028bc00ed950000066c00007ba50000011b0000dc
:1028cc00c1f400000882000057c400000ff500009e
:1028dc00c6d90000b065000050e90000b712000036
:1028ec00eab80000be8b00007c880000b9fc000038
:1028fc00df1d0000dd620000492d0000da1500002c
:10290c00f37c0000d38c0000654c0000d4fb00006d
:10291c0058610000b24d0000ce510000b53a0000e5
:10292c0074000000bca30000e2300000bbd4000027
:10293c0041a50000df4a0000d7950000d83d0000fb
:10294c006dc40000d1a40000fbf40000d6d300003d
:10295c006ae9000069430000fcd900006e340000f5
:10296c004688000067ad0000d0b8000060da0000b7
:10297c00732d000004440000e51d0000033300002b
:10298c005f4c00000aaa0000c97c00000ddd0000ad
:10299c003c71000005500000aa4100000227000015
:1029ac00101000000bbe0000862000000cc90000b7
:1029bc0025b5000068570000b38500006f200000ab
:1029cc0009d4000066b900009fe4000061ce00004d
:1029dc000ef90000de5e000098c90000d929000045
:1029ec0022980000d0b00000b4a80000d7c70000a7
:1029fc00173d0000b3590000810d0000b42e0000fb
:102a0c003b5c0000bdb70000ad6c0000bac000001c
:102a1c0020830000b8ed0000b6b30000bf9a0000a0
:102a2c000ce20000b60300009ad20000b174000062
:102a3c0039470000d5ea0000af770000d29d0000b6
:102a4c0015260000db04000083160000dc73000078
:102a5c00120b000063e30000843b00006494000050
:102a6c003e6a00006d0d0000a85a00006a7a000052
:102a7c000bcf00000ee400009dff00000993000046
:102a8c0027ae0000000a0000b19e0000077d000088
:102a9c00449300000ff00000d2a300000887000050
:102aac0068f20000011e0000fec200000669000072
:102abc005d57000062f70000cb67000065800000e6
:102acc00713600006c190000e70600006b6e000008
:102adc00761b0000d4fe0000e02b0000d389000020
:102aec005a7a0000da100000cc4a0000dd670000c2
:102afc006fdf0000b9f90000f9ef0000be8e000096
:102b0c0043be0000b7170000d58e0000b060000077
:102b1c00e8a30000d6d600007e930000d1a10000ef
:102b2c00c4c20000d838000052f20000df4f000091
:102b3c00f1670000bbd1000067570000bca6000085
:102b4c00dd060000b53f00004b360000b248000027
:102b5c00da2b00000dd800004c1b00000aaf00005f
:102b6c00f64a000003360000607a000004410000c1
:102b7c00c3ef000060df000055df000067a8000015
:102b8c00ef8e00006e31000079be00006946000037
:102b9c008cb3000061cb00001a83000066bc0000ff
:102bac00a0d200006f25000036e200006852000041
:102bbc00957700000ccc0000034700000bbb000015
:102bcc00b9160000022200002f2600000555000057
:102bdc00be3b0000bac50000280b0000bdb20000cf
:102bec00925a0000b42b0000046a0000b35c000091
:102bfc00a7ff0000d7c2000031cf0000d0b5000005
:102c0c008b9e0000d92c00001dae0000de5b000086
:102c1c00b0c20000649b000026f2000063ec0000d0
:102c2c009ca300006a7500000a9300006d0200006e
:102c3c00a9060000099c00003f3600000eeb0000c6
:102c4c0085670000077200001357000000050000a4
:102c5c00824a0000bf950000147a0000b8e2000020
:102c6c00ae2b0000b17b0000381b0000b60c00003e
:102c7c009b8e0000d29200000dbe0000d5e5000036
:102c8c00b7ef0000dc7c000021df0000db0b000054
:102c9c00d4d20000d386000042e20000d4f1000040
:102cac00f8b30000dd6800006e830000da1f00003e
:102cbc00cd160000be8100005b260000b9f60000b6
:102ccc00e1770000b06f000077470000b7180000f4
:102cdc00e65a000008880000706a00000fff000030
:102cec00ca3b0000066600005c0b000001110000ee
:102cfc00ff9e0000658f000069ae000062f80000c6
:102d0c00d3ff00006b61000045cf00006c16000083
:102d1c0078e200000aa00000eed200000dd70000ff
:102d2c0054830000044e0000c2b3000003390000bd
:102d3c006126000067a70000f716000060d00000b5
:102d4c004d47000069490000db7700006e3e000033
:102d5c004a6a0000d1ae0000dc5a0000d6d900004f
:102d6c00660b0000df400000f03b0000d83700008d
:102d7c0053ae0000bca90000c59e0000bbde0000e5
:102d8c007fcf0000b2470000e9ff0000b530000023
:102d9c001cf20000bdbd00008ac20000baca0000cf
:102dac0030930000b3530000a6a30000b42400002d
:102dbc0005360000d0ba000093060000d7cd000005
:102dcc0029570000de540000bf670000d923000023
:102ddc002e7a000066b30000b84a000061c40000ff
:102dec00021b0000685d0000942b00006f2a00009d
:102dfc0037be00000bb40000a18e00000cc3000015
:102e0c001bdf0000055a00008def0000022d0000b2
:102e1c0000c100008140000001c0000080410000a2
:102e2c0001c000008041000000c100008140000092
:102e3c0001c000008041000000c100008140000082
:102e4c0000c100008140000001c000008041000072
:102e5c0001c000008041000000c100008140000062
:102e6c0000c100008140000001c000008041000052
:102e7c0000c100008140000001c000008041000042
:102e8c0001c000008041000000c100008140000032
:102e9c0001c000008041000000c100008140000022
:102eac0000c100008140000001c000008041000012
:102ebc0000c100008140000001c000008041000002
:102ecc0001c000008041000000c1000081400000f2
:102edc0000c100008140000001c0000080410000e2
:102eec0001c000008041000000c1000081400000d2
:102efc0001c000008041000000c1000081400000c2
:102f0c0000c100008140000001c0000080410000b1
:102f1c0001c000008041000000c1000081400000a1
:102f2c0000c100008140000001c000008041000091
:102f3c0000c100008140000001c000008041000081
:102f4c0001c000008041000000c100008140000071
:102f5c0000c100008140000001c000008041000061
:102f6c0001c000008041000000c100008140000051
:102f7c0001c000008041000000c100008140000041
:102f8c0000c100008140000001c000008041000031
:102f9c0000c100008140000001c000008041000021
:102fac0001c000008041000000c100008140000011
:102fbc0001c000008041000000c100008140000001
:102fcc0000c100008140000001c0000080410000f1
:102fdc0001c000008041000000c1000081400000e1
:102fec0000c100008140000001c0000080410000d1
:102ffc0000c100008140000001c0000080410000c1
:10300c0001c000008041000000c1000081400000b0
:10301c0000c00000c1010000c303000002c2000098
:10302c00c606000007c7000005c50000c404000068
:10303c00cc0c00000dcd00000fcf0000ce0e000018
:10304c000aca0000cb0b0000c909000008c8000028
:10305c00d818000019d900001bdb0000da1a000098
:10306c001ede0000df1f0000dd1d00001cdc000068
:10307c0014d40000d5150000d717000016d6000098
:10308c00d212000013d3000011d10000d0100000a8
:10309c00f030000031f1000033f30000f232000098
:1030ac0036f60000f7370000f535000034f4000068
:1030bc003cfc0000fd3d0000ff3f00003efe000018
:1030cc00fa3a00003bfb000039f90000f838000028
:1030dc0028e80000e9290000eb2b00002aea000098
:1030ec00ee2e00002fef00002ded0000ec2c000068
:1030fc00e424000025e5000027e70000e626000098
:10310c0022e20000e3230000e121000020e00000a7
:10311c00a060000061a1000063a30000a262000097
:10312c0066a60000a7670000a565000064a4000067
:10313c006cac0000ad6d0000af6f00006eae000017
:10314c00aa6a00006bab000069a90000a868000027
:10315c0078b80000b9790000bb7b00007aba000097
:10316c00be7e00007fbf00007dbd0000bc7c000067
:10317c00b474000075b5000077b70000b676000097
:10318c0072b20000b3730000b171000070b00000a7
:10319c005090000091510000935300005292000097
:1031ac009656000057970000559500009454000067
:1031bc009c5c00005d9d00005f9f00009e5e000017
:1031cc005a9a00009b5b0000995900005898000027
:1031dc0088480000498900004b8b00008a4a000097
:1031ec004e8e00008f4f00008d4d00004c8c000067
:1031fc004484000085450000874700004686000097
:10320c0082420000438300004181000080400000a6
:10321c00303000000030000031000000303200007f
:10322c00003000003300000030340000003000009b
:10323c003500000030360000003000003700000080
:10324c003038000000300000390000003130000040
:10325c00003100003100000031320000003100006c
:10326c003300000031340000003100003500000054
:10327c00313600000031000037000000313800000a
:10328c000031000039000000323000000032000034
:10329c003100000032320000003200003300000028
:1032ac0032340000003200003500000032360000dd
:1032bc0000320000370000003238000000320000fd
:1032cc0039000000333000000033000031000000f2
:1032dc0033320000003300003300000033340000b0
:1032ec0000330000350000003336000000330000ce
:1032fc0037000000333800000033000039000000b4
:10330c003430000000340000310000003432000082
:10331c00003400003300000034340000003400009e
:10332c003500000034360000003400003700000087
:10333c003438000000340000390000003530000043
:10334c00003500003100000035320000003500006f
:10335c00330000003534000000350000350000005b
:10336c00353600000035000037000000353800000d
:10337c000035000039000000303000002f30000014
:10338c00302f0000303000003030000020300000c2
:10339c00303a0000303000003a30000030000000bd
:1033ac0012010000000200000200000000080000f2
:1033bc00d80400000a000000000100000102000017
:1033cc00000100000902000043000000020100009f
:1033dc0000c00000320900000400000000010000e1
:1033ec000202000001000000052400000010000093
:1033fc000104000024020000020500002406000065
:10340c00000100000524000001000000010700007d
:10341c000581000003080000000200000904000000
:10342c0001000000020a000000000000000700007c
:10343c00050200000240000000000000070500002b
:10344c0082020000400000000000000004030000a5
:10345c0009040000340300004d0000006900000066
:10346c0063000000720000006f00000063000000a9
:10347c0068000000690000007000000020000000df
:10348c0054000000650000006300000068000000ac
:10349c006e0000006f0000006c0000006f00000068
:1034ac0067000000790000002000000049000000c7
:1034bc006e000000630000002e00000034030000ca
:1034cc004300000044000000430000002000000006
:1034dc0052000000530000002d00000032000000dc
:1034ec003300000032000000200000004500000006
:1034fc006d000000750000006c0000006100000011
:10350c0074000000690000006f0000006e000000f5
:10351c002000000044000000650000006d00000069
:10352c006f00000003000000050000005c000000bc
:10353c000900000002000000ff000000ff00000076
:10354c00070000000c0000000e000000100000003e
:10355c00120000001400000016000000180000000b
:10356c001a0000001c0000001e00000020000000db
:10357c0022000000240000002600000028000000ab
:10358c002a0000002c0000002e000000300000007b
:10359c00320000003400000036000000380000004b
:1035ac003a0000003e000000400000004200000015
:1035bc003c000000440000004600000048000000f1
:1035cc005f0000004a0000004c0000004e000000ac
:1035dc005000000052000000540000005600000093
:1035ec00580000000400000006000000ff0000006e
:1035fc000a000000ff000000ff000000ff000000b8
:10360c00ff0000000b0000000d0000000f00000088
:10361c00110000001300000015000000170000004e
:10362c00190000001b0000001d0000001f0000001e
:10363c0021000000230000002500000027000000ee
:10364c00290000002b0000002d0000002f000000be
:10365c00310000003300000035000000370000008e
:10366c00390000003d0000003f0000004100000058
:10367c003b00000043000000450000004700000034
:10368c005e000000490000004b0000004d000000ef
:10369c004f000000510000005300000055000000d6
:1036ac005700000001020000040800001020000078
:1036bc0040800000253000003478000025300000e8
:1036cc00347800000020000044410000432000003a
:1036dc00534d000020430000505500002000000016
:1036ec0000000000010100000102000002010000c6
:1036fc0002020000030300000404000005050000a2
:10370c00060600000602000002060000060100008a
:10371c000106000000060000010b0000020400007e
:10372c00030400000404000005050000060400006a
:10373c0007040000001f00001c1f00001e1f0000db
:10374c001e1f00001f1e00001f1e00001f00000097
:10375c00a1a00000a9a80000a5a40000adac000029
:020000040000fa
:10376c000000fa004006200080ce8800209d210039
:10377c008040eb00014878009ec0a9000080eb005f
:10378c00702488000080eb0050248800aa24ef00ed
:10379c00420020008000eb00c04a2000a5f7070083
:1037ac002000200030258800a824ef008644a900c2
:1037bc00f009200080248800f00920006024880093
:1037cc008804a80000a021004800de00c024880066
:1037dc001c68ef000a0037001cc8bf000080fb000b
:1037ec00c200dd0000a02100008140006000b80094
:1037fc000089be001cc8bf000040e8001ce8b700f0
:10380c001cc8bf00eb4f5000f3ff36009424a800f7
:10381c009624ef0094a4a9009424a900100037006a
:10382c008000200050248800009821008040eb008c
:10383c0001487800609821008040eb000148780036
:10384c007098210090407800e0c06000014878003a
:10385c008098210090407800e0c06000014878001a
:10386c0050248000680060000000e000ecff3a008b
:10387c0010002000a040880010002000b0408800fc
:10388c001828ef001a28ef000a28ef001c68ef0038
:10389c001b0037001cc8bf000080fb0080004000ec
:1038ac0080972100008040008000eb000108780028
:1038bc001cc8bf000080fb00800040002097210046
:1038cc00008040008000eb00010878001cc8bf009d
:1038dc000080fb00b19821000041eb008270780061
:1038ec001cc8bf000080fb00e19821000041eb00e8
:1038fc00827078001cc8bf000040e8001ce8b700cc
:10390c001cc8bf00e24f5000e2ff360080a021002f
:10391c00c0cb8800d00020005025880010992100d1
:10392c0010d0880000a0210081c0b30001487800ad
:10393c0010a0210041c8b300014878000268ef00d4
:10394c000028ef000080fa00000006000000fa00da
:10395c0020248000680060000000e00005003a00b0
:10396c009424ef008c24ef000028ef008ec0a900f7
:10397c00df0037008043800091438000e00f50004f
:10398c00e08f58000b003a0001408000000220003c
:10399c00808f500007003a008043800091438000e4
:1039ac0061004000e080480080438800914388001b
:1039bc0000000000004080000000e00012003a000f
:1039cc009424ef008c24ef00200020003025880088
:1039dc00a824ef008644a900f00920008024880068
:1039ec00f009200060248800010037009404a8002e
:1039fc00a0248000610060000000e000fbff3200aa
:103a0c00100020000040880000408000e10f5000b2
:103a1c000c003a00a124800000042000008060000b
:103a2c000000e00007003a000080eb005024880002
:103a3c008c24ef008c04a8008c84a80020002000ab
:103a4c000040880000248000700060000000e0004e
:103a5c000700320010248000700060000000e000bd
:103a6c00030032000001200000248800ee0507004e
:103a7c0040248000620060000000e0000200320080
:103a8c008ec0a9009a0037005024800061006000ad
:103a9c000000e0000900320060248000610060003a
:103aac000000e000050032002dff07004000200060
:103abc000040880010002000502488005024800012
:103acc00700060000000e0000700320060248000fd
:103adc00700060000000e00003003200c805070021
:103aec0000012000502488005024800064006000f5
:103afc000000e000120032006024800064006000ce
:103b0c000000e000020032003007200050380700af
:103b1c00400020005024880010c8bf000004e000c2
:103b2c000300320010c8bf000040e90010e8b700e5
:103b3c0010c8bf000004e00001003a004902070071
:103b4c005124800000082000008060000000e0008c
:103b5c000600320061248000000820000080600014
:103b6c000000e000010032008605070050248000b0
:103b7c00620060000000e0000a0032006024800057
:103b8c00620060000000e00006003200f0ff270039
:103b9c002f3807000080eb007024880020002000e4
:103bac005024880000408000e30f500002003e00cb
:103bbc008ec0a9004e0037006024800068006000b1
:103bcc000000e000490032002068ef00420037009e
:103bdc0050248000680060000000e00042003200c9
:103bec00f04080000000e800f04088009024800045
:103bfc00004078000ce8b7000cc8bf000080fb0048
:103c0c004400de00004078000de8b7008000200082
:103c1c00502488000cc8bf00684060000004e0001d
:103c2c0012003a000dc8bf000081fb000dc8bf0098
:103c3c008080fb00e09821000080400090407800dc
:103c4c0061c060000004a200e1406000e098210027
:103c5c0000004100e1c06000104178000204a100a6
:103c6c008140710001487800110037000dc8bf0079
:103c7c000081fb000dc8bf008080fb00b0982100c4
:103c8c00008040009040780061c060000004a200f9
:103c9c00e1406000b098210000004100e1c06000ec
:103cac00104178000204a1008140710001487800a5
:103cbc000dc8bf000004e00002003a0063050700d5
:103ccc000200370020072000e137070020c8bf00a2
:103cdc000040e80020e8b70020c8bf00e34f5000c8
:103cec00bbff360001003700000000008ec0a900a9
:103cfc000080fa00000006000200fa00004f780075
:103d0c00114798001e4090000080fb006800600086
:103d1c000000e000030032008040eb001e40780001
:103d2c004d0207001e4090000080fb006400600004
:103d3c000000e0000300320011c0b3001e40780008
:103d4c00450207001e80fb00cf80de00f200200041
:103d5c0003002000820f5000838f580051003e005a
:103d6c00006001000f00370012003700150037000b
:103d7c00180037001b0037001e00370021003700e9
:103d8c0024003700270037002a0037002d003700a9
:103d9c003000370033003700360037003900370069
:103dac003c0037001e4090000080fb00502588002e
:103dbc003d0037001e4090000080fb00602588000d
:103dcc00390037001e4090000080fb0070258800f1
:103ddc00350037001e4090000080fb0080258800d5
:103dec00310037001e4090000080fb0090258800b9
:103dfc002d0037001e4090000080fb00a02588009d
:103e0c00290037001e4090000080fb00b025880080
:103e1c00250037001e4090000080fb00c025880064
:103e2c00210037001e4090000080fb00d025880048
:103e3c001d0037001e4090000080fb00e02588002c
:103e4c00190037001e4090000080fb00f025880010
:103e5c00150037001e4090000080fb0000268800f3
:103e6c00110037001e4090000080fb0010268800d7
:103e7c000d0037001e4090000080fb0020268800bb
:103e8c00090037001e4090000080fb00302688009f
:103e9c00050037001e4090000080fb004026880083
:103eac0001003700000000000080fa00000006004e
:103ebc000400fa00004f7800114798002247980040
:103ecc00334798001e4090000004e0005b00320075
:103edc001e80fb0080004000809721000080400085
:103eec00100078000000e000ae0032002e40900080
:103efc000080fb00e10f50000c003200e20f50007c
:103f0c00120032000000e00018003a001e80fb0096
:103f1c008000400080972100008040001000780055
:103f2c008000eb0011009800100037001e80fb0091
:103f3c008000400080972100008040001000780035
:103f4c002169210011009800080037001e80fb0039
:103f5c008000400080972100008040001000780015
:103f6c00216d210011009800000000001e80fb0054
:103f7c0080004000809721000080400010007800f5
:103f8c00be409000014878001e80fb00800040007d
:103f9c008097210000804000900078001e80fb007c
:103fac0000014000809721000000410010007800c3
:103fbc00104090000044b200904098001e80fb001e
:103fcc008000400080972100008040009000780025
:103fdc001e80fb0000014000809721000000410082
:103fec00100078001041900080c8b30000407100b0
:103ffc0090409800819721001e80fb00000040003b
:10400c0080804000829721001e80fb000000400051
:10401c0000004100104078000024a2008048780085
:10402c001e80fb0080004000809721000080400033
:10403c0010007800504288005a0037001e80fb00a8
:10404c008000400020972100008040001000780084
:10405c000000e000530032002e4090000080fb0076
:10406c00e10f50000c003200e20f50001200320041
:10407c000000e00018003a001e80fb0080004000a9
:10408c002097210000804000100078008000eb0099
:10409c0011009800100037001e80fb0080004000cb
:1040ac002097210000804000100078002169210039
:1040bc0011009800080037001e80fb0080004000b3
:1040cc00209721000080400010007800216d210015
:1040dc0011009800000000001e80fb0080004000d2
:1040ec00209721000080400010007800be40900016
:1040fc00014878001e80fb008000400020972100c2
:10410c0000804000900078001e80fb000001400001
:10411c002097210000004100100078001040900012
:10412c000044b200904098001e80fb0080004000cc
:10413c002097210000804000900078001e80fb003a
:10414c000001400020972100000041001000780081
:10415c001041900080c8b30000407100904098005e
:10416c00219721001e80fb00000040008080400051
:10417c00229721001e80fb0000004000000041003f
:10418c00104078000024a200804878001e80fb00bc
:10419c008000400020972100008040001000780033
:1041ac00404288000080fa00000006000200fa007d
:1041bc00004f7800114798001e4078000004e00082
:1041cc0019003a0004c8bf000080fb00c200dd00eb
:1041dc0000a021000080400081c0b300014878009d
:1041ec0004c8bf000080fb00119921004201dd00d2
:1041fc0020a02100000041000108780004c8bf0085
:10420c000080fb00c200dd0000a021000080400007
:10421c00c1c8b30011409800c0cb800041c8b300a6
:10422c0011409800330037001e80fb000000400056
:10423c00800078001e4090000080fb000080400051
:10424c0000004000000178001e80fb0000004000d0
:10425c00800078001e4090000080fb000080400031
:10426c0000004000c200dd0000a0210000804000e2
:10427c009040900040c8b30080c070004211dd0037
:10428c0000a0210000004100114098001e80fb009e
:10429c0000004000800078001e4090000080fb0071
:1042ac0000804000000040000001e8001e80fb0080
:1042bc0000004000800078001e4090000080fb0051
:1042cc0000804000000040000000e800c200dd005b
:1042dc0000a02100008040009040900040c8b30036
:1042ec0080c070004211dd0000a0210000004100e0
:1042fc00114098000080fa00000006000200fa004d
:10430c00004f7800a1248000000220000080600093
:10431c000000e000510032001e80fb0080004000d5
:10432c008097210000804000100278001e80fb0066
:10433c008000400080972100008040001000780031
:10434c001001be0000042000010020008202780051
:10435c0003017800800178000100780083826200fc
:10436c00000061008000eb00c000dd0000002000b8
:10437c000001be006128b80000017100818171004c
:10438c00028abe001e80fb00800040008097210046
:10439c0000804000100278001e80fb00800040006e
:1043ac008097210000804000100078001001be00b2
:1043bc0000042000010020000000690081806900d9
:1043cc00008abe00819721001e80fb000000400087
:1043dc0080804000829721001e80fb00000040007e
:1043ec0000004100104078000024a20080487800b2
:1043fc001e80fb0080004000809721000080400060
:10440c00900078001e80fb00000140008097210086
:10441c000000410010007800104090000044b200f1
:10442c00904098001e80fb00800040008097210087
:10443c0000804000900078001e80fb0000014000ce
:10444c00809721000000410010007800104190007e
:10445c0000c4b30000406900904098000080fa004e
:10446c00000006000000fa00a04080000000e00000
:10447c0041003a0010002000a0408800b0408000ad
:10448c000000e0003c003a0010002000b040880022
:10449c0006c8bf00e24f500007003a00c0cb8000b6
:1044ac008040eb0001487800c0cb800081ccb30089
:1044bc00114098003000370006c8bf00e14f500093
:1044cc002d003a000e28ef0003c8bf000080fb004f
:1044dc00c200dd0000a021000080400081c0b300bc
:1044ec000148780003c8bf000080fb00119921002f
:1044fc004201dd0020a021000000410001087800ed
:10450c0003c8bf000080fb00c200dd0000a021003a
:10451c000080400041c8b3001140980010002000fa
:10452c007040880004c8bf000080fb00c200dd00a2
:10453c0000a021000080400081c0b3000148780039
:10454c0004c8bf000080fb00119921004201dd006e
:10455c0020a02100000041000108780004c8bf0021
:10456c000080fb00c200dd0000a0210000804000a4
:10457c0001c8b300114098000080fa00000006004a
:10458c000000fa001828ef001a28ef0006c8bf0038
:10459c00e24f500016003a0004c8bf000080fb0038
:1045ac00c200dd0000a021000080400081c0b300eb
:1045bc000148780004c8bf000080fb0091992100dd
:1045cc004201dd0020a0210000004100010878001c
:1045dc0004c8bf000080fb00c200dd0000a0210069
:1045ec000080400081ccb3001140980018003700c7
:1045fc00709921001080fb00819921009180fb00b3
:10460c00c808dd00010070008000780010cc80002c
:10461c00808f500007003100709921001080fb0042
:10462c00819921009180fb00c808dd000100700019
:10463c0010cc8800b9000700c0cb800091992100f4
:10464c0011009800c0cb800081ccb30011409800c1
:10465c000080fa00000006000200fa00004f78000b
:10466c00114798001e80fb0000004000800078007d
:10467c001e4090000080fb000080400000004000c5
:10468c00c200dd0000a02100008040001001780075
:10469c00f1ff270081006100010878001e409000a6
:1046ac000004e00010003a001e80fb009e80fb001e
:1046bc0081804000010178009e4090008180fb00c9
:1046cc0081004100c308dd000101780001a0210038
:1046dc0081004100000140002097210000004100b2
:1046ec00010878000f0037001e80fb009e80fb0045
:1046fc0081804000010178009e4090008180fb0089
:10470c0081004100c308dd000101780001a02100f7
:10471c008100410000014000809721000000410011
:10472c00010878001e80fb0000004000800078002b
:10473c001e4090000080fb00008040000000400004
:10474c00c200dd0000a02100008040009000780035
:10475c0001e0a100010878001e80fb000000400071
:10476c00800078001e4090000080fb00008040001c
:10477c00000040000000e800c200dd0000a02100a5
:10478c00008040009000780001e0a0000108780053
:10479c000080fa00000006000000fa0094a4a900b2
:1047ac0001cc800000082000008060000000e000c8
:1047bc0028003a00609821009040780000c8b300af
:1047cc0000c060000004e0000900320020c0b3000b
:1047dc0006e8b700d04080000000e00001003a007d
:1047ec0067ff07001628ef001428ef004900370078
:1047fc0004c8bf000080fb00c200dd0000a0210047
:10480c000080400081c0b3000148780004c8bf009c
:10481c000080fb00119921004201dd0020a0210045
:10482c00000041000108780004c8bf000080fb00b4
:10483c00c200dd0000a0210000804000c1c8b30010
:10484c0011409800c0cb800041c8b30011409800c3
:10485c0030003700109921009040780000c8b30058
:10486c0000c060000004e0000d00320010c0b30076
:10487c0006e8b700c04080000000e00001003a00ec
:10488c003fff07001628ef001428ef00904080002f
:10489c000000e0001f003a00f2fe07001d00370088
:1048ac0020c0b30006e8b70004c8bf000080fb00be
:1048bc00c200dd0000a021000080400081c0b300d8
:1048cc000148780004c8bf000080fb00119921004a
:1048dc004201dd0020a02100000041000108780009
:1048ec0004c8bf000080fb00c200dd0000a0210056
:1048fc000080400041c8b300114098001628ef001a
:10490c001428ef00904080000000e00001003a0005
:10491c00d4fe07000080fa00000006000000fa0038
:10492c0080c0b30021e8b70010cc8000e70f500026
:10493c000e003e0010cc80000040780021e8b7004b
:10494c0005c8bf000004e00003003a0010c0b3002b
:10495c0005e8b7000500370005c8bf00e14f50005f
:10496c0002003a0020c0b30005e8b70011cc80006b
:10497c0021c8bf000080fb000080500010cc8800d4
:10498c00c0cb800011822000914078000148780053
:10499c002268ef0000cc8000610060000000e000a5
:1049ac0022003a000e00370022c8bf008080fb00b6
:1049bc00f0cb8000904178009299210003f17800af
:1049cc000000e800f0cb880022c8bf000040e800df
:1049dc0022e8b70021c8bf000040e90021e8b70079
:1049ec0021c8bf000004e000efff3a0013003700bd
:1049fc0022c8bf008080fb00f0cb80009041780083
:104a0c009299210003f178000000e800f0cb8800b7
:104a1c0022c8bf000040e80022e8b70021c8bf0050
:104a2c000040e90021e8b700010037000000000059
:104a3c0021c8bf000004e000edff3a000080fa003e
:104a4c00000006000000fa0003c8bf000080fb0055
:104a5c00c200dd0000a02100008040001040780062
:104a6c0023e8b70023c8bf008080fb0070982100aa
:104a7c001080fb00829821001281fb004811dd00a0
:104a8c0002007000808f50000800360070982100e2
:104a9c001080fb00819821009180fb00c808dd008c
:104aac00010070000040780023e8b70070982100e6
:104abc001080fb00819821009180fb00c808dd006c
:104acc00010070008000780023c8bf000080fb004c
:104adc0000805000f10f200001016000719821004e
:104aec0091417800e0c1610002c1710082487800f8
:104afc00c800de0080982100104178006041610000
:104b0c0081407100014878002468ef001d003700d7
:104b1c00409821001080fb00519821009180fb00ef
:104b2c00c808dd000100700041822000914078002f
:104b3c008180fb0092992100e2c078000148780046
:104b4c000000e800f10f20000101600041982100f5
:104b5c0091417800e0c1610002c171008248780087
:104b6c00c800de00509821001041780060416100bf
:104b7c00814071000148780024c8bf000040e80063
:104b8c0024e8b700418220009140780023c8bf0080
:104b9c0080cf5000deff3900709821001080fb00a0
:104bac00819821009180fb00c808dd000100700095
:104bbc000000e0002800320004c8bf000080fb00a9
:104bcc00c200dd0000a021000080400081c0b300c5
:104bdc000148780004c8bf000080fb0091992100b7
:104bec004201dd0020a021000000410001087800f6
:104bfc0003c8bf000080fb00c200dd0000a0210044
:104c0c0000804000100078004e00de006140600023
:104c1c000004e00008003a0004c8bf000080fb005c
:104c2c00c200dd0000a021000080400081ccb30058
:104c3c00114098003400370004c8bf000080fb000e
:104c4c00c200dd0000a021000080400081c8b3003c
:104c5c00114098002c00370004c8bf000080fb00f6
:104c6c00c200dd0000a021000080400081c0b30024
:104c7c000148780004c8bf000080fb001199210096
:104c8c004201dd0020a02100000041000108780055
:104c9c0004c8bf000080fb00c200dd0000a02100a2
:104cac000080400041c8b30011409800909821004a
:104cbc001080fb00a19821009180fb00c808dd004a
:104ccc00010070000000e000070032009098210005
:104cdc001080fb00a19821009180fb00c808dd002a
:104cec0001007000000001006098210090407800e5
:104cfc000174a10001487800904080000000e000a1
:104d0c0001003a00d7fd07000080fa000000060001
:104d1c000000fa0000cc80000070a00000cc8800dd
:104d2c00420020008000eb00c04a200041f2070046
:104d3c00020320008000eb0000a021003df20700e0
:104d4c009424a8002568ef000d00370025c8bf008b
:104d5c000080fb00b19821000041eb0082707800cc
:104d6c0025c8bf000080fb00e19821000041eb004a
:104d7c008270780025c8bf000040e80025e8b70025
:104d8c0025c8bf00e24f5000f0ff36002200200083
:104d9c008000eb000097210026f207009424a90064
:104dac0080a02100c0cb88000368ef000468ef00ee
:104dbc00309921001040780002e8b70002c8bf000b
:104dcc000004e00003003a000001200000408800cd
:104ddc0004003700100020009d3307000002200063
:104dec00004088000080fa00000006000000fa0075
:104dfc00109921009040780000c8b30080cf50007b
:104e0c0059003a000098210001ccb3000148780009
:104e1c0040992100104078000080fb00e20f500008
:104e2c0009003200e30f500018003200e10f50006f
:104e3c0049003a00609d2900f0cb88002001200039
:104e4c0010cc8800480037003099210010407800c1
:104e5c008080fb00809e290000804000f0cb880001
:104e6c00f0cb80000080e800904078002098210072
:104e7c0001487800f0cb800063004000904078003f
:104e8c003098210001487800370037003099210014
:104e9c0010407800e24f50002b003e00309921006a
:104eac00104078000080fb00e10f50000c00320035
:104ebc00e20f5000140032000000e0001c003a0029
:104ecc0030992100104078000080fb00c200dd000a
:104edc00c0a2290000804000f0cb880015003700ec
:104eec0030992100104078008080fb0040032000a6
:104efc000088b9008000780000a3290000804000e1
:104f0c00f0cb88000b00370030992100104078005e
:104f1c008080fb00400320000088b90080007800ee
:104f2c0040a6290000804000f0cb8800010037002b
:104f3c0000000000f0cb8000104078000080fb00e7
:104f4c0010cc880008003700009821008040eb004e
:104f5c000148780004003700009821008040eb00e5
:104f6c0001487800000000000080fa0000000600f4
:104f7c000000fa00909921008040eb000148780075
:104f8c00a09921008040eb00014878001099210085
:104f9c00904078007fc060000080fb00e10f500063
:104fac0017003200e20f5000190032000000e00040
:104fbc0065003a0000cc80000070a00000cc880096
:104fcc009099210010407800804078000104a000e6
:104fdc00909921000148780040408000e10f50007a
:104fec0050003a00909921001040780080407800e1
:104ffc000114a0009099210001487800520037005c
:10500c0000cc80000070a00000cc88004e0037005f
:10501c0000cc80000070a00000cc880050992100ca
:10502c009040780000c8b30000c060000004e000ad
:10503c001e003a0050992100904078006fc060002b
:10504c000080fb0080004000209721000080400081
:10505c0010007800900078000000280000806000ac
:10506c000000e0003100320050992100904078009f
:10507c006fc060000080fb00800040002097210082
:10508c000080400010007800900078000040200064
:10509c00008060000000e0002600320090992100a2
:1050ac0011c0b30001487800270037005099210047
:1050bc00904078006fc060000080fb0080004000d2
:1050cc00809721000080400010007800900078004c
:1050dc0000002800008060000000e0001700320093
:1050ec0050992100904078006fc060000080fb0058
:1050fc008000400080972100008040001000780064
:10510c009000780000402000008060000000e0006b
:10511c000c0032009099210011c0b30001487800b6
:10512c0009003700000000000700370000000000f5
:10513c0005003700000000000300370000000000ed
:10514c00010037000000000001cc800000082000a6
:10515c00008060000000e0000800320090992100ff
:10516c00f0cb880000cc80000000a00000cc8800b0
:10517c002098210021c0b300014878000080fa007b
:10518c00000006000000fa0050258000620060005c
:10519c000000e0001600320003c8bf000080fb00d6
:1051ac00c200dd0000a02100008040009040900073
:1051bc0000c8b30080cf50000c003a00c0cb800078
:1051cc009040900040c8b30080cf500007003a00d8
:1051dc0003c8bf000080fb00c200dd0000a021005e
:1051ec0000804000c1c8b30011409800aa24a90057
:1051fc0000082000502488000080fa0000000600ff
:10520c000000fa008284a8000001200050248800cd
:10521c001000200050408800500720008c320700fe
:10522c000080fa00000006000000fa000a28ef00d7
:10523c0040072000863207008284a900000120006c
:10524c00002488000080fa00000006000000fa002c
:10525c00d0c2b30010e8b7000cc8bf000080fb0040
:10526c000020a1000000e00044003a000cc8bf0080
:10527c000080fb004200de000040780003e8b7002d
:10528c000cc8bf000080fb004200de00004078002c
:10529c0004e8b70004c8bf000004a20004e8b7008b
:1052ac0003c8bf000080fb00c200dd0000a021008d
:1052bc0000804000100078004a00de006f40600063
:1052cc00ed4f50002b003a002668ef001d00370010
:1052dc0026c8bf008080fb00109921000080400090
:1052ec0031802000914078008180fb00c208dd00f5
:1052fc000181e80001a021008100410091007800ab
:10530c00914078000148780003c8bf000080fb0082
:10531c00c200dd000181e80001a0210081004100f4
:10532c00910078008100e8004201dd0020a02100fe
:10533c00000041000108780026c8bf000040e800ca
:10534c0026e8b70026c8bf00e74f5000e0ff360044
:10535c0003c8bf000080fb00119921004201dd0051
:10536c0020a0210000004100010878000b0007007c
:10537c000800370047000700060037000cc8bf00c4
:10538c000080fb000020a100e80f500001003a0053
:10539c00630007000080fa00000006000000fa001d
:1053ac000568ef001228ef001828ef001a28ef000c
:1053bc000e28ef000668ef00c0cb8000c1cb800048
:1053cc00914090000174a100114098008097210039
:1053dc0081972100914078000124a20001487800b7
:1053ec00c0cb8000c1cb8000914090000174a10023
:1053fc0011409800809721008197210091407800fe
:10540c000124a2000148780004c8bf000081fb0001
:10541c000080fb00c200dd0000a0210000804000e5
:10542c0010409000804078000174a1004211dd0012
:10543c0000a02100000041001140980000982100bc
