:020000040000fa
:080000000002040000000000f2
:020000040000fa
:0400080004030000ed
:020000040000fa
:04000c0004030000e9
:020000040000fa
:0400100004030000e5
:020000040000fa
:0400140004030000e1
:020000040000fa
:0400180004030000dd
:020000040000fa
:04001c0004030000d9
:020000040000fa
:0400200004030000d5
:020000040000fa
:0400240004030000d1
:020000040000fa
:0400280004030000cd
:020000040000fa
:04002c0004030000c9
:020000040000fa
:0400300004030000c5
:020000040000fa
:0400340004030000c1
:020000040000fa
:0400380004030000bd
:020000040000fa
:04003c0004030000b9
:020000040000fa
:0400400004030000b5
:020000040000fa
:0400440004030000b1
:020000040000fa
:0400480004030000ad
:020000040000fa
:04004c0004030000a9
:020000040000fa
:0400500004030000a5
:020000040000fa
:0400540004030000a1
:020000040000fa
:04005800040300009d
:020000040000fa
:04005c000403000099
:020000040000fa
:040060000403000095
:020000040000fa
:040064000403000091
:020000040000fa
:04006800040300008d
:020000040000fa
:04006c000403000089
:020000040000fa
:040070000403000085
:020000040000fa
:040074000403000081
:020000040000fa
:04007800040300007d
:020000040000fa
:04007c000403000079
:020000040000fa
:040080000403000075
:020000040000fa
:040084000403000071
:020000040000fa
:04008800040300006d
:020000040000fa
:04008c000403000069
:020000040000fa
:040090000403000065
:020000040000fa
:040094000403000061
:020000040000fa
:04009800040300005d
:020000040000fa
:04009c000403000059
:020000040000fa
:0400a0000403000055
:020000040000fa
:0400a4000403000051
:020000040000fa
:0400a800040300004d
:020000040000fa
:0400ac000403000049
:020000040000fa
:0400b0000403000045
:020000040000fa
:0400b4000403000041
:020000040000fa
:0400b800040300003d
:020000040000fa
:0400bc000403000039
:020000040000fa
:0400c0000403000035
:020000040000fa
:0400c4000403000031
:020000040000fa
:0400c800040300002d
:020000040000fa
:0400cc000403000029
:020000040000fa
:0400d0000403000025
:020000040000fa
:0400d4000403000021
:020000040000fa
:0400d800040300001d
:020000040000fa
:0400dc000403000019
:020000040000fa
:0400e0000403000015
:020000040000fa
:0400e4000403000011
:020000040000fa
:0400e800040300000d
:020000040000fa
:0400ec000403000009
:020000040000fa
:0400f0000403000005
:020000040000fa
:0400f4000403000001
:020000040000fa
:0400f80004030000fd
:020000040000fa
:0400fc0004030000f9
:020000040000fa
:0401000004030000f4
:020000040000fa
:0401040004030000f0
:020000040000fa
:0401080004030000ec
:020000040000fa
:04010c0004030000e8
:020000040000fa
:0401100004030000e4
:020000040000fa
:0401140004030000e0
:020000040000fa
:0401180004030000dc
:020000040000fa
:04011c0004030000d8
:020000040000fa
:0401200004030000d4
:020000040000fa
:0401240004030000d0
:020000040000fa
:0401280004030000cc
:020000040000fa
:04012c0004030000c8
:020000040000fa
:0401300004030000c4
:020000040000fa
:0401340004030000c0
:020000040000fa
:0401380004030000bc
:020000040000fa
:04013c0004030000b8
:020000040000fa
:0401400004030000b4
:020000040000fa
:0401440004030000b0
:020000040000fa
:0401480004030000ac
:020000040000fa
:04014c0004030000a8
:020000040000fa
:0401500004030000a4
:020000040000fa
:0401540004030000a0
:020000040000fa
:04015800040300009c
:020000040000fa
:04015c000403000098
:020000040000fa
:040160000403000094
:020000040000fa
:040164000403000090
:020000040000fa
:04016800040300008c
:020000040000fa
:04016c000403000088
:020000040000fa
:040170000403000084
:020000040000fa
:040174000403000080
:020000040000fa
:04017800040300007c
:020000040000fa
:04017c000403000078
:020000040000fa
:040180000403000074
:020000040000fa
:040184000403000070
:020000040000fa
:04018800040300006c
:020000040000fa
:04018c000403000068
:020000040000fa
:040190000403000064
:020000040000fa
:040194000403000060
:020000040000fa
:04019800040300005c
:020000040000fa
:04019c000403000058
:020000040000fa
:0402080004030000eb
:020000040000fa
:04020c0004030000e7
:020000040000fa
:0402100004030000e3
:020000040000fa
:0402140004030000df
:020000040000fa
:0402180004030000db
:020000040000fa
:04021c0004030000d7
:020000040000fa
:0402200004030000d3
:020000040000fa
:0402240004030000cf
:020000040000fa
:0402280004030000cb
:020000040000fa
:04022c0004030000c7
:020000040000fa
:0402300004030000c3
:020000040000fa
:0402340004030000bf
:020000040000fa
:0402380004030000bb
:020000040000fa
:04023c0004030000b7
:020000040000fa
:0402400004030000b3
:020000040000fa
:0402440004030000af
:020000040000fa
:0402480004030000ab
:020000040000fa
:04024c0004030000a7
:020000040000fa
:0402500004030000a3
:020000040000fa
:04025400040300009f
:020000040000fa
:04025800040300009b
:020000040000fa
:04025c000403000097
:020000040000fa
:040260000403000093
:020000040000fa
:04026400040300008f
:020000040000fa
:04026800040300008b
:020000040000fa
:04026c000403000087
:020000040000fa
:040270000403000083
:020000040000fa
:04027400040300007f
:020000040000fa
:04027800040300007b
:020000040000fa
:04027c000403000077
:020000040000fa
:040280000403000073
:020000040000fa
:04028400040300006f
:020000040000fa
:04028800040300006b
:020000040000fa
:04028c000403000067
:020000040000fa
:040290000403000063
:020000040000fa
:04029400040300005f
:020000040000fa
:04029800040300005b
:020000040000fa
:04029c000403000057
:020000040000fa
:0402a0000403000053
:020000040000fa
:0402a400040300004f
:020000040000fa
:0402a800040300004b
:020000040000fa
:0402ac000403000047
:020000040000fa
:0402b0000403000043
:020000040000fa
:0402b400040300003f
:020000040000fa
:0402b800040300003b
:020000040000fa
:0402bc000403000037
:020000040000fa
:0402c0000403000033
:020000040000fa
:0402c400040300002f
:020000040000fa
:0402c800040300002b
:020000040000fa
:0402cc000403000027
:020000040000fa
:0402d0000403000023
:020000040000fa
:0402d400040300001f
:020000040000fa
:0402d800040300001b
:020000040000fa
:0402dc000403000017
:020000040000fa
:0402e0000403000013
:020000040000fa
:0402e400040300000f
:020000040000fa
:0402e800040300000b
:020000040000fa
:0402ec000403000007
:020000040000fa
:0402f0000403000003
:020000040000fa
:0402f40004030000ff
:020000040000fa
:0402f80004030000fb
:020000040000fa
:0402fc0004030000f7
:020000040000fa
:0403000004030000f2
:020000040000fa
:0403040004030000ee
:020000040000fa
:0403080004030000ea
:020000040000fa
:04030c0004030000e6
:020000040000fa
:0403100004030000e2
:020000040000fa
:0403140004030000de
:020000040000fa
:0403180004030000da
:020000040000fa
:04031c0004030000d6
:020000040000fa
:0403200004030000d2
:020000040000fa
:0403240004030000ce
:020000040000fa
:0403280004030000ca
:020000040000fa
:04032c0004030000c6
:020000040000fa
:0403300004030000c2
:020000040000fa
:0403340004030000be
:020000040000fa
:0403380004030000ba
:020000040000fa
:04033c0004030000b6
:020000040000fa
:0403400004030000b2
:020000040000fa
:0403440004030000ae
:020000040000fa
:0403480004030000aa
:020000040000fa
:04034c0004030000a6
:020000040000fa
:0403500004030000a2
:020000040000fa
:04035400040300009e
:020000040000fa
:04035800040300009a
:020000040000fa
:04035c000403000096
:020000040000fa
:040360000403000092
:020000040000fa
:04036400040300008e
:020000040000fa
:04036800040300008a
:020000040000fa
:04036c000403000086
:020000040000fa
:040370000403000082
:020000040000fa
:04037400040300007e
:020000040000fa
:04037800040300007a
:020000040000fa
:04037c000403000076
:020000040000fa
:040380000403000072
:020000040000fa
:04038400040300006e
:020000040000fa
:04038800040300006a
:020000040000fa
:04038c000403000066
:020000040000fa
:040390000403000062
:020000040000fa
:04039400040300005e
:020000040000fa
:04039800040300005a
:020000040000fa
:04039c000403000056
:020000040000fa
:10040000afb025000eff27000e018800000000009d
:10041000000020000000e000020032000001200087
:100420002002880014000700a60007000000e0007a
:1004300003003a00c09b26000100200002003700a4
:100440000000200001002000810f70000100320038
:1004500014000700000020000000e000020032004d
:100460000000020000000000fa90020000000000fe
:100470000040da000000fe004440a900e0ed20004a
:100480000000e000030032000020200090018800fe
:100490004440a800000006008a1f78008b1f7800e7
:1004a00000000600a1028800800478000000eb0034
:1004b0001f003700e284440054a0b4009905ba003c
:1004c000e284440054a0b4009906ba00e2844400d7
:1004d00054a0b4000006eb00476fde00fd07b20039
:1004e000ae018800636ce10003003a00eaff0700f8
:1004f0000000eb000e003700606ce10008003a00dd
:10050000004deb000a05e800020039003420ec0041
:100510000af0a0008b05e900f9ff3e000400370057
:100520006168e100010032000086eb000b0007006b
:1005300019c7ba001905ba000e04e00003003a001a
:100540000a00e000dbff3a0000000600fe07b200f0
:10055000ae0288008a047800f5ff37000cd0a300b3
:10056000e20f4d001c00390089027800354dba00b9
:100570000a05e800020039003420ec000af0a0006f
:100580008b05e9000f003200254dba000a05e8008e
:10059000020039003420ec000af0a0008b05e900cd
:1005a000080032000c00e0000600320015cdba0051
:1005b0000a05e800020039003420ec000af0a0002f
:1005c0008b05e9008984e80054a0b4000b00e0002a
:1005d000e2ff3a00000006009902ba00055d7800cb
:1005e0008b05e900f7ff3200c82ade00055d7800c0
:1005f0008b05e900f3ff32000c00e000f1ff320050
:1006000019ddba00eeff37000040da000000fe00fe
:100610000a00fa00e20f50001f003e00f0cf8200f7
:10062000e10f500006003200802320004523200007
:1006300023232000042320000000e00004003a00ef
:1006400080222000452220002322200004222000b6
:10065000060028009403630002003a0007087800af
:10066000140a730013a8a30001003a0013a0a0000d
:1006700002007800050037001388a300feff320057
:100680003102fb00840a78000000e9000000e0006d
:10069000f9ff3a000800370033002000b3bf9f0085
:1006a000c0bf9f00d1bf9f00e2bf9f006a8057007c
:1006b000c20407006fb99700020078000080fa00ba
:1006c00000000600000005006022b80006022000bd
:1006d0000000d0008180d2000482d2008582d20046
:1006e0000000a0000202520083825a000300310081
:1006f0000202420083824a000000a1000603e900d2
:10070000f3ff3a00000006000c00fa00889fbe00cc
:1007100000047800f0ff2700d0bf9f008004eb00aa
:1007200099bf9f0088bf9f00a8bf9f00200c20009a
:10073000b0bf9f0078815700cfb0970070805700fe
:10074000100007000fb89700094878008fb897008d
:10075000088050004f04be000080fa000000060030
:10076000d0019000028151004240a90003003400f2
:1007700010017800014978000208e80001007800c3
:1007800000000600f6874700889fbe008a9fbe00d3
:100790008c9fbe008e1f780000057800a1b79f00d7
:1007a000020778008004eb0090023700afb097009a
:1007b0008100e800a1b79f0051c2b300814f5000f3
:1007c00003003a00afb097000004eb0011003700bf
:1007d000ba0090000000fb000168a300070032008f
:1007e00009017800800078000a007800dcff07002b
:1007f0000000e00005003a007c0237008a00780023
:1008000041030700e10f4000780232008904e8004c
:10081000760237000100780031417800d3c2b3007e
:10082000834f51000c00320007003c00edc1510025
:10083000834f51000a003200ebc14100834f510049
:100840000d003a000800370003c3b300834f510086
:1008500009003a00060037000830a000edff37001d
:100860000800a000ebff37000810a000e9ff3700e8
:100870000820a000e7ff37000818a300010032009d
:100880000800a1000838a300010032000820a100e0
:100890008200fb000103b100e98f50000c003e0014
:1008a000000178008000eb006a08b900b201fb008b
:1008b0000303b10080804100020078009201fb0038
:1008c0000303b100e98f5100f7ff3600060037003f
:1008d0008000eb00a3c2b300834f510002003a0036
:1008e000ce0078000000e8008005eb00e2c2b30013
:1008f000904f110009003a0008e0a0006441510047
:10090000d04f11000300320000017800010278008e
:1009100006003700ce0578000000e80000017800ee
:10092000090037006a58b90080854100020078004c
:10093000b201fb000303b100e98f5100f9ff36005b
:1009400084007800f5ff370032407800a2b79f009e
:10095000c3c6b300834f5000250032000f003c0097
:1009600032c6b300824f50008800320004003c00c1
:100970000004e000220232006b4151000f003700fa
:1009800042c6b300824f500017003200654141005b
:10099000824f500094003a001300370032c7b30072
:1009a000824f50001b00320007003c0064415100a0
:1009b000824f5000100032000241e800824f500088
:1009c00089003a000f00370052c7b300824f500031
:1009d0008a00320063414100824f500082003a0099
:1009e000e0df9f0009003700e0df9f00850037004f
:1009f0000840a000d4ff3700e0df9f000860a0009f
:100a000080003700e0df9f000850a0000870a000c1
:100a10007c003700e0df9f004e0078000006780081
:100a20000000e00001003a00ec8e25000c01780087
:100a30000000eb00010037000000e800e241780010
:100a40000304e000fcff3a00800678000b00e000a1
:100a5000030032008d8f5500010031008b067800b5
:100a60008005eb008d8f5000010036008d85500011
:100a7000680464002a003a00110037003a00900030
:100a80000068a3000700320009017800010220007d
:100a90000a00780032ff07000000e00006003a007c
:100aa000060037008a007800000220009602070046
:100ab000e10f4000010032008904e8008b05e900e5
:100ac0000b00e000edff3a008085eb0014003700da
:100ad0003a0090000068a300090032000c00780082
:100ae000b000fb0000067800090178000a007800d9
:100af0001bff07000000e00008003a000800370074
:100b00008c0078003100fb00010678008a00780034
:100b10007d020700e10f4000010032008904e80077
:100b20000d0078008006e9000000e000e8ff3a00d0
:100b30000800e000ad013200110037003a009000db
:100b40000068a300070032000901780001022000bc
:100b50000a00780002ff07000000e00006003a00eb
:100b6000060037008a0078000002200066020700b5
:100b7000e10f4000010032008904e8008b05e90024
:100b80000b00e000edff3a00980137004e017800bd
:100b9000cf91de00c81ade004818dd004812de00e2
:100ba00004027000e4df9f000848a3000800320040
:100bb0000404e00006003200e14f4200040032006d
:100bc000f4df9f0082e79f002d0020000200370025
:100bd000f2df9f001d002000e2fd2f000f01410009
:100be0000206e80099ff3700e0df9f00ecfd2f00d0
:100bf0000f0646001d00200094ff3700e0df9f0035
:100c0000080cb30008017800020cb2007000640008
:100c10000200e0000d003a000000e0000200320097
:100c20004e06be00020037004e067800cfe6de001a
:100c3000e00f5600e08f5e000a003d003800b30070
:100c400060061600e0861e00060037000000e00087
:100c5000020032004e06be00020037004e06780049
:100c60008006eb000b00e00005003a008c85760062
:100c70000bf0a7008b05ea008b05e900cf5dde00d5
:100c800088017800030cb200e3b79f000004200045
:100c9000808f51002300320003003c000300e0007d
:100ca000080032002d003700000820006fb29700c6
:100cb000800f52000d003200000c2000800f520007
:100cc00026003a00628f250010c0b3006401410085
:100cd000b20f5600a28f5e001f0039000040e800ee
:100ce000ea4f5000f9ff3a001b00370010c0b30074
:100cf0000201200003002000820f5600838f5e0057
:100d000015003900441add00cc11de0083017200a9
:100d10004411dd000040e800e84f5000f6ff3a00c3
:100d20000d00370010c0b300820020000300200037
:100d3000820f5600838f5e0007003900431add00e2
:100d4000cd11de00830172004311dd000040e80098
:100d5000eb4f5000f6ff3a00e0df9f006fd997009d
:100d60000200fb008b0f500002003d00ebdf9f00f4
:100d700003003700808f550001003d00800578009a
:100d80000100e00003003200630064000100320053
:100d90008100e90008e8a300050032008b8f5000b5
:100da000020034008b805000010037008000eb000f
:100db000efd997000300fb000002eb00d4b79f00bf
:100dc000808f50000200340000805000d0b79f0098
:100dd0000828a30040003200610164000818a30045
:100de0000f0032003a0090000068a30006003200b5
:100df000b10220000200e000010032008180e80022
:100e0000090178000d003700b00220000200e00068
:100e1000010032000080e8008a0078000e003700f0
:100e20000200e000100032003a0090000068a300c9
:100e30000700320009017800010220000a00780052
:100e400047fe07000000e00006003a0006003700f9
:100e50008a00780000022000ab010700e10f40008b
:100e6000010032008904e8005fb097000000e00054
:100e70005a003200bcb79f00cdb79f0080067800b3
:100e80003a0090000068a3000700320009017800d2
:100e9000010320000a00780031fe07000000e00096
:100ea00006003a00060037008a00780000032000a0
:100eb00095010700e10f4000010032008904e800bd
:100ec0008d06e900eeff3a00ddb79f003fb69700c0
:100ed000cfb6970041003700dfb197000300e00074
:100ee0001a0032000838a30018003a00bcb79f006f
:100ef000cdb79f00830678003a0090000068a300f9
:100f00000700320009017800010220000a00780081
:100f100013fe07000000e00006003a00060037005c
:100f20008a0078000002200077010700e10f4000ee
:100f3000010032008904e8008d06e900eeff3a0066
:100f4000ddb79f003fb69700cfb697006101640000
:100f50000818a3000f0032003a0090000068a300b8
:100f600006003200b10220000200e0000100320061
:100f70008180e800090178000d003700b0022000f0
:100f80000200e000010032000080e8008a007800e2
:100f90000e0037000200e000100032003a0090001e
:100fa0000068a30007003200090178000102200058
:100fb0000a007800eafd07000000e00006003a00a1
:100fc000060037008a007800000220004e0107006a
:100fd000e10f4000010032008904e8000b03e90042
:100fe0006330b90000017800b2b79f004233dd00e2
:100ff000608f2500000343008e01780093b79f00a7
:1010000008077800060478005c0037008b05e900cb
:10101000000420006fb29700800f520038003200a9
:1010200003003c000400e000080032003e003700ee
:1010300000082000efb09700808f500020003200a1
:10104000000c2000808f500037003a000e48a300ab
:10105000100032001802be000401be000c00be00e9
:10106000f4b79f0085bf9f0097fd0700e0df9f005a
:101070000000fb00cf80de007fb297008fba9700a0
:101080000401be00700207000006560081865e0063
:101090000700370018017800110009000286d80007
:1010a000a2002000110009000280d800e1df9f00ab
:1010b0006fd997000243b000e2df9f001a003700ab
:1010c000d08d25000e58a30001003200c08c2500f1
:1010d000618f2500810054000c01be008100e900f1
:1010e000030033008301d1000281d300fbff3700ee
:1010f000ef006100e0c07800e1df9f000a003700e8
:101100000c00be00bfb197008301e900030033006b
:101110008100d1000080d300fbff370067406000f2
:101120000043b000e0df9f00ba0090006fda970044
:101130000400fb000168a3000700320009017800e9
:10114000800078000a00780085fd07000000e000bc
:1011500005003a00050037008a007800ea00070021
:10116000e10f4000010032008904e8003fb0970021
:1011700063005000b0b79f00640454000b00e0000f
:10118000a2ff3a000e0478001fb797000838a300aa
:1011900016003200dfb097000100e00013003400b9
:1011a000010478003a0090000068a30007003200b4
:1011b00009017800010220000a00780068fd07009c
:1011c0000000e00006003a00060037008a007800c0
:1011d00000022000cc000700e10f400001003200b7
:1011e0008904e8000804e900eeff3a002fb19700f7
:1011f00012407800e0df9f000004e0006bfd3a0041
:10120000090078004f0778004f06be004f05be006a
:101210004f04be006f01b1000000060003487800d3
:10122000000278008100fb00a300200011000900eb
:101230008300d8008000fd008001780000c3b30067
:1012400000e241000104e0000300320080c04000e1
:1012500071fa9f000000060072fa9f00000006006d
:101260008001780063816100d016200010003a00f0
:1012700042062000110009008281d8000101780097
:10128000e01620000200e00009003a00c112200030
:101290008380400002192000110009008280d800dc
:1012a000d01620000100e00001003a000000e80034
:1012b00000000600889fbe001004be00c20320008c
:1012c000030020000800be00cd01070030d78a00cf
:1012d000c2032000030020000800be00b90107007f
:1012e0000004be00c203200003002000c401070068
:1012f00040d78a00c2032000030020000800be007f
:10130000b00107000004be0082012000030020009d
:10131000bb01070050d78a00820120000300200093
:101320000800be00a70107000004be00e401400061
:1013300072002000110009008201d800010178002c
:1013400092d78a006904200002003700000454008c
:101350008904e80009007800c1ff0700800f5400ed
:10136000faff3d0089d78a0062406000a8d78a0052
:101370008000eb0004003700020454008100e80004
:101380000080fb000000d100329a250062c1780085
:10139000024170000281fb00820f5400f6ff3d0005
:1013a00071d78a00c0ae25000808e800660050002a
:1013b0004f04be00000006000400fa0041fc2f00ac
:1013c00022d782000191b90030024100a082490079
:1013d000e4bf9f00f5bf9f0064805700b5ff070082
:1013e0000080fa0000000600889fbe008a9fbe00b1
:1013f00000047800680090006300b9008196250021
:101400002b9e2500e14d7800008040008b00e80015
:10141000d04878008b80e800104090008048780029
:1014200009c2b3000100e8000948780048009000b4
:101430006300b900e19725006481450061497800a7
:1014400000804000e5804500d0487800e6804500f7
:1014500010409000804878000100e80009487800ba
:10146000b80090008941780009417800630040008d
:101470006aff0700a8009000a3c3b30002c3b30033
:101480006d80450065ff070098009000a3c3b3007e
:1014900002c3b3007080450060ff07009800780029
:1014a0008941780002c3b300738045005bff0700e9
:1014b000d80090004a062000110009008a00d800d8
:1014c000f34040008041eb00094178007680450000
:1014d00052ff0700d8009000110009008a00d800d0
:1014e000a3c0b30002c3b300788045004bff0700e0
:1014f0000b0078004f05be004f04be000000060040
:10150000adff0700b8ff3700889fbe0001047800d8
:10151000b80090008084eb000118a3003a0032006c
:10152000180190000198a30002003a000200e000b8
:1015300035003a000190a000310498008004780042
:10154000f90fb2000200e00002003a00280090000b
:10155000000c7800ea8f540005003a000178a300df
:1015600003003a0088007800d0002000e6ff070062
:1015700018009000d8009000810f50000b0032003e
:101580000000e8001004980018007800094878006e
:10159000000ce80011c0b30040b0250001487800fd
:1015a000ea8f540018003a000500370088007800e0
:1015b00009407800c200070080047800120037005c
:1015c000380090000088a3000f003200180190003e
:1015d000a8009000480090000dfc070098009000c3
:1015e000810f500004003200380090000003b30067
:1015f000300498008084eb000000eb001004980099
:1016000028009000000c7800090078004f04be000c
:10161000000006008001780002003700b159780010
:101620000201e9000200e000fcff3a0000000600b1
:101630008001780002003700815978000201e9003a
:101640000200e000fcff3a00000006008001780084
:1016500002192000110009008281d8008000fd00dd
:1016600000017800110020000200e0000a003200b2
:10167000638161008000eb0007003a004206200011
:10168000110009008281d80001f0a7008100ea0062
:101690008100ea00cf08de000100780000000600ab
:1016a00011bf20000180b90012442f00000041004a
:1016b00042062000110009000280d8000000060048
:1016c000881f7800000478004242de0003192000e1
:1016d000110009000384d800000178008001eb00ac
:1016e00002014200e0814900d61620000643b800fe
:1016f0000202430083824b004206200011000900d1
:101700000284d8008000fd0001005200e0805a00f1
:101710004f04780000000600889fbe008a9fbe002c
:101720000004be00020578000900e800dcff0700a5
:101730000a0540008005eb00e18f54000a003600e6
:1017400008007800c1ff07002200200003002000ed
:101750000000e00002003200120020000300200020
:101760000205550083855d000800e900d4ff0700ed
:101770000000450081804d004f05be004f04be00b3
:1017800000000600889fbe008a9fbe008c9fbe009e
:1017900000047800d8049000a3fb2f008981410049
:1017a0000080eb008080eb00e2102000828f51006f
:1017b00032003e00c07620000080440038019000d6
:1017c000c8009000d4ff07000006be0012002000f1
:1017d0008000eb00207b2000cfff070000055600b3
:1017e00081855e0072002000030020000a00be0018
:1017f0008300070064004000e08048007200200081
:10180000030020007e00070060049800b0762000ee
:1018100000804400aaff07000c06e90000065600fd
:101820007c04980082012000030020000a00be0012
:101830008500070028019000cf91de0000004100e4
:1018400081804900c2032000030020007e000700c1
:1018500018019000cf91de00000041008180490016
:10186000c203200003002000770007001801780061
:10187000cf91de0000004100818049004f06be008c
:101880004f05be004f04be0000000600b0417800c6
:1018900031c1510002003a000304e000fbff3a00ae
:1018a0000200fb0000000600800078003104e00028
:1018b000feff3a000080ea000080400000000600c1
:1018c0000200fa00889fbe00a0ff9f00010478007c
:1018d000380090000068a30033003a00e200600086
:1018e00005003a000003b30030049800110498008a
:1018f0000080eb002e003700d80490000900e000c3
:1019000006003a0012002000e680570048009000d0
:101910003ffb07001904980023003700a80090003f
:101920000100e00008003a0071b025002104980091
:10193000010c780021002000510498001104980047
:101940000030a0003004980018019000a80090001a
:10195000480090002efb0700280090008080eb00dc
:1019600011049800aff8970001487800000ce800d7
:101970002ff89700ea4f50000b003a003800900013
:101980000088a3000800320018019000a800900011
:10199000480090001efb07000000eb0010049800b8
:1019a000a8009000010c7800aff897000100fb0040
:1019b0004f04be000080fa000000060000c0da00fc
:1019c00000000600839f68000100e00002003d0067
:1019d00060001000e08018000300e00002003d00fd
:1019e00060011100e081190037fb07004f00e000a3
:1019f00002003b0060001000e080180000000600bc
:101a0000811f78000100e00002003d00600010002e
:101a1000e08018000300e00002003d0060011100ba
:101a2000e0811900050007004f00e00002003b00c4
:101a300060001000e08018000000060022fb070094
:101a40000400be0000000600020ab900001bb90035
:101a50000200b8008100420081004300000006003f
:020000040000fa
:101a60002020000020200000202000002020000076
:101a70002020000020200000202000002020000066
:101a80002020000020200000202000002020000056
:101a90002020000020200000202000002020000046
:101aa0002020000020200000202000002020000036
:101ab0002020000020200000202000002020000026
:101ac0000d0a00000d0a00000d0a00000d0a0000ba
:101ad0000d0a0000000000000000000020200000af
:101ae00020200000202000002020000020200000f6
:101af00020200000202000002020000020200000e6
:101b000020200000202000002020000020200000d5
:101b1000544900004d4500002043000048410000aa
:101b2000525400002020000020200000202000004f
:101b300020200000202000002020000020200000a5
:101b40002020000020200000202000002020000095
:101b50000d0a0000000000002020000020200000ee
:101b60002020000020200000202000002020000075
:101b70002020000020200000202000002020000065
:101b80002020000020200000202000002d2d00003b
:101b90002d2d00002d2d00002d2d00002d2d0000dd
:101ba0002020000020200000202000002020000035
:101bb0002020000020200000202000002020000025
:101bc0002020000020200000202000000d0a00003e
:101bd0000000000020200000202000002020000045
:101be0002020000020200000444900004749000058
:101bf000544100004c200000415800004c450000ba
:101c0000204300004f5500004e5400004552000094
:101c10002053000053440000414300002d470000c2
:101c20003336000020200000202000002053000058
:101c30006c2e00004e6f00003a20000020200000b3
:101c400020200000202000000d0a000000000000fd
:101c50002020000020200000202000002020000084
:101c60002020000020200000202000002020000074
:101c70002020000020200000202000002020000064
:101c80002020000020200000202000002020000054
:101c90002020000020200000202000002020000044
:101ca0002020000020200000202000002020000034
:101cb0002020000020200000202000002020000024
:101cc000202000000d0a000000000000202000007d
:101cd000202000002020000020200000203d0000e7
:101ce0003d3d00003d3d00003d3d00003d3d00000c
:101cf0003d3d00003d3d00003d3d00003d3d0000fc
:101d00003d3d00003d3d00003d3d00003d3d0000eb
:101d10003d3d00003d3d00003d3d00003d3d0000db
:101d20003d3d00003d3d00003d3d00003d3d0000cb
:101d30003d3d00003d3d00003d3d00003d3d0000bb
:101d40000d0a0000000000002020000020200000fc
:101d50002020000020200000207c00002020000027
:101d60002020000020200000202000002020000073
:101d70002020000020200000202000002020000063
:101d80002020000020200000207c000020200000f7
:101d90002020000020200000202000002020000043
:101da0002020000020200000202000002020000033
:101db0002020000020200000207c00000d0a0000f0
:101dc0000000000020200000202000002020000053
:101dd00020200000207c0000205400005241000020
:101de000494e0000204500004e54000052590000aa
:101df00020540000494d0000452000002020000034
:101e000020200000207c00002054000052410000ef
:101e1000494e0000204500005849000054200000b1
:101e2000544900004d450000202000002020000003
:101e300020200000207c00000d0a000000000000af
:101e40002020000020200000202000002020000092
:101e5000207c000020200000202000002020000026
:101e60002020000020200000202000002020000072
:101e70002020000020200000202000002020000062
:101e8000207c0000202000002020000020200000f6
:101e90002020000020200000202000002020000042
:101ea0002020000020200000202000002020000032
:101eb000207c00000d0a000000000000202000002f
:101ec000202000002020000020200000207c0000b6
:101ed0002020000020200000202000002020000002
:101ee00020200000202000002020000020200000f2
:101ef000202000002020000020200000207c000086
:101f000020200000202000002020000020200000d1
:101f100020200000202000002020000020200000c1
:101f2000202000002020000020200000207c000055
:101f30000d0a00000000000020200000202000000a
:101f40002020000020200000207c00002020000035
:101f50002020000020200000202000002020000081
:101f60002020000020200000202000002020000071
:101f70002020000020200000207c00002020000005
:101f80002020000020200000202000002020000051
:101f90002020000020200000202000002020000041
:101fa0002020000020200000207c00000d0a0000fe
:101fb0000000000020200000202000002020000061
:101fc00020200000207c00003d3d00003d3d000041
:101fd0003d3d00003d3d00003d3d00003d3d000019
:101fe0003d3d00003d3d00003d3d00003d3d000009
:101ff0003d3d00003d2b00003d3d00003d3d00000b
:102000003d3d00003d3d00003d3d00003d3d0000e8
:102010003d3d00003d3d00003d3d00003d3d0000d8
:102020003d3d00003d7c00000d0a00000000000066
:1020300020200000202000002020000020200000a0
:10204000207c000020200000202000002020000034
:102050002020000020200000202000002020000080
:102060002020000020200000202000002020000070
:10207000207c000020200000202000002020000004
:102080002020000020200000202000002020000050
:102090002020000020200000202000002020000040
:1020a000207c00000d0a000000000000202000003d
:1020b000202000002020000020200000207c0000c4
:1020c000204f0000434300005550000041540000e1
:1020d000494f00004e2000004455000052410000ce
:1020e000544900004f4e000020200000207c0000da
:1020f000204c00004f410000444900004e470000c2
:10210000204400005552000041540000494f000097
:102110004e2000002020000020200000207c000035
:102120000d0a000000000000202000002020000018
:102130002020000020200000207c00002020000043
:102140002020000020200000286900006e200000f0
:10215000486f000075720000732900002020000005
:102160002020000020200000207c00002020000013
:102170002020000020280000696e00002048000098
:102180006f750000727300002920000020200000fd
:102190002020000020200000207c00000d0a00000c
:1021a000000000002020000020200000202000006f
:1021b00020200000207c00002020000020200000c3
:1021c000202000002020000020200000202000000f
:1021d00020200000202000002020000020200000ff
:1021e00020200000207c0000202000002020000093
:1021f00020200000202000002020000020200000df
:1022000020200000202000002020000020200000ce
:1022100020200000207c00000d0a000000000000cb
:1022200020200000202000002020000020200000ae
:10223000207c000020200000202000002020000042
:10224000202000002020000028680000683a0000dc
:102250006d6d00003a73000073290000202000001b
:10226000207c000020200000202000002020000012
:10227000202000002020000028680000683a0000ac
:102280006d6d00003a7300007329000020200000eb
:10229000207c00000d0a000000000000202000004b
:1022a000202000002020000020200000207c0000d2
:1022b000202000002020000020200000202000001e
:1022c000202000002020000020200000202000000e
:1022d000202000002020000020200000207c0000a2
:1022e00020200000202000002020000020200000ee
:1022f00020200000202000002020000020200000de
:10230000202000002020000020200000207c000071
:102310000d0a000000000000202000002020000026
:102320002020000020200000207c00003d3d000017
:102330003d3d00003d3d00003d3d00003d3d0000b5
:102340003d3d00003d3d00003d3d00003d3d0000a5
:102350003d3d00003d3d00003d2b00003d3d0000a7
:102360003d3d00003d3d00003d3d00003d3d000085
:102370003d3d00003d3d00003d3d00003d3d000075
:102380003d3d00003d3d00003d7c00000d0a000089
:10239000000000002020000020200000202000007d
:1023a00020200000207c00002020000020200000d1
:1023b000202000002020000020200000202000001d
:1023c000202000002020000020200000202000000d
:1023d00020200000207c00002020000020200000a1
:1023e00020200000202000002020000020200000ed
:1023f00020200000202000002020000020200000dd
:1024000020200000207c00000d0a000000000000d9
:1024100020200000202000002020000020200000bc
:10242000207c0000204500004e540000525900005e
:1024300020410000584c000045200000434f0000a0
:10244000554e0000545300002020000020200000c2
:10245000207c000020200000202000002020000020
:10246000202000002020000020200000202000006c
:10247000202000002020000020200000202000005c
:10248000207c00000d0a0000000000002020000059
:10249000202000002020000020200000207c0000e0
:1024a000202000002020000020200000202000002c
:1024b000202000002020000020200000202000001c
:1024c000202000002020000020200000207c0000b0
:1024d00020200000202000002020000020200000fc
:1024e00020200000202000002020000020200000ec
:1024f000202000002020000020200000207c000080
:102500000d0a000000000000202000002020000034
:102510002020000020200000207c0000202000005f
:1025200020200000202000002020000020200000ab
:10253000202000002020000020200000202000009b
:102540002020000020200000207c0000202000002f
:10255000202000002020000020200000202000007b
:10256000202000002020000020200000202000006b
:102570002020000020200000207c00000d0a000028
:10258000000000002020000020200000202000008b
:1025900020200000203d00003d3d00003d3d0000aa
:1025a0003d3d00003d3d00003d3d00003d3d000043
:1025b0003d3d00003d3d00003d3d00003d3d000033
:1025c0003d3d00003d2b00003d3d00003d3d000035
:1025d0003d3d00003d3d00003d3d00003d3d000013
:1025e0003d3d00003d3d00003d3d00003d3d000003
:1025f0003d3d00003d3d00000d0a000000000000d0
:102600000000000000000000963000000777000086
:102610002c6100000eee0000ba5100000999000084
:1026200019c400006d0700008ff400006a700000fc
:1026300035a5000063e90000a3950000649e00003a
:1026400032880000db0e0000a4b80000dc79000036
:102650001ee90000d5e0000088d90000d2970000f4
:102660002b4c0000b6090000bd7c0000b17e0000cc
:10267000072d0000b8e70000911d0000bf9000008a
:1026800064100000b71d0000f2200000b06a0000d6
:1026900048710000b9f30000de410000be84000074
:1026a0007dd40000da1a0000ebe40000dd6d0000cc
:1026b00051b50000d4f40000c7850000d3830000aa
:1026c000569800006c130000c0a800006b64000066
:1026d0007af9000062fd0000ecc90000658a000084
:1026e0004f5c000001140000d96c0000066300007c
:1026f000633d00000ffa0000f50d0000088d00009a
:10270000c82000006e3b00005e100000694c000015
:10271000e441000060d500007271000067a2000073
:10272000d1e40000033c000047d40000044b00004b
:10273000fd8500000dd200006bb500000aa5000069
:10274000faa80000b53500006c980000b242000005
:10275000d6c90000bbdb000040f90000bcac0000a3
:10276000e36c0000d8320000755c0000df4500001b
:10277000cf0d0000d6dc0000593d0000d1ab0000b9
:10278000ac300000d92600003a000000de51000005
:1027900080510000d7c8000016610000d0bf0000c3
:1027a000b5f40000b421000023c40000b3560000bb
:1027b00099950000bacf00000fa50000bdb8000039
:1027c0009eb800000228000008880000055f000095
:1027d000b2d900000cc6000024e900000bb10000d3
:1027e000877c00006f2f0000114c0000685800002b
:1027f000ab1d000061c100003d2d000066b6000069
:1028000090410000dc76000006710000db01000052
:10281000bc200000d29800002a100000d5ef000074
:1028200089850000b17100001fb50000b6060000e8
:10283000a5e40000bf9f000033d40000b8e800000a
:10284000a2c900000778000034f90000000f000062
:102850008ea8000009960000189800000ee1000004
:10286000bb0d00006a7f00002d3d00006d080000d8
:10287000976c000064910000015c000063e60000ba
:10288000f45100006b6b0000626100006c1c0000e2
:10289000d8300000658500004e00000062f20000a4
:1028a000ed950000066c00007ba50000011b0000f8
:1028b000c1f400000882000057c400000ff50000ba
:1028c000c6d90000b065000050e90000b712000052
:1028d000eab80000be8b00007c880000b9fc000054
:1028e000df1d0000dd620000492d0000da15000048
:1028f000f37c0000d38c0000654c0000d4fb00008a
:1029000058610000b24d0000ce510000b53a000001
:1029100074000000bca30000e2300000bbd4000043
:1029200041a50000df4a0000d7950000d83d000017
:102930006dc40000d1a40000fbf40000d6d3000059
:102940006ae9000069430000fcd900006e34000011
:102950004688000067ad0000d0b8000060da0000d3
:10296000732d000004440000e51d00000333000047
:102970005f4c00000aaa0000c97c00000ddd0000c9
:102980003c71000005500000aa4100000227000031
:10299000101000000bbe0000862000000cc90000d3
:1029a00025b5000068570000b38500006f200000c7
:1029b00009d4000066b900009fe4000061ce000069
:1029c0000ef90000de5e000098c90000d929000061
:1029d00022980000d0b00000b4a80000d7c70000c3
:1029e000173d0000b3590000810d0000b42e000017
:1029f0003b5c0000bdb70000ad6c0000bac0000039
:102a000020830000b8ed0000b6b30000bf9a0000bc
:102a10000ce20000b60300009ad20000b17400007e
:102a200039470000d5ea0000af770000d29d0000d2
:102a300015260000db04000083160000dc73000094
:102a4000120b000063e30000843b0000649400006c
:102a50003e6a00006d0d0000a85a00006a7a00006e
:102a60000bcf00000ee400009dff00000993000062
:102a700027ae0000000a0000b19e0000077d0000a4
:102a8000449300000ff00000d2a30000088700006c
:102a900068f20000011e0000fec20000066900008e
:102aa0005d57000062f70000cb6700006580000002
:102ab000713600006c190000e70600006b6e000024
:102ac000761b0000d4fe0000e02b0000d38900003c
:102ad0005a7a0000da100000cc4a0000dd670000de
:102ae0006fdf0000b9f90000f9ef0000be8e0000b2
:102af00043be0000b7170000d58e0000b060000094
:102b0000e8a30000d6d600007e930000d1a100000b
:102b1000c4c20000d838000052f20000df4f0000ad
:102b2000f1670000bbd1000067570000bca60000a1
:102b3000dd060000b53f00004b360000b248000043
:102b4000da2b00000dd800004c1b00000aaf00007b
:102b5000f64a000003360000607a000004410000dd
:102b6000c3ef000060df000055df000067a8000031
:102b7000ef8e00006e31000079be00006946000053
:102b80008cb3000061cb00001a83000066bc00001b
:102b9000a0d200006f25000036e20000685200005d
:102ba000957700000ccc0000034700000bbb000031
:102bb000b9160000022200002f2600000555000073
:102bc000be3b0000bac50000280b0000bdb20000eb
:102bd000925a0000b42b0000046a0000b35c0000ad
:102be000a7ff0000d7c2000031cf0000d0b5000021
:102bf0008b9e0000d92c00001dae0000de5b0000a3
:102c0000b0c20000649b000026f2000063ec0000ec
:102c10009ca300006a7500000a9300006d0200008a
:102c2000a9060000099c00003f3600000eeb0000e2
:102c300085670000077200001357000000050000c0
:102c4000824a0000bf950000147a0000b8e200003c
:102c5000ae2b0000b17b0000381b0000b60c00005a
:102c60009b8e0000d29200000dbe0000d5e5000052
:102c7000b7ef0000dc7c000021df0000db0b000070
:102c8000d4d20000d386000042e20000d4f100005c
:102c9000f8b30000dd6800006e830000da1f00005a
:102ca000cd160000be8100005b260000b9f60000d2
:102cb000e1770000b06f000077470000b718000010
:102cc000e65a000008880000706a00000fff00004c
:102cd000ca3b0000066600005c0b0000011100000a
:102ce000ff9e0000658f000069ae000062f80000e2
:102cf000d3ff00006b61000045cf00006c160000a0
:102d000078e200000aa00000eed200000dd700001b
:102d100054830000044e0000c2b3000003390000d9
:102d20006126000067a70000f716000060d00000d1
:102d30004d47000069490000db7700006e3e00004f
:102d40004a6a0000d1ae0000dc5a0000d6d900006b
:102d5000660b0000df400000f03b0000d8370000a9
:102d600053ae0000bca90000c59e0000bbde000001
:102d70007fcf0000b2470000e9ff0000b53000003f
:102d80001cf20000bdbd00008ac20000baca0000eb
:102d900030930000b3530000a6a30000b424000049
:102da00005360000d0ba000093060000d7cd000021
:102db00029570000de540000bf670000d92300003f
:102dc0002e7a000066b30000b84a000061c400001b
:102dd000021b0000685d0000942b00006f2a0000b9
:102de00037be00000bb40000a18e00000cc3000031
:102df0001bdf0000055a00008def0000022d0000cf
:102e000000c100008140000001c0000080410000be
:102e100001c000008041000000c1000081400000ae
:102e200001c000008041000000c10000814000009e
:102e300000c100008140000001c00000804100008e
:102e400001c000008041000000c10000814000007e
:102e500000c100008140000001c00000804100006e
:102e600000c100008140000001c00000804100005e
:102e700001c000008041000000c10000814000004e
:102e800001c000008041000000c10000814000003e
:102e900000c100008140000001c00000804100002e
:102ea00000c100008140000001c00000804100001e
:102eb00001c000008041000000c10000814000000e
:102ec00000c100008140000001c0000080410000fe
:102ed00001c000008041000000c1000081400000ee
:102ee00001c000008041000000c1000081400000de
:102ef00000c100008140000001c0000080410000ce
:102f000001c000008041000000c1000081400000bd
:102f100000c100008140000001c0000080410000ad
:102f200000c100008140000001c00000804100009d
:102f300001c000008041000000c10000814000008d
:102f400000c100008140000001c00000804100007d
:102f500001c000008041000000c10000814000006d
:102f600001c000008041000000c10000814000005d
:102f700000c100008140000001c00000804100004d
:102f800000c100008140000001c00000804100003d
:102f900001c000008041000000c10000814000002d
:102fa00001c000008041000000c10000814000001d
:102fb00000c100008140000001c00000804100000d
:102fc00001c000008041000000c1000081400000fd
:102fd00000c100008140000001c0000080410000ed
:102fe00000c100008140000001c0000080410000dd
:102ff00001c000008041000000c1000081400000cd
:1030000000c00000c1010000c303000002c20000b4
:10301000c606000007c7000005c50000c404000084
:10302000cc0c00000dcd00000fcf0000ce0e000034
:103030000aca0000cb0b0000c909000008c8000044
:10304000d818000019d900001bdb0000da1a0000b4
:103050001ede0000df1f0000dd1d00001cdc000084
:1030600014d40000d5150000d717000016d60000b4
:10307000d212000013d3000011d10000d0100000c4
:10308000f030000031f1000033f30000f2320000b4
:1030900036f60000f7370000f535000034f4000084
:1030a0003cfc0000fd3d0000ff3f00003efe000034
:1030b000fa3a00003bfb000039f90000f838000044
:1030c00028e80000e9290000eb2b00002aea0000b4
:1030d000ee2e00002fef00002ded0000ec2c000084
:1030e000e424000025e5000027e70000e6260000b4
:1030f00022e20000e3230000e121000020e00000c4
:10310000a060000061a1000063a30000a2620000b3
:1031100066a60000a7670000a565000064a4000083
:103120006cac0000ad6d0000af6f00006eae000033
:10313000aa6a00006bab000069a90000a868000043
:1031400078b80000b9790000bb7b00007aba0000b3
:10315000be7e00007fbf00007dbd0000bc7c000083
:10316000b474000075b5000077b70000b6760000b3
:1031700072b20000b3730000b171000070b00000c3
:1031800050900000915100009353000052920000b3
:103190009656000057970000559500009454000083
:1031a0009c5c00005d9d00005f9f00009e5e000033
:1031b0005a9a00009b5b0000995900005898000043
:1031c00088480000498900004b8b00008a4a0000b3
:1031d0004e8e00008f4f00008d4d00004c8c000083
:1031e00044840000854500008747000046860000b3
:1031f00082420000438300004181000080400000c3
:10320000303000000030000031000000303200009b
:1032100000300000330000003034000000300000b7
:10322000350000003036000000300000370000009c
:10323000303800000030000039000000313000005c
:103240000031000031000000313200000031000088
:103250003300000031340000003100003500000070
:103260003136000000310000370000003138000026
:103270000031000039000000323000000032000050
:103280003100000032320000003200003300000044
:1032900032340000003200003500000032360000f9
:1032a0000032000037000000323800000032000019
:1032b000390000003330000000330000310000000e
:1032c00033320000003300003300000033340000cc
:1032d00000330000350000003336000000330000ea
:1032e00037000000333800000033000039000000d0
:1032f000343000000034000031000000343200009f
:1033000000340000330000003434000000340000ba
:1033100035000000343600000034000037000000a3
:10332000343800000034000039000000353000005f
:10333000003500003100000035320000003500008b
:103340003300000035340000003500003500000077
:103350003536000000350000370000003538000029
:103360000035000039000000303000002f30000030
:10337000302f0000303000003030000020300000de
:10338000303a0000303000003a30000030000000d9
:10339000120100000002000002000000000800000e
:1033a000d80400000a000000000100000102000033
:1033b00000010000090200004300000002010000bb
:1033c00000c00000320900000400000000010000fd
:1033d00002020000010000000524000000100000af
:1033e0000104000024020000020500002406000081
:1033f000000100000524000001000000010700009a
:10340000058100000308000000020000090400001c
:1034100001000000020a0000000000000007000098
:103420000502000002400000000000000705000047
:1034300082020000400000000000000004030000c1
:1034400009040000340300004d0000006900000082
:1034500063000000720000006f00000063000000c5
:1034600068000000690000007000000020000000fb
:1034700054000000650000006300000068000000c8
:103480006e0000006f0000006c0000006f00000084
:1034900067000000790000002000000049000000e3
:1034a0006e000000630000002e00000034030000e6
:1034b0004300000044000000430000002000000022
:1034c00052000000530000002d00000032000000f8
:1034d0003300000032000000200000004500000022
:1034e0006d000000750000006c000000610000002d
:1034f00074000000690000006f0000006e00000012
:103500002000000044000000650000006d00000085
:103510006f00000003000000050000005c000000d8
:103520000900000002000000ff000000ff00000092
:10353000070000000c0000000e000000100000005a
:103540001200000014000000160000001800000027
:103550001a0000001c0000001e00000020000000f7
:1035600022000000240000002600000028000000c7
:103570002a0000002c0000002e0000003000000097
:103580003200000034000000360000003800000067
:103590003a0000003e000000400000004200000031
:1035a0003c0000004600000044000000480000000d
:1035b0005f0000004a0000004c0000004e000000c8
:1035c00050000000520000005400000056000000af
:1035d000580000000400000006000000ff0000008a
:1035e0000a000000ff000000ff000000ff000000d4
:1035f000ff0000000b0000000d0000000f000000a5
:10360000110000001300000015000000170000006a
:10361000190000001b0000001d0000001f0000003a
:10362000210000002300000025000000270000000a
:10363000290000002b0000002d0000002f000000da
:1036400031000000330000003500000037000000aa
:10365000390000003d0000003f0000004100000074
:103660003b00000045000000430000004700000050
:103670005e000000490000004b0000004d0000000b
:103680004f000000510000005300000055000000f2
:10369000570000002573000025730000002500007e
:1036a00073250000732500007300000025730000df
:1036b0002225000073220000257300000053000043
:1036c0005344000041430000205300007973000080
:1036d000746500006d200000697300002074000014
:1036e000757200006e650000642000006f6e0000bf
:1036f0002025000063000000257300002025000045
:10370000630000004e7500006d62000065720000ed
:103710002041000064640000656400002073000024
:103720007563000063650000737300006675000038
:103730006c6c0000792e000025630000004300003f
:103740004d4700004c0000002564000020250000cb
:10375000730000002564000020250000730a0000ab
:10376000000000000102000004080000102000001a
:103770004080000025300000347800002530000033
:103780003478000000200000444100004320000085
:10379000534d000020430000505500002000000061
:1037a0000000000001010000010200000201000011
:1037b00002020000030300000404000005050000ed
:1037c00006060000060200000206000006010000d6
:1037d00001060000001f00001c1f00001e1f00004b
:1037e0001e1f00001f1e00001f1e00001f00000003
:1037f00000060000010b00000204000003040000aa
:10380000040400000505000006040000a1a000005b
:0c381000a9a80000a5a40000adac0000b9
:020000040000fa
:10381c000000fa0090b181000080fa000000060060
:10382c000000fa0040632300104078000080fa008a
:10383c00000006000000fa00406323008040eb000b
:10384c00014878000080fa00000006000200fa002f
:10385c000040eb00004f7800b0148100e60f5000e0
:10386c0002003e001e40780050003700514180009d
:10387c0000002200008060000000e00005003a001b
:10388c005141800000002400008060000000e00036
:10389c0002003a001e4078004400370010c0b3000c
:1038ac00004f78002b68a8002b88a9002ba8a80033
:1038bc002bc8a9000000eb00e0148900c000200018
:1038cc00d01489000000eb00201589000000eb00eb
:1038dc00301589000000eb0080b189000000eb007e
:1038ec0090b18900406323008040eb0001487800d0
:1038fc0060632300c1c8b3000148780070632300e3
:10390c0080c0eb00014878008063230080c0eb008e
:10391c00014878009063230080c0eb0001487800d8
:10392c00a063230080c0eb0001487800b063230043
:10393c0080c0eb0001487800c0632300c1c8b3000d
:10394c0001487800d063230080c0eb000148780068
:10395c00e063230080c0eb0001487800f063230093
:10396c0080c0eb00014878000064230080c0eb00ad
:10397c00014878001064230080c0eb0001487800f7
:10398c00b1b18100c2b18100d3b1810010c0b300cc
:10399c00f14b0700e1b18100f2b1810003b281006b
:1039ac0020c0b300ec4b07001e4078000080fa00ea
:1039bc00000006000000fa000000eb00b0148900c3
:1039cc00802922008040eb00014878001000200084
:1039dc0001002000f0148900011589000000eb00a3
:1039ec00201589000000eb00301589000000eb0069
:1039fc0080b189000000eb0090b189004063230086
:103a0c008040eb00014878000080fa0000000600be
:103a1c000000fa0070002000b014890080292200f8
:103a2c008040eb00014878002b68a9002b88a80087
:103a3c002ba8a9002bc8a8000080fa0000000600e3
:103a4c001200fa00b01481008000eb00d2002000bc
:103a5c0003002000820f5000838f580033023e0079
:103a6c00006001000d003700450037007d00370075
:103a7c00af003700ee003700310137002d02370060
:103a8c0032013700400137004b0137005701370036
:103a9c00d5013700e1013700f40137009a410700e6
:103aac008ee8b70081d1820050a52a00808f50008b
:103abc000400320081d18200a05a2500808f500072
:103acc001c003a0090d1820080b18900a0d1820004
:103adc0090b1890090b181008000eb00f014890056
:103aec0001158900f0148100011581000000780097
:103afc000000e900d73f07008ee8b7000040eb005c
:103b0c00004f7800070037001e80fb009e80fb00f2
:103b1c0062a32500e2c07800000047002140980015
:103b2c001e4fe8001e407800ef4f5000f6ff3600a5
:103b3c00100037000000eb0080b189000000eb00a2
:103b4c0090b1890090b181008000eb00f0148900e5
:103b5c00011589000000eb0090d18a000000eb00f9
:103b6c00a0d18a0050a52a0080d18a002a410700e2
:103b7c008ee8b70050002000b0148900fe01370019
:103b8c000040eb00004f7800050037001e80fb0062
:103b9c0061a325000041eb00827078001e4fe80005
:103bac001e407800ef4f5000f8ff3600f0148100f3
:103bbc000115810000007800a63f07008ee8b700d1
:103bcc000040eb00004f7800070037001e80fb0020
:103bdc009e80fb0062a32500e2c078000000470035
:103bec00214098001e4fe8001e407800ef4f500017
:103bfc00f6ff3600f01481000115810000007800fa
:103c0c0090b18900f0148100011581006100400021
:103c1c00e0804800f014890001158900ae40900046
:103c2c00a0cab30080cf500007003a00f214810004
:103c3c0003158100f0ff230001002000800f5100cc
:103c4c00818f5900bd01340020002000b014890080
:103c5c00f0ff230001002000f014890001158900f9
:103c6c00c50137000040eb00004f7800050037001d
:103c7c001e80fb0061a325000041eb0082707800e0
:103c8c001e4fe8001e407800ef4f5000f8ff360042
:103c9c00f014810001158100000078006d3f0700d1
:103cac008ee8b7000040eb00004f780007003700ab
:103cbc001e80fb009e80fb0062a32500e2c0780002
:103ccc0000004700214098001e4fe8001e4078007d
:103cdc00ef4f5000f6ff3600f01481000115810003
:103cec000000780080b18900f0148100011581007a
:103cfc0061005000e0805800f01489000115890023
:103d0c00ae409000a0cab30080cf500005003a002e
:103d1c00f014810001158100e00f5000e08f580075
:103d2c0088013d0050002000b0148900920137003a
:103d3c000040eb00004f7800050037001e80fb00b0
:103d4c0061a325000041eb00827078001e4fe80053
:103d5c001e407800ef4f5000f8ff3600f014810041
:103d6c0001158100000078003a3f07008ee8b7008b
:103d7c000040eb00004f7800070037001e80fb006e
:103d8c009e80fb0062a32500e2c078000000470083
:103d9c00214098001e4fe8001e407800ef4f500065
:103dac00f6ff3600f0148100011581000000780048
:103dbc0090b18900f0148100011581006100500060
:103dcc00e0805800f014890001158900ae40900085
:103ddc00a0cab30080cf500007003a00400020007a
:103dec00b01489001000200001002000f01489009c
:103dfc000115890060013700f01481000115810064
:103e0c00e00f5000e08f580050013d0040002000b2
:103e1c00b01489001000200001002000f01489006b
:103e2c00011589000000eb0090b1890052013700a8
:103e3c000040eb00004f7800050037001e80fb00af
:103e4c0061a325000041eb00827078001e4fe80052
:103e5c001e407800ef4f5000f8ff3600f014810040
:103e6c000115810000007800fa3e07008ee8b700cb
:103e7c000040eb00004f7800070037001e80fb006d
:103e8c009e80fb0062a32500e2c078000000470082
:103e9c00214098001e4fe8001e407800ef4f500064
:103eac00f6ff3600f0148100011581000000780047
:103ebc0080b18900f014810001158100610040007f
:103ecc00e0804800f014890001158900ae40900094
:103edc00a0cab30080cf500008003a0090b1810016
:103eec008000e800f0ff23000080600090b18900a2
:103efc0050002000b01489001f013700f21481001b
:103f0c0003158100f0ff230001002000800f5100f9
:103f1c00818f59000f01340090b181008000e800be
:103f2c00f0ff23000080600090b189005000200059
:103f3c00b01489000000eb0080b189000e0137003d
:103f4c009a0a0700b2fe07000b013700d01481005b
:103f5c00ec0f500005003a0010002000e0d38a005e
:103f6c00d0148100b01489000301370021158100a1
:103f7c0030158100808f5000f80032008000200046
:103f8c00b0148900fc00370065080700e14f5000b1
:103f9c0006003a0090002000b0148900802922000d
:103fac00a1c0b30001487800f3003700a000200046
:103fbc00b0148900f0003700593f07000004e000fe
:103fcc000300320080002000b0148900ea003700a2
:103fdc0080292200104078000004e000e1003a0043
:103fec0080002000b0148900e3003700420907006c
:103ffc000004e00006003200b0002000b01489007c
:10400c0080292200a1c0b30001487800da003700f3
:10401c00202a220010407800e14f500069003a003d
:10402c0080b1810090d18a0090b18100a0d18a002a
:10403c0091d18200a0d18200808f5000030031000a
:10404c0050a52a0080d18a0002003700a05a250012
:10405c0080d18a000040eb00004f7800050037004b
:10406c001e80fb0061a325000041eb0082707800ec
:10407c001e4fe8001e407800ef4f5000f8ff36004e
:10408c0090d18200733e07008ee8b7000040eb0031
:10409c00004f7800070037001e80fb009e80fb005d
:1040ac0062a3250062c17800c125220082707800cd
:1040bc001e4fe8001e407800ef4f5000f6ff360010
:1040cc000040eb00004f7800050037001e80fb001d
:1040dc0061a325000041eb00827078001e4fe800c0
:1040ec001e407800ef4f5000f8ff3600a0d1820040
:1040fc00583e07008ee8b7000040eb00004f7800f8
:10410c00070037001e80fb009e80fb0062a3250089
:10411c0062c17800c1262200827078001e4fe80030
:10412c001e407800ef4f5000f6ff36000040eb00c9
:10413c00004f7800050037001e80fb0061a32500ae
:10414c000041eb00827078001e4fe8001e407800a2
:10415c00ef4f5000f8ff36000000eb003d3e07002b
:10416c008ee8b7000040eb00004f780007003700e6
:10417c001e80fb009e80fb0062a3250062c17800bc
:10418c00c1272200827078001e4fe8001e40780084
:10419c00ef4f5000f6ff36009f3f07008ee8b70048
:1041ac00202a22008040eb0001487800b00020005b
:1041bc00b014890080292200a1c0b3000148780006
:1041cc006d00370070002000b01489008029220097
:1041dc008040eb0001487800202a22008040eb0050
:1041ec000148780064003700cd3e07000004e00071
:1041fc0003003200a0002000b01489005e003700dc
:10420c0080292200104078000004e00057003a009a
:10421c00a0002000b01489005700370010c0b30074
:10422c0084e8b700e0148100443d07001047980073
:10423c001e409000e14f500006003a0020458000df
:10424c000000e00003003a00e01481000000e800e8
:10425c00e0148900d0002000b014890080292200cd
:10426c00a1c0b3000148780043003700ac3e070002
:10427c000004e00004003a0080292200104078007d
:10428c000004e0003b003a00e0148100e40f500011
:10429c0003003e00c0002000b01489003600370037
:1042ac002b68a9002b88a8002ba8a9002bc8a80054
:1042bc000000eb0080b189000000eb0090b1890098
:1042cc0090b181008000eb00f01489000115890089
:1042dc000000eb0090d18a000000eb00a0d18a0016
:1042ec000000eb0080d18a004b3f07008ee8b7003e
:1042fc00602d070060002000e0d38a001000200031
:10430c00f0d38a0070002000b014890080292200ac
:10431c008040eb000148780060002000d014890038
:10432c006007200022000700130037000000000087
:10433c0011003700000000000f00370000000000e3
:10434c000d003700000000000b00370000000000db
:10435c0009003700000000000700370000000000d3
:10436c0005003700000000000300370000000000cb
:10437c0001003700000000000080fa000000060079
:10438c000000fa0080292200104078000004e000b0
:10439c000500320080292200104078008040e9009e
:1043ac0080292200014878000080fa0000000600f5
:1043bc000200fa00000f7800301581008000e80040
:1043cc00401f200000017800110009008280d800f5
:1043dc008000fd0030158900301581006a00b9009d
:1043ec0080007800802a22000080400080c0eb0012
:1043fc0001487800301581009e007800014178005a
:10440c006a00b90080007800802a220000804000f9
:10441c0012409800301581006a00b90080007800c5
:10442c00a02a2200008040008000eb0001087800e8
:10443c00301581006a00b90080007800c02a220083
:10444c00008040008000eb000108780030158100ee
:10445c000000e8006a00b90080007800402a2200c1
:10446c00008040008000eb000108780030158100ce
:10447c006a00b90080007800002b22000080400008
:10448c008000eb00010878000080fa0000000600b4
:10449c000e00fa00204f9800610798000040eb00d6
:1044ac00004f78002e489000e14f5000030032007e
:1044bc002e489000e24f500068003a000000eb00dc
:1044cc00100798000000eb00200798000000eb009c
:1044dc00300798000000eb00400798002e48900031
:1044ec00e14f500029003a00908a2100904078005a
:1044fc0050c5b30080cf50001b003a00408621000d
:10450c001040780020479800508621001040780019
:10451c003047980060862100104078004047980092
:10452c00708621001040780050479800808621004a
:10453c001040780060479800908621001040780069
:10454c0070479800a086210010407800004f98001a
:10455c00b086210010407800104f9800d1832000c5
:10456c0091407800014f7800908a210090407800ab
:10457c00a0cab30080cf50002c003a00d183200099
:10458c0091407800014f78002800370090da210024
:10459c009040780050c5b30080cf50001b003a000b
:1045ac0040d62100104078002047980050d62100ba
:1045bc00104078003047980060d6210010407800f9
:1045cc004047980070d62100104078005047980062
:1045dc0080d62100104078006047980090d62100ca
:1045ec001040780070479800a0d621001040780049
:1045fc00004f9800b0d6210010407800104f980062
:10460c00e183200091407800014f780090da21007e
:10461c0090407800a0cab30080cf500003003a004d
:10462c00e183200091407800014f7800ce0190008a
:10463c003e019000ae0090001e00900083027800b6
:10464c00020278008101780000017800ee009000f1
:10465c001e407800e803070001003700000000004e
:10466c000080fa00000006000e00fa00204f9800af
:10467c00610798002e489000e14f50000300320073
:10468c002e489000e24f5000d8033a000000eb0097
:10469c00100798000000eb00200798000000eb00ca
:1046ac00300798000000eb00400798002e4890005f
:1046bc00e14f5000e1013a0060762500104078008f
:1046cc000080fb00cf80de00e20020000300200011
:1046dc00820f5000838f5800d3013e000060010010
:1046ec000e003700140037002c0037004400370050
:1046fc00850037008400370083003700bd00370089
:10470c00fe00370086013700850137003d01370078
:10471c003c0137003b0137003a013700108921007a
:10472c001040780020479800208921001040780024
:10473c0030479800bd0137001089210010407800e7
:10474c0020479800208921001040780030479800bd
:10475c0030892100104078004047980040892100a2
:10476c001040780050479800908921001040780044
:10477c0060479800a089210010407800704798008d
:10478c00b089210010407800004f9800c0892100aa
:10479c0010407800104f9800a40137009088210039
:1047ac001040780020479800a08821001040780025
:1047bc0030479800b088210010407800404798009e
:1047cc00c0882100104078005047980010882100c4
:1047dc001040780060479800208821001040780035
:1047ec00704798003088210010407800004f9800e6
:1047fc004088210010407800104f98008b01370042
:10480c00ee009000a0072000808f50000c003200ba
:10481c00ee00900080072000808f500008003200ce
:10482c00ee009000b0072000808f50000400320092
:10483c00ee00900090072000808f500019003a0085
:10484c0030882100104078002047980040882100d3
:10485c0010407800304798001088210010407800f4
:10486c00404798002088210010407800504798005d
:10487c0010892100104078006047980020892100a1
:10488c001040780070479800308921001040780063
:10489c00004f98004089210010407800104f98007c
:1048ac0062013700b0882100104078002047980042
:1048bc00c088210010407800304798009088210073
:1048cc001040780040479800a088210010407800e4
:1048dc00504798009089210010407800604798005c
:1048ec00a08921001040780070479800b089210001
:1048fc0010407800004f9800c089210010407800cb
:10490c00104f980049013700ee009000a0072000de
:10491c00808f50000c003200ee00900080072000c9
:10492c00808f500008003200ee009000b00720008d
:10493c00808f500004003200ee00900090072000a1
:10494c00808f500013003a0010882100104078002e
:10495c0020479800208821001040780030479800ac
:10496c003088210010407800404798004088210092
:10497c001040780050479800508821001040780073
:10498c0060479800608821001040780070479800bc
:10499c0012003700708821001040780020479800e2
:1049ac0080882100104078003047980090882100c2
:1049bc001040780040479800a088210010407800f3
:1049cc0050479800b088210010407800604798004c
:1049dc00c088210010407800704798006e0090004d
:1049ec00004078000080fb006800400060079800e1
:1049fc000e013700ee009000a0072000808f5000c1
:104a0c000c003200ee00900080072000808f5000d8
:104a1c0008003200ee009000b0072000808f50009c
:104a2c0004003200ee00900090072000808f5000b0
:104a3c0019003a0010882100104078002047980097
:104a4c0020882100104078003047980030892100e0
:104a5c0010407800404798004089210010407800b1
:104a6c00504798001089210010407800604798004a
:104a7c00208921001040780070479800b0882100f0
:104a8c0010407800004f9800c0882100104078003a
:104a9c00104f9800e50037009088210010407800f6
:104aac0020479800a08821001040780030479800db
:104abc00b08921001040780040479800c08921003f
:104acc0010407800504798009089210010407800e1
:104adc0060479800a089210010407800704798002a
:104aec003088210010407800004f98004088210049
:104afc0010407800104f9800cc003700ee0090006a
:104b0c00a0072000808f50000c003200ee009000b7
:104b1c0080072000808f500008003200ee009000cb
:104b2c00b0072000808f500004003200ee0090008f
:104b3c0090072000808f500019003a00b0892100a6
:104b4c001040780020479800c08921001040780060
:104b5c003047980010892100104078004047980099
:104b6c00208921001040780050479800308821009f
:104b7c001040780060479800408821001040780071
:104b8c00704798001088210010407800004f980062
:104b9c002088210010407800104f9800a3003700a7
:104bac00308921001040780020479800408921006e
:104bbc001040780030479800908921001040780010
:104bcc0040479800a0892100104078005047980079
:104bdc00b08821001040780060479800c088210000
:104bec0010407800704798009088210010407800a1
:104bfc00004f9800a088210010407800104f9800ba
:104c0c008a003700ee009000a0072000808f500033
:104c1c000c003200ee00900080072000808f5000c6
:104c2c0008003200ee009000b0072000808f50008a
:104c3c0004003200ee00900090072000808f50009e
:104c4c0019003a0010882100104078002047980085
:104c5c0020882100104078003047980030882100cf
:104c6c0010407800404798004088210010407800a0
:104c7c0050479800508821001040780060479800f9
:104c8c0060882100104078007047980070882100df
:104c9c0010407800004f9800808821001040780068
:104cac00104f9800180037009088210010407800b1
:104cbc0020479800a08821001040780030479800c9
:104ccc00b08821001040780040479800c08821002f
:104cdc001040780050479800d08821001040780090
:104cec0060479800e08821001040780070479800d9
:104cfc00f088210010407800004f980000892100b6
:104d0c0010407800104f98006e0090000040780022
:104d1c000080fb00680040006007980043003700eb
:104d2c00ee009000a0072000808f50000c00320095
:104d3c00ee00900080072000808f500008003200a9
:104d4c00ee009000b0072000808f5000040032006d
:104d5c00ee00900090072000808f500019003a0060
:104d6c0010892100104078002047980020892100ec
:104d7c0010407800304798001088210010407800cf
:104d8c004047980020882100104078005047980038
:104d9c00308821001040780060479800408821003e
:104dac00104078007047980030892100104078003e
:104dbc00004f98004089210010407800104f980057
:104dcc001a00370090892100104078002047980085
:104ddc00a08921001040780030479800908821006d
:104dec001040780040479800a088210010407800bf
:104dfc0050479800b0882100104078006047980018
:104e0c00c08821001040780070479800b0892100bc
:104e1c0010407800004f9800c089210010407800a5
:104e2c00104f98000100370000000000d1832000d3
:104e3c0091407800014f7800e00137006076250042
:104e4c00104078000080fb00cf80de00e2002000e4
:104e5c0003002000820f5000838f5800d3013e00c6
:104e6c00006001000e003700140037002c003700e2
:104e7c00440037008500370084003700830037007a
:104e8c00bd003700fe003700860137008501370072
:104e9c003d0137003c0137003b0137003a01370038
:104eac0010d92100104078002047980020d921000b
:104ebc001040780030479800bd01370010d9210010
:104ecc00104078002047980020d92100104078002d
:104edc003047980030d921001040780040479800a6
:104eec0040d92100104078005047980090d92100fb
:104efc001040780060479800a0d92100104078003d
:104f0c0070479800b0d9210010407800004f9800ed
:104f1c00c0d9210010407800104f9800a401370030
:104f2c0090d821001040780020479800a0d821008c
:104f3c001040780030479800b0d82100104078001d
:104f4c0040479800c0d82100104078005047980086
:104f5c0010d82100104078006047980020d821001c
:104f6c00104078007047980030d82100104078002d
:104f7c00004f980040d8210010407800104f980046
:104f8c008b013700ee009000a0072000808f5000ae
:104f9c000c003200ee00900080072000808f500043
:104fac0008003200ee009000b0072000808f500007
:104fbc0004003200ee00900090072000808f50001b
:104fcc0019003a0030d82100104078002047980092
:104fdc0040d82100104078003047980010d82100ac
:104fec00104078004047980020d8210010407800ed
:104ffc005047980010d92100104078006047980065
:10500c0020d92100104078007047980030d9210039
:10501c0010407800004f980040d9210010407800d3
:10502c00104f980062013700b0d821001040780072
:10503c0020479800c0d821001040780030479800d5
:10504c0090d821001040780040479800a0d821004b
:10505c00104078005047980090d9210010407800fb
:10506c0060479800a0d92100104078007047980044
:10507c00b0d9210010407800004f9800c0d9210011
:10508c0010407800104f980049013700ee00900056
:10509c00a0072000808f50000c003200ee00900022
:1050ac0080072000808f500008003200ee00900036
:1050bc00b0072000808f500004003200ee009000fa
:1050cc0090072000808f500013003a0010d8210068
:1050dc00104078002047980020d82100104078001c
:1050ec003047980030d82100104078004047980095
:1050fc0040d82100104078005047980050d821002b
:10510c00104078006047980060d82100104078006b
:10511c00704798001200370070d8210010407800ba
:10512c002047980080d82100104078003047980024
:10513c0090d821001040780040479800a0d821005a
:10514c001040780050479800b0d8210010407800eb
:10515c0060479800c0d82100104078007047980034
:10516c006e009000004078000080fb00680040005a
:10517c00600798000e013700ee009000a007200099
:10518c00808f50000c003200ee0090008007200051
:10519c00808f500008003200ee009000b007200015
:1051ac00808f500004003200ee0090009007200029
:1051bc00808f500019003a0010d821001040780060
:1051cc002047980020d821001040780030479800e4
:1051dc0030d92100104078004047980040d9210078
:1051ec00104078005047980010d9210010407800ea
:1051fc006047980020d92100104078007047980033
:10520c00b0d8210010407800004f9800c0d8210081
:10521c0010407800104f9800e500370090d821001e
:10522c001040780020479800a0d82100104078004a
:10523c0030479800b0d921001040780040479800c2
:10524c00c0d92100104078005047980090d9210017
:10525c001040780060479800a0d9210010407800d9
:10526c007047980030d8210010407800004f98000b
:10527c0040d8210010407800104f9800cc00370027
:10528c00ee009000a0072000808f50000c00320030
:10529c00ee00900080072000808f50000800320044
:1052ac00ee009000b0072000808f50000400320008
:1052bc00ee00900090072000808f500019003a00fb
:1052cc00b0d921001040780020479800c0d92100a7
:1052dc00104078003047980010d921001040780019
:1052ec004047980020d92100104078005047980082
:1052fc0030d82100104078006047980040d8210039
:10530c00104078007047980010d8210010407800a9
:10531c00004f980020d8210010407800104f9800c2
:10532c00a300370030d921001040780020479800a6
:10533c0040d92100104078003047980090d92100c6
:10534c001040780040479800a0d921001040780008
:10535c0050479800b0d82100104078006047980062
:10536c00c0d82100104078007047980090d82100d8
:10537c0010407800004f9800a0d821001040780011
:10538c00104f98008a003700ee009000a007200014
:10539c00808f50000c003200ee009000800720003f
:1053ac00808f500008003200ee009000b007200003
:1053bc00808f500004003200ee0090009007200017
:1053cc00808f500019003a0010d82100104078004e
:1053dc002047980020d821001040780030479800d2
:1053ec0030d82100104078004047980040d8210068
:1053fc00104078005047980050d821001040780099
:10540c006047980060d821001040780070479800e1
:10541c0070d8210010407800004f980080d82100ef
:10542c0010407800104f98001800370090d82100d9
:10543c001040780020479800a0d821001040780038
