:020000040000fa
:080000000002040000000000f2
:020000040000fa
:1000080000000000000000000000000000000000e8
:1000180000000000000000000000000000000000d8
:1000280000000000000000000000000000000000c8
:1000380000000000000000000000000000000000b8
:020000040000fa
:020000040000fa
:10040000afb325000eff27000e018800000000009a
:10041000000020000000e000020032000001200087
:100420002002880014000700770007000000e000a9
:1004300003003a0040e927000100200002003700d5
:100440000000200001002000810f70000100320038
:1004500014000700000020000000e000020032004d
:1004600000000200000000007a9e02000000000070
:100470000040da000000fe004440a90000a0200077
:100480000000e000030032000020200090018800fe
:100490004440a800000006008a1f78008b1f7800e7
:1004a00000000600a1028800800478000000eb0034
:1004b0001f003700e284440054a0b4009905ba003c
:1004c000e284440054a0b4009906ba00e2844400d7
:1004d00054a0b4000006eb00476fde00fd07b20039
:1004e000ae018800636ce10003003a00eaff0700f8
:1004f0000000eb000e003700606ce10008003a00dd
:10050000004deb000a05e800020039003420ec0041
:100510000af0a0008b05e900f9ff3e000400370057
:100520006168e100010032000086eb000b0007006b
:1005300019c7ba001905ba000e04e00003003a001a
:100540000a00e000dbff3a0000000600fe07b200f0
:10055000ae0288008a047800f5ff37000cd0a300b3
:10056000e20f4d001c00390089027800354dba00b9
:100570000a05e800020039003420ec000af0a0006f
:100580008b05e9000f003200254dba000a05e8008e
:10059000020039003420ec000af0a0008b05e900cd
:1005a000080032000c00e0000600320015cdba0051
:1005b0000a05e800020039003420ec000af0a0002f
:1005c0008b05e9008984e80054a0b4000b00e0002a
:1005d000e2ff3a00000006009902ba00055d7800cb
:1005e0008b05e900f7ff3200c82ade00055d7800c0
:1005f0008b05e900f3ff32000c00e000f1ff320050
:1006000019ddba00eeff3700000005005400f800c5
:10061000a102880080027800620040003549ba00db
:10062000e08048003204e0000410a700100032000f
:100630008301e9000e0032002549ba003204e000cf
:100640000410a7000a0032008301e900080032000c
:100650000408a300eeff320015c9ba003204e0001e
:100660000410a700020032008301e900e8ff3a000d
:100670005400f900000006006022b80006022000c5
:100680000000d0008180d2000482d2008582d20096
:100690000000a0000202520083825a0003003100d1
:1006a0000202420083824a000000a1000603e90022
:1006b000f3ff3a00000006000000fa0068815700ce
:1006c000cfb89700980207000080fa0000000600eb
:1006d000bc0007001401070048010700c40107001f
:1006e000ec010700e8020700930237008001780060
:1006f00002003700b15978000201e9000200e00071
:10070000fcff3a0000000600889fbe008a9fbe00e2
:10071000800478000200e0005b00320001407800b5
:10072000814c780082814400f1f99f00e20f510072
:100730005500360091449800a1449800e1f99f00cb
:10074000d1f99f00e60f51004f003600b1449800e8
:10075000c1f99f00e80f51004b0036000905ea007f
:10076000630565000a8444000a055100c1ff2f009b
:10077000010565000080fb008000eb0012102000e6
:100780001310200047080700008cbe000a01440037
:1007900060b99f0071b99f00e80f55003a0036001c
:1007a00020049800310498004004980051049800f7
:1007b00020b99f0031b99f0040b99f0051b99f00f7
:1007c000f80f55003000360060049800710498005e
:1007d000000c9800110c9800200c9800310c980027
:1007e000400c9800510c980020b19f0031b19f003f
:1007f00040b19f0051b19f0060b19f0071b19f0057
:1008000000b99f0011b99f006401640078014100a4
:1008100002044400020555006011b8000203be0046
:100820000002be000403be006022b8000000720097
:100830008180720002017300838173001000370011
:10084000009cbe000294be00400498005104980031
:100850006204980073049800000c9800110c980032
:10086000220c9800330c9800400c9800510c980012
:10087000620c9800730c98000a02b1000802b000e4
:10088000ff0f5500eeff3e00090078004f05be0047
:100890004f04be00000006001800fa00889fbe004a
:1008a0008a1f7800000578000a007800fd0507001f
:1008b0000203be000002be000004be006011b800ca
:1008c0000400e1000588e1000690e1000798e100de
:1008d00010003a000002eb0094bf9f006022b800b5
:1008e000a4bf9f00b5bf9f0064b32500c4bf9f0095
:1008f0007e8257008e0407000000e00005003500ee
:10090000fe8257000b000900351d78008a01b100f6
:1009100004003700b0042000f0cf8a000084eb0010
:100920008084eb000800be004f0578004f04be0035
:100930000080fa00000006008101780000027800c3
:1009400030417800b14f510002003a000204e0004b
:10095000f9ff3a009480fb001380fb0000805000f8
:100960000000060080007800040037003104e00039
:1009700002003a000000510000000600010178006a
:100980000108a300f9ff3a008101780031017800e5
:10099000f4ef2f00020242000281ea00020162002d
:1009a0000408280004016100f7ff3200830078008a
:1009b000010178003104e000fdff3a000000510021
:1009c00000000600ec874700889fbe008a9fbe009b
:1009d0008c9fbe008e1f780000067800010478000e
:1009e000180790002805900098067800cdb79f0062
:1009f000b80590003202be002203be000400be0013
:100a00000601be004f18de006011b8008000eb0048
:100a1000d0b79f00e1b79f00f2b79f0083bf9f0050
:100a2000800478000900e000060032006000b80091
:100a30006011b80004025000858258000603590076
:100a4000878359000e00e000020035000d10a10060
:100a5000cdb79f000900e00005003a004fb09700b5
:100a60000028a30002003a000038a3000200320070
:100a70008a00e900010037008a007800f8815700f9
:100a8000a200200008007800860007000900e000ae
:100a900003003a00cfb097000128a30008003200fd
:100aa0000000e90000814500b1c2b3000900e00088
:100ab00001003200d1c2b3000149780005003700bf
:100ac0000138a300030032000000e90001c2b300b6
:100ad00081757800480190000201e9000001510091
:100ae000808045004fb297008a0178000c007800a2
:100af000300207009c0090000188a300040032002f
:100b000098009000810f500001003d000100780026
:100b10004f0778004f06be004f05be004f04be00d1
:100b2000cf00b100000006000200fa00889fbe005e
:100b30008a9fbe00800578000104780002007800da
:100b4000180190002805900098007800b1bf9f0020
:100b5000b80490000200e000020035000110a1007e
:100b6000b1bf9f00ea815700820020008a00780010
:100b70003002be002003be000800780049000700d4
:100b80003fb99700f0006100030032000000e90067
:100b900001c3b300817478003fb99700e800610099
:100ba000030032000000e90001c2b3008174780044
:100bb000480190000201e9000001510080804400da
:100bc0003fba97008a0178000b007800f90107000e
:100bd0009b0090000188a300040032009800900060
:100be000810f500001003d00010078004f05be005c
:100bf0004f04be000080fa0000000600ea874700ac
:100c0000889fbe008a9fbe008e1f78000004780077
:100c1000030078007287570084e2260055c726003b
:100c2000049fbe00c3962200030f78006c87570014
:100c3000004feb0011059000a10490009105780091
:100c40000200e000020032000207780001003700d5
:100c5000728757000000e00002003a000e007800a2
:100c600040ff07000a00e000030035008a0f500033
:100c7000010036000a0078000b0278008901780034
:100c8000000178008e00780008007800c901070094
:100c90004f0778004f05be004f04be00af00b10003
:100ca00000000600f4874700889fbe008a9fbe00b0
:100cb0008c9fbe008e1f78000605be000404be0097
:100cc00081bf9f0082b79f00f3b79f00b0009000e4
:100cd000e1b79f001301780092b79f009006900043
:100ce000400090000000e900000678000d00e000e0
:100cf00001003d001d0020008040eb00efb1970097
:100d0000817178001e0020001f0037000c06e900ea
:100d10000fb09700cf80de006109b900a0b79f0037
:100d2000b1b79f00c2b79f00d3b79f000203be00b8
:100d30000002be000800be000a01be007f070700d7
:100d4000000778000e4078000043b000efb0970035
:100d500080707e008d06e9000fb997000201e9005e
:100d600082bf9f002fb29700bfb297004fb397008a
:100d7000dfb397000800be000a01be006807070045
:100d80000205be000004be000c00e0000d003400af
:100d9000e00f5400e08f5c00e00f5d00e08f5d002d
:100da000daff3a000d00e000d8ff3c008fb9970051
:100db0000300e000030034001fb097000018a300f8
:100dc000d2ff3a000e00e00002003a00ffb09700a8
:100dd0001140a1000c0078004f0778004f06be00bc
:100de0004f05be004f04be004f01b10000000600d9
:100df0000200fa00889fbe008a9fbe0000057800ae
:100e0000010478000200780018019000a804900006
:100e100098007800b1bf9f00b80590000200e00084
:100e2000020035000110a100b1bf9f00ea81570008
:100e3000a2002000890078003002be002003be001e
:100e40000800780097ff0700480190000201e900c0
:100e500000015100808045003fba97008901780069
:100e60000a007800530107009a0090000188a3004f
:100e70000400320098009000810f500001003d00f6
:100e8000010078004f05be004f04be000080fa004c
:100e900000000600fa874700889fbe008a9fbe00b8
:100ea0008c9fbe008e1f78008004780001047800bb
:100eb0008205780018019000280590001807780036
:100ec000b80090000200e000020035000e10a10002
:100ed000010037001200200070006700e0b79f009b
:100ee000090032003b02be002b03be00e00f52009f
:100ef000e08f5a00e00f5b00e08f5b0002003200e1
:100f00008a86e900010037008a067800e802670057
:100f1000f5b79f00010032008d06e9003b02be00dc
:100f20002b03be00e4af9f00f5af9f0086b79f0084
:100f300097b79f00480690000c06e9000040eb00c0
:100f400080707e00efb297007fb29700890378002f
:100f500081047800d8af9f00020478008bbf9f0007
:100f60008a057800034578002a0037000c06e9005e
:100f70006fab97006f006300e90f500002003c0068
:100f80000003b000010037007005b0000a03fb0049
:100f90001604b100f90f53000c003e000003780066
:100fa0000650a0001606b100f90f530007003e00de
:100fb000b4b79f00a5b79f00c7b79f007d05070086
:100fc000cfb39700afb297003fb2970080747e0016
:100fd0000804e9008d06e9006fa89700ffa89700b4
:100fe0000fb197009fb19700460020008301d10008
:100ff0000281d3008180d3000080d3000603e90082
:10100000faff3a00e0af9f00f1af9f0082b79f0068
:1010100093b79f00e10f56000f0034006fa89700b0
:10102000ffa897000fb197009fb19700e00f500005
:10103000e08f5800e00f5900e08f5900cbff3a00d5
:101040000800e000c9ff3c000d00e0000200340091
:101050000e18a300c5ff3a0089007800f4b79f007e
:10106000870478005fac97008a4178000b05780010
:101070008fbd97000500e000100032003b02be006b
:101080002b03be00e4af9f00f5af9f0086b79f0023
:1010900097b79f00e00f5200e08f5a00e00f5b000f
:1010a000e08f5b00050032000c06e90083707e00d3
:1010b0000c06e90000c3b30080707e00ffb2970009
:1010c0000500e000030032000c06e90000c2b30096
:1010d00080707e00480190000201e9000c0151007f
:1010e0008c8040000e0278008a01780009007800a8
:1010f000b0000700990090000188a30004003200ae
:1011000098009000810f500001003d000100780020
:101110004f0778004f06be004f05be004f04be00cb
:10112000af01b100000006008201780001017800e3
:10113000f1ff27002605370084082000848f500027
:101140001d0032000d003c0014082000848f500068
:101150002700320002003c00040820000400370091
:1011600024082000848f50003400320044082000fe
:10117000848f500043003a0036003700040a2000f4
:10118000848f50002700320004003c000409200036
:10119000848f50003b003a0028003700020c2000ea
:1011a000828f50002f003200020f2000828f5000eb
:1011b00034003a002b0037009380e9000200e00081
:1011c00005003200810978001102fb00cfa2de0089
:1011d000612bb9002800370081097800114278009e
:1011e0000482fb008002eb006033b800220037006d
:1011f00013027800e40052000200e0000500320013
:10120000810978001102be004fabde008603780032
:1012100019003700810978001102be006033b80060
:10122000150037009380e9008109780011027800e9
:10123000cfa2de00612bb9000f00370093027800c7
:10124000e8805200810978003102be002103be000f
:10125000090037009380e9000200e000020032003c
:10126000f1ff37009380e9008109780011027800ce
:101270008002eb006033b8000498be000690be0008
:10128000100005000000050044082000848f500075
:101290002500320008003c0014082000848f500014
:1012a0001400320024082000848f500024003200f3
:1012b000040820000c00370004092000848f50002f
:1012c0001f00320004003c0084082000848f50007e
:1012d00024003a000e003700040a2000848f5000da
:1012e00011003200040c2000848f50001d003a00d1
:1012f0000d0037009380e9008109780091007800a3
:1013000001087800cf91de008288be00140037000b
:101310009380e90081097800910078000108780045
:10132000824878000e0037009380e9008109780038
:1013300091007800010878008208780008003700e2
:101340009380e90081097800910078000108780015
:101350006112b900612bb9008498be008690be006e
:101360001000050000000500889fbe000004780002
:101370004800900082047800808f540001003600fd
:10138000800478000901780058009000d7fc07001d
:10139000580090000900400050049800c8009000d8
:1013a00089845000490498000048eb004f04be00b7
:1013b00000000600f2874700889fbe008a9fbe009b
:1013c0008c9fbe008e1f7800800478000105780095
:1013d00002047800830578006107620002003a0089
:1013e0008b0f540008003900080178008a0078004b
:1013f00009007800dcff07008b0f54000200390061
:10140000880578001e003700088655000c0178001a
:10141000f00f5600010036000201200001022000fa
:101420007e805700b8fc07008c0678000500370066
:1014300002012000fe80570009007800caff070063
:10144000f0865600ef8f5600f9ff3e004461de0043
:1014500000ff2f000091b90002014600fe805700f6
:1014600009007800c0ff07000e00e00004003a0009
:10147000080178008a00780009007800baff0700a8
:101480000b0078004f0778004f06be004f05be00e6
:101490004f04be002f01b10000000600000005004f
:1014a0000000050000000500000178000040eb008e
:1014b0008080fb008180400063ad250063c278001e
:1014c0000404e00003003a0070ad250060c078001d
:1014d0000000060092017800934f520004003a0089
:1014e00070ad250060c078000309e80001003700f6
:1014f0000040e800ea4f5000edff36000000060013
:10150000f6874700889fbe008a9fbe008c9fbe0062
:101510008e1f7800000578000104780083057800ac
:10152000040678000000eb00c0b79f008080eb004d
:10153000d1b79f00e0b79f00f2b79f0000082000de
:1015400080bf9f0098007800010078008004eb00c5
:10155000010037008904e800304178000204e0000f
:101560000300320053c2b300834f5100f9ff3a0029
:101570000900e00004003200090178000a00780048
:1015800079ff0700188c44001807780050c2b30098
:101590009e4f10003f013a000e07e8000e0c780045
:1015a00010003700cfb097000100a0000b003700fb
:1015b000cfb097000110a00008003700cfb097000f
:1015c0000120a00005003700cfb097000130a00037
:1015d00002003700cfb097000140a000c1b79f00c4
:1015e000000ce8001800780090407800b2c2b30008
:1015f00082cf5000f1ff320007003c0002c2b3006e
:1016000082cf5000f0ff320032c2b30082cf5000d0
:1016100007003a00efff3700d2c2b30082cf50007c
:10162000e0ff320002c3b30082cf5000e0ff32007f
:10163000a2c2b30082cf50000d003a00000ce800b7
:101640001c80e900000e780010007800e0b79f00d1
:101650000000e0000f003d00cfb097000100a200a5
:10166000c1b79f000000ea00e0b79f000900370003
:10167000a3030700e0b79f0001003700000ce8005b
:10168000180078009000fb000103b100e98f5000c2
:10169000faff36004fb097000008a30002003200a6
:1016a0000010a100c0b79f0018007800e1c2b3008d
:1016b00090cf100016003a008000eb00d1b79f00d9
:1016c0000000e800000c7800a1c2b30090cf100029
:1016d00006003a00000ce8001c80e900000e7800cb
:1016e00010007800d0b79f0009003700840307007e
:1016f000d0b79f0001003700000ce8001800780008
:101700009000fb000103b100e98f5000faff3600a2
:101710000800780064ff0700804678001800780011
:101720001000fb009c03070091062000810f500071
:101730003800320012003c0041062000810f5000aa
:10174000340032000a003c0011062000810f5000d6
:101750002000320031062000810f5000a00032002e
:1017600051022000810f5000bc003a00b400370045
:1017700071062000810f5000b8003c00880037003f
:1017800001072000810f50005c00320007003c0080
:10179000e1062000810f50007a003200f10620009f
:1017a000810f5000ad003a0039003700510720008a
:1017b000810f50002700320081072000810f500068
:1017c0004200320031072000810f5000a3003a0090
:1017d0008f0037008d80fb000c01780000fe2f0089
:1017e0000f004000ad0307000000e000a800320039
:1017f00018007800000ce8009041780002fe2f00ed
:101800000f014100f88057000a00780024ff07000c
:101810000e0037008d80fb008c0178001200200044
:1018200000fe2f000f00400043fe07000000e00014
:1018300097003200180ce80002fe2f000f01410053
:10184000f88057000a0078005efc0700808444009e
:10185000900037008d80fb008c0178000001eb00c8
:1018600000fe2f000f00400033fe07000000e000e4
:1018700087003200180ce80002fe2f000f01410023
:10188000f88057000a00780059fd0700efff370085
:101890008d80fb008c0178000001eb0000fe2f0022
:1018a0000f00400024fe07000000e0007800320036
:1018b000180ce80002fe2f000f014100f8805700cd
:1018c0000a00780098fc0700e0ff37008d80fb00dd
:1018d0008c0178000001eb0000fe2f000f0040009b
:1018e00015fe07000000e0006900320018007800d3
:1018f000000ce800904178001c0037008c01780053
:101900000001eb00010f200000fe2f000f0040003f
:1019100009fe07000000e0005d003200180ce8003e
:101920000fb097009fb097002fb19700bfb19700fd
:10193000e00f5000e08f5800e00f5900e08f590091
:1019400009003a00cfb597006fb49700e0ac2500ce
:1019500004fc07000b027800880178000001780081
:10196000e1ac25004700370083c7b30002fe2f001b
:101970000f014100f88057000a00780045fd07007c
:10198000b2ff37000b8144008d80fb008c01780092
:1019900000fe2f000f0040003bfe07003c00370018
:1019a0008d80fb000c01780000fe2f000f0040002e
:1019b0003a0307000000e00035003200180078000c
:1019c000000ce8009041780002fe2f000f0141005a
:1019d000f88057000a007800b1fe07009bff37002f
:1019e00000c8b30080cf560029003a00180ce80068
:1019f0001c80e900000e780010407800e0df9f00b6
:101a000013002000e2fd2f000f0141000800370005
:101a100000c8b30080cf56001d003a00180ce80043
:101a20001c80e900000e78008001eb0010017800b6
:101a3000f88057000a00780070fc070083ff370029
:101a400000c8b30080cf560011003a00180ce8001f
:101a50004fb29700efb19700080037000e0c7800e6
:101a60000000eb00c0b79f00e0b79f000080eb00d4
:101a7000d0b79f000002eb00840178001200200024
:101a800041ad25000a0078004afe07006fff3700cd
:101a9000180ce800090078004f0778004f06be00d8
:101aa0004f05be004f04be006f01b10000000600ec
:101ab0008200fa00889fbe008a1f78000005780027
:101ac00082047800c13f9f000004eb001000370043
:101ad0000902780088017800a2f72f000f01410069
:101ae00081f72f008f8040000a00780084fe0700f5
:101af00008004000880f500004003d00b0042000a2
:101b0000f0cf8a000084eb00040037000004780066
:101b10004f3897001004e000edff3a00080078000d
:101b20004f0578004f04be000080fa000000060058
:101b30006f02b000889fbe008a9fbe008c9fbe00cf
:101b40008e1f7800b0b79f00c1b79f00d2b79f002b
:101b5000e3b79f000407780008002000092824004c
:101b60001a0f20000b002000080440008984480060
:101b70000a0549008b8549000086eb0004b0270068
:101b8000d5312800261e2000070020000440e10077
:101b900005c8e10006d0e10007d8e1003a013e00a7
:101ba00008282a0039742c00faff2f00fbff2f00b1
:101bb00008044000898448000a0549008b854900d3
:101bc00004182500150020006033b8000800be008e
:101bd0000a01be00dd030700b0b79f00c1b79f0038
:101be000d2b79f00e3b79f0004182500150020001e
:101bf0006033b8000800be000a01be0003040700fd
:101c00000004be00e00f5000e08f580010003d00bf
:101c100000182500110020000804400089844800b5
:101c20003fb09700cfb097005fb19700efb197003a
:101c300061005000e080580060015900e0815900c7
:101c4000b0b79f00c1b79f00d2b79f00e3b79f0016
:101c50003fb29700cfb297005fb39700efb3970002
:101c600063004200e0804a0060014b00e0814b00cd
:101c700074002000050020006033b800e303070073
:101c800080027800c5af9f000500e00002003d0023
:101c9000e7824200c5af9f0014ab2300250020005f
:101ca0006033b8003fb09700cfb097005fb19700a6
:101cb000efb19700a5030700f0af9f0081b79f0029
:101cc00014ab2300250020006033b8003fb097001c
:101cd000cfb097005fb19700efb19700cb0307003b
:101ce0000006be00e00f5000e08f58000a003d00e3
:101cf00010ab2300210020000c0640008d86480018
:101d00007fad97008fb5970061055500e0855d00b8
:101d1000faaf9f008bb79f00c2ea280003002000a3
:101d20000c00be008a0207000005be00e40f500050
:101d3000e08f580002003a003a0020000b0020001b
:101d400042152700f3ff2f000a00be00d50207004e
:101d50000006460081864e00525b200003002000f2
:101d60000c00be007a0207000002be00f90f50000e
:101d7000e08f580002003a00840120000500200096
:101d8000b2a42f00f3ff2f000400be00f4b79f00a1
:101d900085bf9f00c30207000001460081814e00fd
:101da000b2b79f00c3b79f00d216200003002000e7
:101db0003fb09700cfb09700650207000006be0055
:101dc0007fb297008fba9700e40f5000e08f580061
:101dd00002003a003c0020000d00200032e92f00f4
:101de000f3ff2f000c00be00f4b79f0085bf9f00db
:101df000ac0207003fb39700cfb397000003430046
:101e000081834b00d6af9f00e7af9f000000eb003f
:101e10007fb297008fba9700e00f5600e08f5e0008
:101e200009003a0010002000e00f5200e08f5a0035
:101e300005003a000a80750000f0a7000000ea00e3
:101e40000000e9004f00de00dfa89700b103b000fa
:101e500080804000b1af9f00c1162000808040000c
:101e6000bfab9700878f500004003d0000805300f7
:101e700031e92f0081004000b1af9f0092012000a6
:101e8000030020000a00be00f4b79f0085bf9f003a
:101e9000840207007fb297008fba970004024000c7
:101ea000858248004228dd00ce20de0081007000df
:101eb0004220dd000c0640008d8648000c02be006a
:101ec0004fabde0086037800f4a79f0085af9f002c
:101ed00096af9f00a7af9f007fab97008fb397008f
:101ee0000600be004f89de00820178000419200040
:101ef000050020006033b800720307007fa297003e
:101f00008faa97001fab9700afab9700000242006b
:101f100081824a0002034b0083834b00b4b79f00c9
:101f2000c5b79f00d6b79f00e7b79f0050b2250006
:101f30000005eb005fa99700efa997008a007800e1
:101f40000300370004015100858159008100e80039
:101f50005002fb00cfa2de00820f5200838f5a0096
:101f6000f8ff3400d2af9f00e3af9f000105780077
:101f7000e90f55000d0034006c0555003fb0970087
:101f8000cfb097005fb19700efb1970061004000bc
:101f9000e080480060014900e0814900b0b79f003f
:101fa000c1b79f00d2b79f00e3b79f003fb2970031
:101fb000cfb297005fb39700efb3970040062800b9
:101fc000010020006011b8000002420081824a0036
:101fd00002034b0083834b00f4af9f0085b79f0043
:101fe00096b79f00a7b79f000086eb00f0ff2f0079
:101ff000010020006011b8000020e10001a8e1000c
:1020000002b0e10003b8e1001f003e003fb09700be
:102010004006b000500798008a80e8004107980009
:10202000dfa897000106e8003c0798004fa9970039
:1020300062079800bfa997007307980002e120008b
:10204000030020000800be00c1010700200798001f
:10205000c2032000030020000800be00bc010700ee
:10206000c203200003002000fc01070010079800b5
:10207000c2032000030020000800be00f701070093
:10208000000f78000006eb000c0078004f07780086
:102090004f06be004f05be004f04be006f02b100e8
:1020a000000006001a00fa00889fbe008a1f780010
:1020b000000578005a0090006102b900612bb90058
:1020c000d4b79f00e5b79f00f6b79f0087bf9f007a
:1020d0004a049000eb0f540016003600c4002000a4
:1020e000110009000404d8000104780000027800ff
:1020f0000800e00002003d000402e9006c04440016
:102100005fb09700efb097007fb197008fb997004d
:10211000cfa2de000000420081804a0002814a0016
:1021200083814a00d0b79f00e1b79f00f2b79f00bc
:1021300083bf9f0004fe2f000f0242005fb0970094
:10214000efb097007fb197008fb997005900070053
:1021500090b79f00a1b79f00b2b79f00c3b79f0081
:102160008fb09700080078003e0107000004be0011
:102170002a009000cf80de006109b90004e1200050
:10218000050020006033b800ce020700d0b79f00e2
:10219000e1b79f00f2b79f0083bf9f001a00900035
:1021a000cf80de006109b900c403200005002000d3
:1021b0006033b800c30207005fb29700efb2970028
:1021c0007fb397008fbb97000002420081824a00d4
:1021d00002034b0083834b0094bf9f00a5bf9f0069
:1021e000b6bf9f00c7bf9f001a007800cf80de00f7
:1021f0000402400085824800068348008783480027
:10220000d4b79f00e5b79f00f6b79f0087bf9f0038
:102210003a0090000000e900cf80de006109b900bb
:1022200004182500150020006033b800a50207003f
:102230005fb29700efb297007fb397008fbb970014
:102240000002420081824a0002034b0083834b005c
:1022500094bf9f00a5bf9f00b6bf9f00c7bf9f0050
:102260001fb09700afb097003fb19700cfb1970074
:102270000000420081804a0002014b0083814b0034
:10228000d0b79f00e1b79f00f2b79f0083bf9f00c8
:102290004fcdde000000440081804c0002014d0063
:1022a00083014d004f0578004f04be000080fa0006
:1022b00000000600e4874700889fbe008a9fbe009a
:1022c0008c9fbe008e1f78000205be000004be0079
:1022d00004077800a0082000010020006011b80069
:1022e0000040e10001c8e10002d0e10003d8e100b4
:1022f0001e003c00c1fb2f00888040004288de00a9
:10230000e380600006003a000000e9000e00e000f3
:102310000600320011002000010f78000300370092
:102320000e00e00001003200000feb00cf80de0065
:1023300002182500130020005a0107000006be0005
:10234000a0fb2f0008004000cf80de0002382300f1
:10235000131e2000530107000c0040008d80480030
:102360004f89de0082017800550037000e00e00042
:1023700002003a008ebf9f0070875700cdf92f00f2
:102380008886460002192000110009008206d80044
:10239000800678000800be000a01be004006b100b9
:1023a0000180b1000280b1000380b1000419200057
:1023b000050020006033b800140207000000e000b0
:1023c00005003a0010002000000f78008000eb00ac
:1023d000010678001c003700710c2000810f5000ae
:1023e00009003400b1122000810f500003003400b6
:1023f000c012b1003c00200009003700800cb10081
:102400002c002000060037000006eb0031062000fb
:10241000810f5000070034004006b1001c0020006e
:102420000000e00003003a00000f78008000eb009d
:1024300005003700c200de00630060000000e90014
:102440004f00de00000f78001206200002e9b900fc
:102450009e0651000187460004382300151e200007
:102460006033b8000800be000a01be001502070074
:102470000870270069c72700faff2f00fbff2f0015
:1024800008044000898448000a0549008b854900fa
:102490007860b90000004700cf80de006109b90014
:1024a00004182500150020006033b800050207005d
:1024b0000000440081804c0002014d0083814d00ea
:1024c0004f0778004f06be004f05be004f04be0008
:1024d0004f00b100000006008000780010002000ce
:1024e00002022000828f500004003200e980500078
:1024f000e48f5000010036000000eb0000000600f1
:10250000889fbe008a1f7800000578000a047800c2
:10251000984478000805e8000900fb00eeff07007a
:102520000000e000f9ff3a00b0c2b30080cf5400d1
:1025300005003200d0c2b3008000eb0080cf540011
:1025400005003a00020037008000eb000100370070
:10255000110020000804e8000000eb000300370031
:102560006a02b900020052000003b0003801fb000b
:1025700003fd2f0082814100e98f5100f8ff3600f2
:102580000100e00001003a000000ea004f05780079
:102590004f04be0000000600f1fb2f0080804000c9
:1025a000f98f500001003e000050a000000006001e
:1025b000f9ff3700f1f92f0080804000f98f5000bb
:1025c00001003e00f005b20000000600f9ff3700f0
:1025d000f28747008e1f780002027800030178001e
:1025e0000000e00002003200000778000100370020
:1025f000728757008002eb000100e000010032000a
:102600008102e90070805700060009000018eb0005
:102610000080eb0080bf9f002310200093bf9f002d
:10262000aebf9f00b1bf9f00c5bf9f000100e0008b
:1026300003003d00b1042000f1cf8a0006003700fe
:10264000004feb00eebf9f00debf9f0084007800cc
:1026500070805700300007004f0778002f01b1004d
:10266000000006000001be004210dd0001a32500ad
:10267000008040001000be000300e00006003200b1
:10268000e10f51000400340002182500130020005f
:10269000000041008180490000000600881f78008a
:1026a0000004780000082000808f500017003500db
:1026b00010082000808f50000b00340030082000ec
:1026c000808f500011003a0092007800688050001e
:1026d000000978003002be002003be00049cbe004a
:1026e0000694be0007003700920278006480520012
:1026f000000978001000be0024000700009cbe0006
:102700000294be0010002000010037000000eb0022
:102710004f047800000006000200fa00881f7800cd
:1027200000047800e2bf9f00648157000800780031
:10273000dffc0700980090000148a3000100320070
:102740000080eb004f0478000080fa0000000600d3
:10275000839f68000100e00002003d00600010005f
:10276000e08018000300e00002003d00600111005d
:10277000e0811900c0f707004f00e00002003b00b5
:1027800060001000e080180000000600810378005f
:102790001d0007000001be006000b8000478a3001f
:1027a00013003a006220e10015003e000d003900e0
:1027b0008301d1000281d3008180d3008301d10045
:1027c0000281d3008180d3008301d1000281d30034
:1027d0008180d3000538b000c42add00f300b200c8
:1027e0008381720007f0a70003f0a000000006003c
:1027f00083ff2700020020006110b900f9ff3700b5
:1028000003ff2700f7ff3700c70ade00f107b20019
:10281000f50fb20008003200e1cf420002003200a2
:102820000170a00024000500810f7000010032003b
:102830000408050044000500810f700002003a0002
:10284000140005008502e9000000400081c0480036
:10285000fcff3b000170a00024000500811f7800f0
:102860000100e00002003d0060001000e080180060
:102870000300e00002003d0060011100e08119004a
:10288000050007004f00e00002003b006000100060
:10289000e08018000000060077f707000400be0083
:1028a00000000600020ab900001bb9000200b800cf
:1028b000810042008100430000000600889fbe00a6
:1028c0008a9fbe0030044200b0844a0030054b00ad
:1028d00090854b006000b1000898be000a90be00d1
:1028e0000440e10005c8e10006d0e10007d8e1009e
:1028f00002003100680040001008e8004f05be00eb
:102900004f04be0000000600889fbe008a9fbe00e4
:102910003004be002005be000418540005985c0079
:1029200006185d0007985d00110020000440e100da
:1029300005c8e10006d0e10007d8e1000100390038
:102940008000eb00108810004f05be004f04be0051
:10295000000006001200fa00889fbe008a9fbe0099
:102960008c9fbe00e0b79f00f1b79f0082bf9f0021
:1029700093bf9f000605be000404be000000eb00ec
:10298000d0b79f00c0b79f00b0b79f00a0b79f000f
:1029900090b79f00000678005fb19700cfb0970016
:1029a000820141003fb097000200e00004003d00ba
:1029b000370007007e805700c0ff07000300370084
:1029c000330007007e805700cfff0700dfb6970077
:1029d0000d00e0000c0035006fb29700ffb29700c9
:1029e0000fbb97009fbb9700100020000100200044
:1029f0006011b8000002720081827200020373004d
:102a0000838373001b0007000c06e800010420000c
:102a1000810f5600e0ff3a000d00e00004003d0089
:102a20000802be000a03be007e805700a3ff070015
:102a30005fa897000000e00005003a001fb2970071
:102a4000afb297003fb39700cfb3970009000700dc
:102a50006fb09700ffb097000fb997009fb997002c
:102a60004f06be004f05be004f04be000080fa00b6
:102a7000000006000100070000000600a4b79f0048
:102a8000b5b79f00c6b79f00d7b79f0000000600ec
:102a90004f09de0082817100b3b79f004f01de0055
:102aa0008180400082807000a1b79f008fb09700a6
:102ab0004f09de00000040000200700090b79f0048
:102ac0007fa897004f01de00818040008280700067
:102ad00081b79f000d0007004f3ade000000400064
:102ae00004007000f0af9f000800070004024200dd
:102af00085824a0006034b0087834b00dfff0700f7
:102b00000802be000a03be00000006002fb29700b4
:102b1000bfb297004fb39700dfb3970000000600e5
:102b2000881f780018002000881f780089ff0700a0
:102b30008f87e9004f04780000000600801feb003b
:102b400084ff07008f87e90000000600889fbe0011
:102b50008a9fbe00e00f5000e08f5800e00f590040
:102b6000e08f59000c003d006044b8006055b8008b
:102b70000000540081805c0002015d0083815d00e3
:102b8000180020001500070008003d00180007008d
:102b90000004eb00050037000004eb000f00070005
:102ba00002003d001200070018002000dcff0700b3
:102bb0000800e000060032006022b8006033b80070
:102bc0000000520081805a0002015b0083815b009b
:102bd0004f05be004f04be0000000600e00f52008b
:102be000e08f5a00e00f5b00e08f5b000000060002
:102bf0006044b8006055b8000402540085825c004f
:102c000006035d0087835d0000000600889fbe000c
:102c10008a9fbe008c1f7800e00f5000e08f5800a4
:102c2000e00f5900e08f59000d003d006044b800ee
:102c30006055b8000000540081805c0002015d0016
:102c400083815d001c0020000820e10009a8e1004c
:102c50000ab0e1000bb8e1000d003d0008003700ac
:102c60000006eb00e00f5200e08f5a00e00f5b001f
:102c7000e08f5b0006003d006044b8006055b8007e
:102c80000402540085825c0006035d0087835d00ba
:102c9000aaff07000c00e000060032006022b80026
:102ca0006033b8000000520081805a0002015b00ce
:102cb00083815b004f0678004f05be004f04be00c5
:102cc00000000600889fbe008a9fbe008c1f78000f
:102cd0000006eb00e00f5000e08f5800e00f5900b5
:102ce000e08f590007003d006044b8006055b8000f
:102cf0000000540081805c0002015d0083815d0062
:102d00001c002000e00f5200e08f5a00e00f5b0033
:102d1000e08f5b0007003d006044b8006055b800dc
:102d20000402540085825c0006035d0087835d0019
:102d30000c00a2000c0007000c00e00006003200ae
:102d40006022b8006033b8000000520081805a0051
:102d500002015b0083815b004f0678004f05be00d7
:102d60004f04be0000000600889fbe008a9fbe0080
:102d70008c9fbe000404b8000506b8008904460014
:102d800060854e000606b8000a054600e0854e0044
:102d90000706b8008b054600040eb80089044600fb
:102da0000a854e00e0854d00050eb8000a05460074
:102db0008b854e00060eb8008b0546000416b80041
:102dc0000a0546008b854e000516b8008b054600a7
:102dd000041eb8008b0546000800be000a01be00b4
:102de0004f06be004f05be004f04be0000000600a7
:020000040000fa
:102df00020200000202000002020000020200000d3
:102e000020200000202000002020000020200000c2
:102e100020200000202000002020000020200000b2
:102e200020200000202000002020000020200000a2
:102e30002020000020200000202000002020000092
:102e40002020000020200000202000002020000082
:102e50000d0a00000d0a00000d0a00000d0a000016
:102e60000d0a00000000000000000000202000000b
:102e70002020000020200000202000002020000052
:102e80002020000020200000202000002020000042
:102e90002020000020200000202000002020000032
:102ea000544900004d450000204300004841000007
:102eb00052540000202000002020000020200000ac
:102ec0002020000020200000202000002020000002
:102ed00020200000202000002020000020200000f2
:102ee0000d0a00000000000020200000202000004b
:102ef00020200000202000002020000020200000d2
:102f000020200000202000002020000020200000c1
:102f10002020000020200000202000002d2d000097
:102f20002d2d00002d2d00002d2d00002d2d000039
:102f30002020000020200000202000002020000091
:102f40002020000020200000202000002020000081
:102f50002020000020200000202000000d0a00009a
:102f600000000000202000002020000020200000a1
:102f700020200000202000004449000047490000b4
:102f8000544100004c200000415800004c45000016
:102f9000204300004f5500004e54000045520000f1
:102fa0002053000053440000414300002d4700001f
:102fb00033360000202000002020000020530000b5
:102fc0006c2e00004e6f00003a2000002020000010
:102fd00020200000202000000d0a0000000000005a
:102fe00020200000202000002020000020200000e1
:102ff00020200000202000002020000020200000d1
:1030000020200000202000002020000020200000c0
:1030100020200000202000002020000020200000b0
:1030200020200000202000002020000020200000a0
:103030002020000020200000202000002020000090
:103040002020000020200000202000002020000080
:10305000202000000d0a00000000000020200000d9
:10306000202000002020000020200000203d000043
:103070003d3d00003d3d00003d3d00003d3d000068
:103080003d3d00003d3d00003d3d00003d3d000058
:103090003d3d00003d3d00003d3d00003d3d000048
:1030a0003d3d00003d3d00003d3d00003d3d000038
:1030b0003d3d00003d3d00003d3d00003d3d000028
:1030c0003d3d00003d3d00003d3d00003d3d000018
:1030d0000d0a000000000000202000002020000059
:1030e0002020000020200000207c00002020000084
:1030f00020200000202000002020000020200000d0
:1031000020200000202000002020000020200000bf
:103110002020000020200000207c00002020000053
:10312000202000002020000020200000202000009f
:10313000202000002020000020200000202000008f
:103140002020000020200000207c00000d0a00004c
:1031500000000000202000002020000020200000af
:1031600020200000207c000020540000524100007c
:10317000494e0000204500004e5400005259000006
:1031800020540000494d0000452000002020000090
:1031900020200000207c000020540000524100004c
:1031a000494e00002045000058490000542000000e
:1031b000544900004d450000202000002020000060
:1031c00020200000207c00000d0a0000000000000c
:1031d00020200000202000002020000020200000ef
:1031e000207c000020200000202000002020000083
:1031f00020200000202000002020000020200000cf
:1032000020200000202000002020000020200000be
:10321000207c000020200000202000002020000052
:10322000202000002020000020200000202000009e
:10323000202000002020000020200000202000008e
:10324000207c00000d0a000000000000202000008b
:10325000202000002020000020200000207c000012
:10326000202000002020000020200000202000005e
:10327000202000002020000020200000202000004e
:10328000202000002020000020200000207c0000e2
:10329000202000002020000020200000202000002e
:1032a000202000002020000020200000202000001e
:1032b000202000002020000020200000207c0000b2
:1032c0000d0a000000000000202000002020000067
:1032d0002020000020200000207c00002020000092
:1032e00020200000202000002020000020200000de
:1032f00020200000202000002020000020200000ce
:103300002020000020200000207c00002020000061
:1033100020200000202000002020000020200000ad
:10332000202000002020000020200000202000009d
:103330002020000020200000207c00000d0a00005a
:1033400000000000202000002020000020200000bd
:1033500020200000207c00003d3d00003d3d00009d
:103360003d3d00003d3d00003d3d00003d3d000075
:103370003d3d00003d3d00003d3d00003d3d000065
:103380003d3d00003d2b00003d3d00003d3d000067
:103390003d3d00003d3d00003d3d00003d3d000045
:1033a0003d3d00003d3d00003d3d00003d3d000035
:1033b0003d3d00003d7c00000d0a000000000000c3
:1033c00020200000202000002020000020200000fd
:1033d000207c000020200000202000002020000091
:1033e00020200000202000002020000020200000dd
:1033f00020200000202000002020000020200000cd
:10340000207c000020200000202000002020000060
:1034100020200000202000002020000020200000ac
:10342000202000002020000020200000202000009c
:10343000207c00000d0a0000000000002020000099
:10344000202000002020000020200000207c000020
:10345000204f00004343000055500000415400003d
:10346000494f00004e20000044550000524100002a
:10347000544900004f4e000020200000207c000036
:10348000204c00004f410000444900004e4700001e
:10349000204400005552000041540000494f0000f4
:1034a0004e2000002020000020200000207c000092
:1034b0000d0a000000000000202000002020000075
:1034c0002020000020200000207c000020200000a0
:1034d0002020000020200000286900006e2000004d
:1034e000486f000075720000732900002020000062
:1034f0002020000020200000207c00002020000070
:103500002020000020280000696e000020480000f4
:103510006f75000072730000292000002020000059
:103520002020000020200000207c00000d0a000068
:1035300000000000202000002020000020200000cb
:1035400020200000207c000020200000202000001f
:10355000202000002020000020200000202000006b
:10356000202000002020000020200000202000005b
:1035700020200000207c00002020000020200000ef
:10358000202000002020000020200000202000003b
:10359000202000002020000020200000202000002b
:1035a00020200000207c00000d0a00000000000028
:1035b000202000002020000020200000202000000b
:1035c000207c00002020000020200000202000009f
:1035d000202000002020000028680000683a000039
:1035e0006d6d00003a730000732900002020000078
:1035f000207c00002020000020200000202000006f
:10360000202000002020000028680000683a000008
:103610006d6d00003a730000732900002020000047
:10362000207c00000d0a00000000000020200000a7
:10363000202000002020000020200000207c00002e
:10364000202000002020000020200000202000007a
:10365000202000002020000020200000202000006a
:10366000202000002020000020200000207c0000fe
:10367000202000002020000020200000202000004a
:10368000202000002020000020200000202000003a
:10369000202000002020000020200000207c0000ce
:1036a0000d0a000000000000202000002020000083
:1036b0002020000020200000207c00003d3d000074
:1036c0003d3d00003d3d00003d3d00003d3d000012
:1036d0003d3d00003d3d00003d3d00003d3d000002
:1036e0003d3d00003d3d00003d2b00003d3d000004
:1036f0003d3d00003d3d00003d3d00003d3d0000e2
:103700003d3d00003d3d00003d3d00003d3d0000d1
:103710003d3d00003d3d00003d7c00000d0a0000e5
:1037200000000000202000002020000020200000d9
:1037300020200000207c000020200000202000002d
:103740002020000020200000202000002020000079
:103750002020000020200000202000002020000069
:1037600020200000207c00002020000020200000fd
:103770002020000020200000202000002020000049
:103780002020000020200000202000002020000039
:1037900020200000207c00000d0a00000000000036
:1037a0002020000020200000202000002020000019
:1037b000207c0000204500004e54000052590000bb
:1037c00020410000584c000045200000434f0000fd
:1037d000554e00005453000020200000202000001f
:1037e000207c00002020000020200000202000007d
:1037f00020200000202000002020000020200000c9
:1038000020200000202000002020000020200000b8
:10381000207c00000d0a00000000000020200000b5
:10382000202000002020000020200000207c00003c
:103830002020000020200000202000002020000088
:103840002020000020200000202000002020000078
:10385000202000002020000020200000207c00000c
:103860002020000020200000202000002020000058
:103870002020000020200000202000002020000048
:10388000202000002020000020200000207c0000dc
:103890000d0a000000000000202000002020000091
:1038a0002020000020200000207c000020200000bc
:1038b0002020000020200000202000002020000008
:1038c00020200000202000002020000020200000f8
:1038d0002020000020200000207c0000202000008c
:1038e00020200000202000002020000020200000d8
:1038f00020200000202000002020000020200000c8
:103900002020000020200000207c00000d0a000084
:1039100000000000202000002020000020200000e7
:1039200020200000203d00003d3d00003d3d000006
:103930003d3d00003d3d00003d3d00003d3d00009f
:103940003d3d00003d3d00003d3d00003d3d00008f
:103950003d3d00003d2b00003d3d00003d3d000091
:103960003d3d00003d3d00003d3d00003d3d00006f
:103970003d3d00003d3d00003d3d00003d3d00005f
:103980003d3d00003d3d00000d0a0000000000002c
:1039900000c100008140000001c000008041000023
:1039a00001c000008041000000c100008140000013
:1039b00001c000008041000000c100008140000003
:1039c00000c100008140000001c0000080410000f3
:1039d00001c000008041000000c1000081400000e3
:1039e00000c100008140000001c0000080410000d3
:1039f00000c100008140000001c0000080410000c3
:103a000001c000008041000000c1000081400000b2
:103a100001c000008041000000c1000081400000a2
:103a200000c100008140000001c000008041000092
:103a300000c100008140000001c000008041000082
:103a400001c000008041000000c100008140000072
:103a500000c100008140000001c000008041000062
:103a600001c000008041000000c100008140000052
:103a700001c000008041000000c100008140000042
:103a800000c100008140000001c000008041000032
:103a900001c000008041000000c100008140000022
:103aa00000c100008140000001c000008041000012
:103ab00000c100008140000001c000008041000002
:103ac00001c000008041000000c1000081400000f2
:103ad00000c100008140000001c0000080410000e2
:103ae00001c000008041000000c1000081400000d2
:103af00001c000008041000000c1000081400000c2
:103b000000c100008140000001c0000080410000b1
:103b100000c100008140000001c0000080410000a1
:103b200001c000008041000000c100008140000091
:103b300001c000008041000000c100008140000081
:103b400000c100008140000001c000008041000071
:103b500001c000008041000000c100008140000061
:103b600000c100008140000001c000008041000051
:103b700000c100008140000001c000008041000041
:103b800001c000008041000000c100008140000031
:103b900000c00000c1010000c303000002c2000019
:103ba000c606000007c7000005c50000c4040000e9
:103bb000cc0c00000dcd00000fcf0000ce0e000099
:103bc0000aca0000cb0b0000c909000008c80000a9
:103bd000d818000019d900001bdb0000da1a000019
:103be0001ede0000df1f0000dd1d00001cdc0000e9
:103bf00014d40000d5150000d717000016d6000019
:103c0000d212000013d3000011d10000d010000028
:103c1000f030000031f1000033f30000f232000018
:103c200036f60000f7370000f535000034f40000e8
:103c30003cfc0000fd3d0000ff3f00003efe000098
:103c4000fa3a00003bfb000039f90000f8380000a8
:103c500028e80000e9290000eb2b00002aea000018
:103c6000ee2e00002fef00002ded0000ec2c0000e8
:103c7000e424000025e5000027e70000e626000018
:103c800022e20000e3230000e121000020e0000028
:103c9000a060000061a1000063a30000a262000018
:103ca00066a60000a7670000a565000064a40000e8
:103cb0006cac0000ad6d0000af6f00006eae000098
:103cc000aa6a00006bab000069a90000a8680000a8
:103cd00078b80000b9790000bb7b00007aba000018
:103ce000be7e00007fbf00007dbd0000bc7c0000e8
:103cf000b474000075b5000077b70000b676000018
:103d000072b20000b3730000b171000070b0000027
:103d10005090000091510000935300005292000017
:103d200096560000579700005595000094540000e7
:103d30009c5c00005d9d00005f9f00009e5e000097
:103d40005a9a00009b5b00009959000058980000a7
:103d500088480000498900004b8b00008a4a000017
:103d60004e8e00008f4f00008d4d00004c8c0000e7
:103d70004484000085450000874700004686000017
:103d80008242000043830000418100008040000027
:103d90001201000000020000020000000008000004
:103da000d80400000a000000000100000102000029
:103db00000010000090200004300000002010000b1
:103dc00000c00000320900000400000000010000f3
:103dd00002020000010000000524000000100000a5
:103de0000104000024020000020500002406000077
:103df0000001000005240000010000000107000090
:103e00000581000003080000000200000904000012
:103e100001000000020a000000000000000700008e
:103e2000050200000240000000000000070500003d
:103e300082020000400000000004000003090000ae
:103e400004340000034d000000690000006300001e
:103e500000720000006f00000063000000680000b6
:103e60000069000000700000002000000054000005
:103e7000006500000063000000680000006e0000a4
:103e8000006f0000006c0000006f00000067000081
:103e9000007900000020000000490000006e0000d2
:103ea00000630000002e0000003400000343000007
:103eb0000044000000430000002000000052000009
:103ec00000530000002d000000320000003300000d
:103ed000003200000020000000450000006d0000de
:103ee00000750000006c000000610000007400001c
:103ef00000690000006f0000006e0000002000005c
:103f00000044000000650000006d0000006f00002c
:103f10000000000003000000050000005c0000003d
:103f20000900000002000000ff000000ff00000088
:103f3000070000000c0000000e0000001000000050
:103f4000120000001400000016000000180000001d
:103f50001a0000001c0000001e00000020000000ed
:103f600022000000240000002600000028000000bd
:103f70002a0000002c0000002e000000300000008d
:103f8000320000003400000036000000380000005d
:103f90003a0000003e000000400000004200000027
:103fa0003c00000046000000440000004800000003
:103fb0005f0000004a0000004c0000004e000000be
:103fc00050000000520000005400000056000000a5
:103fd000580000000400000006000000ff00000080
:103fe0000a000000ff000000ff000000ff000000ca
:103ff000ff0000000b0000000d0000000f0000009b
:104000001100000013000000150000001700000060
:10401000190000001b0000001d0000001f00000030
:104020002100000023000000250000002700000000
:10403000290000002b0000002d0000002f000000d0
:1040400031000000330000003500000037000000a0
:10405000390000003d0000003f000000410000006a
:104060003b00000045000000430000004700000046
:104070005e000000490000004b0000004d00000001
:104080004f000000510000005300000055000000e8
:104090005700000025730000257300000025000074
:1040a00073250000732500007300000025730000d5
:1040b0002225000073220000257300000053000039
:1040c0005344000041430000205300007973000076
:1040d000746500006d20000069730000207400000a
:1040e000757200006e650000642000006f6e0000b5
:1040f000202500006300000025730000202500003b
:10410000630000004e7500006d62000065720000e3
:10411000204100006464000065640000207300001a
:10412000756300006365000073730000667500002e
:104130006c6c0000792e0000256300000043000035
:104140004d4700004c0000002564000020250000c1
:10415000730000002564000020250000730a0000a1
:10416000000000000000000001010000010200004a
:10417000020100000202000003030000040400002a
:104180000505000006060000060200000206000009
:104190000601000001060000001f00001c1f0000b7
:1041a0001e1f00001e1f00001f1e00001f1e00001b
:1041b0001f00000000060000010b000002040000c8
:1041c00003040000040400000505000006040000cc
:1041d00001020000040800001020000040800000e0
:1041e000a1a00000a9a80000a5a40000adac00009b
:020000040000fa
:1041f0000000fa0080b781000080fa00000006008d
:104200000000fa00206f2300104078000080fa00c0
:10421000000006000000fa00206f23008040eb0041
:10422000014878000080fa00000006000200fa0051
:104230000040eb00004f7800a01a8100e60f50000c
:1042400002003e001e407800990037008141800046
:1042500000002200008060000000e00005003a003d
:104260008141800000002400008060000000e00028
:1042700002003a001e4078008d00370010c0b300e5
:10428000004f78003168a8003188a90031a8a80043
:1042900031c8a9000000eb00d01a8900c00020003e
:1042a000c01a89000000eb00101b89000000eb0021
:1042b000201b89000000eb0070b789000000eb00b4
:1042c00080b78900206f23008040eb000148780010
:1042d00078c8bf000080fb006c00b9008000780047
:1042e000406f230000804000c1c8b300014878003f
:1042f00078c8bf000080fb006c00b9008000780027
:10430000506f23000080400080c0eb00014878001f
:1043100078c8bf000080fb006c00b9008000780006
:10432000606f23000080400080c0eb0001487800ef
:1043300078c8bf000080fb006c00b90080007800e6
:10434000706f23000080400080c0eb0001487800bf
:1043500078c8bf000080fb006c00b90080007800c6
:10436000806f23000080400080c0eb00014878008f
:1043700078c8bf000080fb006c00b90080007800a6
:10438000906f23000080400080c0eb00014878005f
:1043900078c8bf000080fb006c00b9008000780086
:1043a000a06f230000804000c1c8b300014878001e
:1043b00078c8bf000080fb006c00b9008000780066
:1043c000b06f23000080400080c0eb0001487800ff
:1043d00078c8bf000080fb006c00b9008000780046
:1043e000c06f23000080400080c0eb0001487800cf
:1043f00078c8bf000080fb006c00b9008000780026
:10440000d06f23000080400080c0eb00014878009e
:1044100078c8bf000080fb006c00b9008000780005
:10442000e06f23000080400080c0eb00014878006e
:1044300078c8bf000080fb006c00b90080007800e5
:10444000f06f23000080400080c0eb00014878003e
:1044500078c8bf000080fb006c00b90080007800c5
:10446000406f230000804000900078001001900011
:10447000a001900010c0b3001450070078c8bf001e
:104480000080fb006c00b90000007800e6004000ee
:10449000406f2300008040009000780010019000e1
:1044a000a001900020c0b300085007001e40780013
:1044b0000080fa00000006000000fa000000eb0097
:1044c000a01a8900603522008040eb000148780086
:1044d0001000200001002000e01a8900f11a890074
:1044e0000000eb00101b89000000eb00201b89007e
:1044f0000000eb0070b789000000eb0080b7890076
:10450000206f23008040eb00014878000080fa0013
:10451000000006000000fa0070002000a01a8900c8
:10452000603522008040eb00014878003168a90026
:104530003188a80031a8a90031c8a8000080fa007d
:10454000000006001200fa00a01a81008000eb00b3
:10455000d200200003002000820f5000838f5800fb
:1045600033023e00006001000d00370045003700b7
:104570007d003700af003700ee0037003101370013
:104580002d02370032013700400137004b01370060
:1045900057013700d5013700e1013700f40137003a
:1045a000e44607008ce8b70031d4820050a52a0009
:1045b000808f50000400320031d48200a05a2500c0
:1045c000808f50001c003a0040d4820070b78900f0
:1045d00050d4820080b7890080b781008000eb0052
:1045e000e01a8900f11a8900e01a8100f11a8100ad
:1045f000000078000000e900214507008ce8b700c2
:104600000040eb00004f7800070037001e80fb00e1
:104610009e80fb00c2a82500e2c078000000470091
:10462000214098001e4fe8001e407800ef4f5000d8
:10463000f6ff3600100037000000eb0070b789006d
:104640000000eb0080b7890080b781008000eb009c
:10465000e01a8900f11a89000000eb0040d48a00ba
:104660000000eb0050d48a0050a52a0030d48a0004
:10467000744607008ce8b70050002000a01a89009b
:10468000fe0137000040eb00004f780005003700c6
:104690001e80fb00c1a825000041eb00827078005d
:1046a0001e4fe8001e407800ef4f5000f8ff360024
:1046b000e01a8100f11a810000007800f044070040
:1046c0008ce8b7000040eb00004f7800070037008f
:1046d0001e80fb009e80fb00c2a82500e2c078007f
:1046e00000004700214098001e4fe8001e4078005f
:1046f000ef4f5000f6ff3600e01a8100f11a8100fa
:104700000000780080b78900e01a8100f11a81006a
:1047100061004000e0804800e01a8900f11a890039
:10472000ae409000a0cab30080cf500007003a000e
:10473000e21a8100f31a8100f0ff2300010020003b
:10474000800f5100818f5900bd01340020002000ee
:10475000a01a8900f0ff230001002000e01a890060
:10476000f11a8900c50137000040eb00004f7800c6
:10477000050037001e80fb00c1a825000041eb00aa
:10478000827078001e4fe8001e407800ef4f500006
:10479000f8ff3600e01a8100f11a8100000078006d
:1047a000b74407008ce8b7000040eb00004f7800ea
:1047b000070037001e80fb009e80fb00c2a825007a
:1047c000e2c0780000004700214098001e4fe8003a
:1047d0001e407800ef4f5000f6ff3600e01a8100cf
:1047e000f11a81000000780070b78900e01a81009a
:1047f000f11a810061005000e0805800e01a890041
:10480000f11a8900ae409000a0cab30080cf5000da
:1048100005003a00e01a8100f11a8100e00f500013
:10482000e08f580088013d0050002000a01a890048
:10483000920137000040eb00004f78000500370080
:104840001e80fb00c1a825000041eb0082707800ab
:104850001e4fe8001e407800ef4f5000f8ff360072
:10486000e01a8100f11a81000000780084440700fa
:104870008ce8b7000040eb00004f780007003700dd
:104880001e80fb009e80fb00c2a82500e2c07800cd
:1048900000004700214098001e4fe8001e407800ad
:1048a000ef4f5000f6ff3600e01a8100f11a810048
:1048b0000000780080b78900e01a8100f11a8100b9
:1048c00061005000e0805800e01a8900f11a890068
:1048d000ae409000a0cab30080cf500007003a005d
:1048e00040002000a01a89001000200001002000d4
:1048f000e01a8900f11a890060013700e01a81008e
:10490000f11a8100e00f5000e08f580050013d0087
:1049100040002000a01a89001000200001002000a3
:10492000e01a8900f11a89000000eb0080b78900c5
:10493000520137000040eb00004f780005003700bf
:104940001e80fb00c1a825000041eb0082707800aa
:104950001e4fe8001e407800ef4f5000f8ff360071
:10496000e01a8100f11a8100000078004444070039
:104970008ce8b7000040eb00004f780007003700dc
:104980001e80fb009e80fb00c2a82500e2c07800cc
:1049900000004700214098001e4fe8001e407800ac
:1049a000ef4f5000f6ff3600e01a8100f11a810047
:1049b0000000780070b78900e01a8100f11a8100c8
:1049c00061004000e0804800e01a8900f11a890087
:1049d000ae409000a0cab30080cf500008003a005b
:1049e00080b781008000e800f0ff230000806000b5
:1049f00080b7890050002000a01a89001f013700ed
:104a0000e21a8100f31a8100f0ff23000100200068
:104a1000800f5100818f59000f01340080b7810051
:104a20008000e800f0ff23000080600080b789006c
:104a300050002000a01a89000000eb0070b7890028
:104a40000e01370059100700b2fe07000b013700b6
:104a5000c01a8100ec0f500005003a001000200041
:104a600060d58a00c01a8100a01a890003013700ae
:104a7000111b8100201b8100808f5000f800320044
:104a800080002000a01a8900fc0037002c0e0700cf
:104a9000e14f500006003a0090002000a01a890063
:104aa00060352200a1c0b30001487800f300370050
:104ab000a0002000a01a8900f0003700a3440700de
:104ac0000004e0000300320080002000a01a8900ea
:104ad000ea00370060352200104078000004e00052
:104ae000e1003a0080002000a01a8900e3003700ae
:104af000010f07000004e00006003200b0002000b3
:104b0000a01a890060352200a1c0b30001487800d6
:104b1000da0037000036220010407800e14f5000e4
:104b200069003a0070b7810040d48a0080b78100e4
:104b300050d48a0041d4820050d48200808f50002b
:104b40000300310050a52a0030d48a00020037004b
:104b5000a05a250030d48a000040eb00004f7800b6
:104b6000050037001e80fb00c1a825000041eb00b6
:104b7000827078001e4fe8001e407800ef4f500012
:104b8000f8ff360040d48200bd4307008ce8b70030
:104b90000040eb00004f7800070037001e80fb004c
:104ba0009e80fb00c2a8250062c17800a1312200ce
:104bb000827078001e4fe8001e407800ef4f5000d2
:104bc000f6ff36000040eb00004f7800050037008c
:104bd0001e80fb00c1a825000041eb008270780018
:104be0001e4fe8001e407800ef4f5000f8ff3600df
:104bf00050d48200a24307008ce8b7000040eb00cd
:104c0000004f7800070037001e80fb009e80fb00ed
:104c1000c2a8250062c17800a1322200827078000b
:104c20001e4fe8001e407800ef4f5000f6ff3600a0
:104c30000040eb00004f7800050037001e80fb00ad
:104c4000c1a825000041eb00827078001e4fe800eb
:104c50001e407800ef4f5000f8ff36000000eb00d8
:104c6000874307008ce8b7000040eb00004f780056
:104c7000070037001e80fb009e80fb00c2a82500b5
:104c800062c17800a1332200827078001e4fe800d4
:104c90001e407800ef4f5000f6ff3600e944070051
:104ca0008ce8b700003622008040eb000148780015
:104cb000b0002000a01a890060352200a1c0b30016
:104cc000014878006d00370070002000a01a8900ac
:104cd000603522008040eb00014878000036220059
:104ce0008040eb000148780064003700174407005b
:104cf0000004e00003003200a0002000a01a890098
:104d00005e00370060352200104078000004e000ab
:104d100057003a00a0002000a01a89005700370071
:104d200010c0b30082e8b700d01a81008f4207009c
:104d3000104798001e409000e14f500006003a00d6
:104d4000504580000000e00003003a00d01a8100c6
:104d50000000e800d01a8900d0002000a01a8900c5
:104d600060352200a1c0b30001487800430037003d
:104d7000f64307000004e00004003a00603522001a
:104d8000104078000004e0003b003a00d01a810097
:104d9000e30f500003003e00c0002000a01a89006d
:104da000360037003168a9003188a80031a8a90071
:104db00031c8a8000000eb0070b789000000eb00cc
:104dc00080b7890080b781008000eb00e01a89007d
:104dd000f11a89000000eb0040d48a000000eb00cb
:104de00050d48a000000eb0030d48a0095440700bc
:104df0008ce8b7009e3907006000200060d58a006b
:104e00001000200070d58a0070002000a01a8900d0
:104e1000603522008040eb000148780060002000ef
:104e2000c01a890060072000220007001300370025
:104e30000000000011003700000000000f003700e4
:104e4000000000000d003700000000000b003700dc
:104e500000000000090037000000000007003700d4
:104e600000000000050037000000000003003700cc
:104e70000000000001003700000000000080fa0080
:104e8000000006000000fa006035220010407800a3
:104e90000004e00005003200603522001040780078
:104ea0008040e90060352200014878000080fa0067
:104eb000000006000200fa00000f7800201b8100ad
:104ec0008000e800401f2000000178001100090068
:104ed0008280d8008000fd00201b8900201b8100fb
:104ee0006a00b9008000780060362200008040002f
:104ef00080c0eb0001487800201b81009e007800f4
:104f0000014178006a00b900800078006036220014
:104f10000080400012409800201b81006a00b90008
:104f20008000780080362200008040008000eb0086
:104f300001087800201b81006a00b9008000780019
:104f4000a0362200008040008000eb0001087800bd
:104f5000201b81000000e8006a00b9008000780092
:104f600020362200008040008000eb00010878001d
:104f7000201b81006a00b90080007800e036220022
:104f8000008040008000eb00010878000080fa00fb
:104f9000000006000e00fa00204f980061079800fc
:104fa0000040eb00004f78002e489000e14f500089
:104fb000030032002e489000e24f5000e0003a001b
:104fc0000000eb00100798000000eb00200798009d
:104fd0000000eb00300798000000eb00400798004d
:104fe0002e489000e14f500065003a0078c8bf009d
:104ff0008080fb00000520000088b90000007800d8
:10500000d004b000a1912100e140780050c5b30068
:1050100080cf50004b003a0078c8bf008080fb0072
:10502000000520000088b9000000780068004000fa
:10503000a1912100614078002047980078c8bf0006
:105040008080fb00000520000088b9000000780087
:1050500069004000a191210061407800304798002c
:1050600078c8bf008080fb00000520000088b900e0
:10507000000078006a004000a191210061407800a2
:105080004047980078c8bf008080fb0000052000e2
:105090000088b900000078006b004000a191210059
:1050a000614078005047980078c8bf008080fb00be
:1050b000000520000088b900000078006c00400066
:1050c000a1912100614078006047980078c8bf0036
:1050d0008080fb00000520000088b90000007800f7
:1050e0006d004000a1912100614078007047980058
:1050f00078c8bf008080fb00000520000088b90050
:10510000000078006e004000a1912100614078000d
:10511000004f980078c8bf008080fb000005200089
:105120000088b900000078006f004000a1912100c4
:1051300061407800104f9800318420009140780041
:10514000014f780078c8bf008080fb000005200078
:105150000088b90000007800d004b000a1912100bf
:10516000e1407800a0cab30080cf500068003a0048
:105170003184200091407800014f780064003700ae
:1051800078c8bf008080fb00000520000088b900bf
:1051900000007800d004b000a1e12100e1407800d7
:1051a00050c5b30080cf50004b003a0078c8bf0014
:1051b0008080fb00000520000088b9000000780016
:1051c00068004000a1e1210061407800204798007c
:1051d00078c8bf008080fb00000520000088b9006f
:1051e0000000780069004000a1e1210061407800e2
:1051f0003047980078c8bf008080fb000005200081
:105200000088b900000078006a004000a1e1210098
:10521000614078004047980078c8bf008080fb005c
:10522000000520000088b900000078006b004000f5
:10523000a1e12100614078005047980078c8bf0084
:105240008080fb00000520000088b9000000780085
:105250006c004000a1e121006140780060479800a7
:1052600078c8bf008080fb00000520000088b900de
:10527000000078006d004000a1e12100614078004d
:105280007047980078c8bf008080fb0000052000b0
:105290000088b900000078006e004000a1e1210004
:1052a00061407800004f980078c8bf008080fb0004
:1052b000000520000088b900000078006f00400061
:1052c000a1e1210061407800104f98004184200046
:1052d00091407800014f780078c8bf008080fb00c3
:1052e000000520000088b90000007800d004b0005c
:1052f000a1e12100e1407800a0cab30080cf5000b6
:1053000003003a004184200091407800014f78006a
:10531000ce0190003e019000ae0090001e00900073
:105320008302780002027800810178000001780091
:10533000ee0090001e4078001009070001003700c1
:10534000000000000080fa00000006000e00fa00d5
:10535000204f9800610798002e489000e14f5000c0
:10536000030032002e489000e24f500000093a003e
:105370000000eb00100798000000eb0020079800e9
:105380000000eb00300798000000eb004007980099
:105390002e489000e14f500075043a00209b2500f4
:1053a000104078000080fb00cf80de00e20020008b
:1053b00003002000820f5000838f580067043e00d6
:1053c000006001000e003700200037006800370041
:1053d000b000370051013700500137004f0137004e
:1053e000d101370072023700ba033700b903370022
:1053f00011033700100337000f0337000e03370087
:1054000078c8bf008080fb00000520000088b9003c
:10541000000078005003b000a191210061407800a5
:105420002047980078c8bf008080fb00000520005e
:105430000088b900000078006003b000a19121004d
:1054400061407800304798004504370078c8bf00b5
:105450008080fb00000520000088b9000000780073
:105460005003b000a19121006140780020479800ce
:1054700078c8bf008080fb00000520000088b900cc
:10548000000078006003b000a19121006140780025
:105490003047980078c8bf008080fb0000052000de
:1054a0000088b90000007800d003b000a19121006d
:1054b000614078004047980078c8bf008080fb00ba
:1054c000000520000088b90000007800e003b0006b
:1054d000a1912100614078005047980078c8bf0032
:1054e0008080fb00000520000088b90000007800e3
:1054f0007003b000a19121006140780060479800de
:1055000078c8bf008080fb00000520000088b9003b
:10551000000078008003b000a19121006140780074
:105520007047980078c8bf008080fb00000520000d
:105530000088b90000007800f003b000a1912100bc
:1055400061407800004f980078c8bf008080fb0061
:10555000000520000088b900000078000004b000b9
:10556000a191210061407800104f9800fc033700a2
:1055700078c8bf008080fb00000520000088b900cb
:10558000000078005002b000a19121006140780035
:105590002047980078c8bf008080fb0000052000ed
:1055a0000088b900000078006002b000a1912100dd
:1055b000614078003047980078c8bf008080fb00c9
:1055c000000520000088b90000007800d002b0007b
:1055d000a1912100614078004047980078c8bf0041
:1055e0008080fb00000520000088b90000007800e2
:1055f000e002b000a191210061407800504798007e
:1056000078c8bf008080fb00000520000088b9003a
:10561000000078007002b000a19121006140780084
:105620006047980078c8bf008080fb00000520001c
:105630000088b900000078008002b000a19121002c
:10564000614078007047980078c8bf008080fb00f8
:10565000000520000088b90000007800f002b000ca
:10566000a191210061407800004f980078c8bf00e8
:105670008080fb00000520000088b9000000780051
:105680000003b000a191210061407800104f980004
:10569000b3033700ee009000a0072000808f500079
:1056a0000c003200ee00900080072000808f500038
:1056b00008003200ee009000b0072000808f5000fc
:1056c00004003200ee00900090072000808f500010
:1056d00049003a0078c8bf008080fb000005200028
:1056e0000088b900000078007002b000a19121008c
:1056f000614078002047980078c8bf008080fb0098
:10570000000520000088b900000078008002b00089
:10571000a1912100614078003047980078c8bf000f
:105720008080fb00000520000088b90000007800a0
:105730005002b000a19121006140780040479800dc
:1057400078c8bf008080fb00000520000088b900f9
:10575000000078006002b000a19121006140780053
:105760005047980078c8bf008080fb0000052000eb
:105770000088b900000078005003b000a19121001a
:10578000614078006047980078c8bf008080fb00c7
:10579000000520000088b900000078006003b00018
:1057a000a1912100614078007047980078c8bf003f
:1057b0008080fb00000520000088b9000000780010
:1057c0007003b000a191210061407800004f980063
:1057d00078c8bf008080fb00000520000088b90069
:1057e000000078008003b000a191210061407800a2
:1057f000104f98005a03370078c8bf008080fb0024
:10580000000520000088b90000007800f002b00018
:10581000a1912100614078002047980078c8bf001e
:105820008080fb00000520000088b900000078009f
:105830000003b000a191210061407800304798003a
:1058400078c8bf008080fb00000520000088b900f8
:1058500000007800d002b000a191210061407800e2
:105860004047980078c8bf008080fb0000052000fa
:105870000088b90000007800e002b000a19121008a
:10588000614078005047980078c8bf008080fb00d6
:10589000000520000088b90000007800d003b000a7
:1058a000a1912100614078006047980078c8bf004e
:1058b0008080fb00000520000088b900000078000f
:1058c000e003b000a191210061407800704798008a
:1058d00078c8bf008080fb00000520000088b90068
:1058e00000007800f003b000a19121006140780031
:1058f000004f980078c8bf008080fb0000052000a2
:105900000088b900000078000004b000a1912100d7
:1059100061407800104f980011033700ee009000ae
:10592000a0072000808f50000c003200ee00900095
:1059300080072000808f500008003200ee009000a9
:10594000b0072000808f500004003200ee0090006d
:1059500090072000808f500037003a0078c8bf00c1
:105960008080fb00000520000088b900000078005e
:105970005002b000a19121006140780020479800ba
:1059800078c8bf008080fb00000520000088b900b7
:10599000000078006002b000a19121006140780011
:1059a0003047980078c8bf008080fb0000052000c9
:1059b0000088b900000078007002b000a1912100b9
:1059c000614078004047980078c8bf008080fb00a5
:1059d000000520000088b900000078008002b000b7
:1059e000a1912100614078005047980078c8bf001d
:1059f0008080fb00000520000088b90000007800ce
:105a00009002b000a19121006140780060479800a9
:105a100078c8bf008080fb00000520000088b90026
:105a200000007800a002b000a19121006140780040
:105a3000704798003600370078c8bf008080fb00b0
:105a4000000520000088b90000007800b002b00016
:105a5000a1912100614078002047980078c8bf00dc
:105a60008080fb00000520000088b900000078005d
:105a7000c002b000a1912100614078003047980039
:105a800078c8bf008080fb00000520000088b900b6
:105a900000007800d002b000a191210061407800a0
:105aa0004047980078c8bf008080fb0000052000b8
:105ab0000088b90000007800e002b000a191210048
:105ac000614078005047980078c8bf008080fb0094
:105ad000000520000088b90000007800f002b00046
:105ae000a1912100614078006047980078c8bf000c
:105af0008080fb00000520000088b90000007800cd
:105b00000003b000a1912100614078007047980027
:105b10006e009000004078000080fb0068004000ac
:105b2000600798008e023700ee009000a00720006a
:105b3000808f50000c003200ee00900080072000a3
:105b4000808f500008003200ee009000b007200067
:105b5000808f500004003200ee009000900720007b
:105b6000808f500049003a0078c8bf008080fb0059
:105b7000000520000088b900000078005002b00045
:105b8000a1912100614078002047980078c8bf00ab
:105b90008080fb00000520000088b900000078002c
:105ba0006002b000a1912100614078003047980068
:105bb00078c8bf008080fb00000520000088b90085
:105bc000000078007003b000a191210061407800ce
:105bd0004047980078c8bf008080fb000005200087
:105be0000088b900000078008003b000a191210076
:105bf000614078005047980078c8bf008080fb0063
:105c0000000520000088b900000078005003b000b3
:105c1000a1912100614078006047980078c8bf00da
:105c20008080fb00000520000088b900000078009b
:105c30006003b000a1912100614078007047980096
:105c400078c8bf008080fb00000520000088b900f4
:105c500000007800f002b000a191210061407800be
:105c6000004f980078c8bf008080fb00000520002e
:105c70000088b900000078000003b000a191210065
:105c800061407800104f98003502370078c8bf0097
:105c90008080fb00000520000088b900000078002b
:105ca000d002b000a1912100614078002047980007
:105cb00078c8bf008080fb00000520000088b90084
:105cc00000007800e002b000a1912100614078005e
:105cd0003047980078c8bf008080fb000005200096
:105ce0000088b90000007800f003b000a191210005
:105cf000614078004047980078c8bf008080fb0072
:105d0000000520000088b900000078000004b00001
:105d1000a1912100614078005047980078c8bf00e9
:105d20008080fb00000520000088b900000078009a
:105d3000d003b000a1912100614078006047980035
:105d400078c8bf008080fb00000520000088b900f3
:105d500000007800e003b000a191210061407800cc
:105d60007047980078c8bf008080fb0000052000c5
:105d70000088b900000078007002b000a1912100f5
:105d800061407800004f980078c8bf008080fb0019
:105d9000000520000088b900000078008002b000f3
:105da000a191210061407800104f9800ec0137006c
:105db000ee009000a0072000808f50000c00320001
:105dc000ee00900080072000808f50000800320015
:105dd000ee009000b0072000808f500004003200d9
:105de000ee00900090072000808f500049003a009c
:105df00078c8bf008080fb00000520000088b90043
:105e000000007800f003b000a1912100614078000b
:105e10002047980078c8bf008080fb000005200064
:105e20000088b900000078000004b000a1912100b2
:105e3000614078003047980078c8bf008080fb0040
:105e4000000520000088b900000078005003b00071
:105e5000a1912100614078004047980078c8bf00b8
:105e60008080fb00000520000088b9000000780059
