:020000040000fa
:080000000002040000000000f2
:020000040000fa
:1000080000000000000000000000000000000000e8
:1000180000000000000000000000000000000000d8
:1000280000000000000000000000000000000000c8
:1000380000000000000000000000000000000000b8
:020000040000fa
:020000040000fa
:10040000efb225000eff27000e018800000000005b
:10041000000020000000e000020032000001200087
:100420002002880014000700770007000000e000a9
:1004300003003a006080280001002000020037001d
:100440000000200001002000810f70000100320038
:1004500014000700000020000000e000020032004d
:10046000000002000000000060a90200000000007f
:100470000040da000000fe004440a90000a0200077
:100480000000e000030032000020200090018800fe
:100490004440a800000006008a1f78008b1f7800e7
:1004a00000000600a1028800800478000000eb0034
:1004b0001f003700e284440054a0b4009905ba003c
:1004c000e284440054a0b4009906ba00e2844400d7
:1004d00054a0b4000006eb00476fde00fd07b20039
:1004e000ae018800636ce10003003a00eaff0700f8
:1004f0000000eb000e003700606ce10008003a00dd
:10050000004deb000a05e800020039003420ec0041
:100510000af0a0008b05e900f9ff3e000400370057
:100520006168e100010032000086eb000b0007006b
:1005300019c7ba001905ba000e04e00003003a001a
:100540000a00e000dbff3a0000000600fe07b200f0
:10055000ae0288008a047800f5ff37000cd0a300b3
:10056000e20f4d001c00390089027800354dba00b9
:100570000a05e800020039003420ec000af0a0006f
:100580008b05e9000f003200254dba000a05e8008e
:10059000020039003420ec000af0a0008b05e900cd
:1005a000080032000c00e0000600320015cdba0051
:1005b0000a05e800020039003420ec000af0a0002f
:1005c0008b05e9008984e80054a0b4000b00e0002a
:1005d000e2ff3a00000006009902ba00055d7800cb
:1005e0008b05e900f7ff3200c82ade00055d7800c0
:1005f0008b05e900f3ff32000c00e000f1ff320050
:1006000019ddba00eeff3700000005005400f800c5
:10061000a102880080027800620040003549ba00db
:10062000e08048003204e0000410a700100032000f
:100630008301e9000e0032002549ba003204e000cf
:100640000410a7000a0032008301e900080032000c
:100650000408a300eeff320015c9ba003204e0001e
:100660000410a700020032008301e900e8ff3a000d
:100670005400f900000006006022b80006022000c5
:100680000000d0008180d2000482d2008582d20096
:100690000000a0000202520083825a0003003100d1
:1006a0000202420083824a000000a1000603e90022
:1006b000f3ff3a00000006008001780002003700d6
:1006c000b15978000201e9000200e000fcff3a00a5
:1006d00000000600889fbe008a9fbe00800478004c
:1006e0000200e0005a00320001407800814c78009e
:1006f00082814400f1f99f00e20f5100540036005e
:1007000091449800a1449800e1f99f00d1f99f001d
:10071000e60f51004e003600b1449800c1f99f0029
:10072000e80f51004a0036000905ea00630565003c
:100730000a8444000a055100c1ff2f00010565002d
:100740000080fb008000eb0012102000131020003e
:100750004d080700008cbe000a01440060b99f00ec
:1007600071b99f00e80f5500390036002004980049
:1007700031049800400498005104980020b99f006b
:1007800031b99f0040b99f0051b99f00f80f550043
:100790002f0036006004980071049800000c980047
:1007a000110c9800200c9800310c9800400c980017
:1007b000510c980020b19f0031b19f0040b19f00c3
:1007c00051b19f0060b19f0071b19f0000b99f00bf
:1007d00011b99f00640164007801410002044400e3
:1007e000020555006011b8000203be000002be0001
:1007f0000403be006022b800000072008180720015
:1008000002017300838173000f0037000802780033
:10081000009abe00029abe00009abe000292be007c
:10082000000c9800110c9800220c9800330c9800d2
:10083000400c9800510c9800620c9800730c9800c2
:100840000a02b1000802b000ff0f5500efff3e00a2
:10085000090078004f05be004f04be0000000600ee
:1008600080007800040037003104e00002003a0004
:100870000000510000000600010178000108a300fb
:10088000f9ff3a008101780031017800f4ef2f0080
:10089000020242000281ea0002016200040828000c
:1008a00004016100f7ff3200830078000101780045
:1008b0003104e000fdff3a00000051000000060096
:1008c0000000fa00cfb8970068815700df010700e9
:1008d0000080fa0000000600040007005c0007002a
:1008e000900007000b01070033013700ec87470039
:1008f000889fbe008a9fbe008c9fbe008e1f78001e
:100900000006780001047800180790002805900080
:1009100098067800cdb79f00b80590003202be005f
:100920002203be000400be000601be004f18de0018
:100930006011b8008000eb00d0b79f00e1b79f00c6
:10094000f2b79f0083bf9f00800478000900e00099
:10095000060032006000b8006011b80004025000c8
:100960008582580006035900878359000e00e00075
:10097000020035000d10a100cdb79f000900e00076
:1009800005003a004fb097000028a30002003a008b
:100990000038a300020032008a00e900010037009d
:1009a0008a007800f8815700a20020000800780033
:1009b000860007000900e00003003a00cfb097006e
:1009c0000128a300080032000000e9000081450072
:1009d000b1c2b3000900e00001003200d1c2b3008f
:1009e00001497800050037000138a30003003200f8
:1009f0000000e90001c2b300817578004801900051
:100a00000201e90000015100808045004fb29700cb
:100a10008a0178000c007800a40107009c00900077
:100a20000188a3000400320098009000810f50005c
:100a300001003d00010078004f0778004f06be001e
:100a40004f05be004f04be00cf00b10000000600fd
:100a50000200fa00889fbe008a9fbe000005780051
:100a6000010478000200780018019000a8059000a9
:100a700098007800b1bf9f00b80490000200e00029
:100a8000020035000110a100b1bf9f00ea815700ac
:100a9000820020008b0078003002be002003be00e0
:100aa00008007800490007003fb99700f000610096
:100ab000030032000000e90001c3b3008174780034
:100ac0003fb99700e8006100030032000000e90030
:100ad00001c2b30081747800480190000201e9006e
:100ae00000015100808044003fba97008b017800dc
:100af0000a0078006d0107009a0090000188a300a9
:100b00000400320098009000810f500001003d0069
:100b1000010078004f05be004f04be000080fa00bf
:100b200000000600ea874700889fbe008a9fbe003b
:100b30008e1f780000047800030078007287570049
:100b400084e2260055c72600049fbe00c3962200fb
:100b5000030f78006c875700004feb0011059000e1
:100b6000a1049000910578000200e000020032002c
:100b70000207780001003700728757000000e0008c
:100b800002003a000e00780035ff07000a00e0007e
:100b9000030035008a0f5000010036000a0078007b
:100ba0000b02780089017800000178008e0078003f
:100bb000080078003d0107004f0778004f05be0090
:100bc0004f04be00af00b10000000600f4874700ec
:100bd000889fbe008a9fbe008c9fbe008e1f78003b
:100be0000605be000404be0081bf9f0082b79f00bf
:100bf000f3b79f00b0009000e1b79f0013017800a9
:100c000092b79f0090069000400690000c06e90005
:100c10000d00e00001003d001d002000efb1970035
:100c20000c8041000048eb001e0020001f00370030
:100c30000c06e9000fb09700cf80de006109b90013
:100c4000a0b79f00b1b79f00c2b79f00d3b79f0066
:100c50000203be000002be000800be000a01be0082
:100c6000b807070000077800efb097000c8040003d
:100c700003c3b300034847008d06e9000fb897008f
:100c80000000e90080bf9f002fb29700bfb297001d
:100c90004fb39700dfb397000800be000a01be0003
:100ca000a10707000205be000004be000c00e00022
:100cb0000d003200e00f5400e08f5c00e00f5d009b
:100cc000e08f5d00daff3a000d00e000d8ff3c0045
:100cd0008fb897000100e000030034001fb19700b7
:100ce0000218a300d2ff3a000e00e00002003a0012
:100cf000ffb197001340a1000c0078004f07780067
:100d00004f06be004f05be004f04be004f01b100ac
:100d1000000006000200fa00889fbe008a9fbe0005
:100d20008004780001047800020078001801900027
:100d30002805900098007800b1bf9f00b80590008a
:100d40000200e000020035000110a100b1bf9f00c9
:100d5000ea815700a20020008a0078003002be001d
:100d60002003be000800780098ff070048019000ab
:100d70000201e90000015100808045003fba970060
:100d80008a01780009007800c800070099009000e7
:100d90000188a3000400320098009000810f5000e9
:100da00001003d00010078004f05be004f04be0069
:100db0000080fa0000000600fa874700889fbe0006
:100dc0008a9fbe008c9fbe008e1f78008004780032
:100dd0000104780082057800180190002805900031
:100de00018077800b80090000200e000020035000b
:100df0000e10a100010037001200200070006700f3
:100e0000e0b79f00090032003b02be002b03be008a
:100e1000e00f5200e08f5a00e00f5b00e08f5b00b4
:100e2000020032008a86e900010037008a06780055
:100e3000e8026700f5b79f00010032008d06e90067
:100e40003b02be002b03be00e4af9f00f5af9f0046
:100e500086b79f0097b79f00480690000c06e900f0
:100e60000c8040000048eb00efb297007fb2970083
:100e70008903780081047800d8af9f0002047800cd
:100e80008bbf9f008a057800034578002a00370051
:100e90000c06e9006fab97006f006300e90f50008c
:100ea00002003c000003b000010037007005b000f4
:100eb0000a03fb001604b100f90f53000c003e00ba
:100ec000000378000650a0001606b100f90f530089
:100ed00007003e00b4b79f00a5b79f00c7b79f00ab
:100ee000e2020700cfb39700afb297003fb297007e
:100ef00080747e000804e9008d06e9006fa8970061
:100f0000ffa897000fb197009fb1970046002000ff
:100f10008301d1000281d3008180d3000080d300ff
:100f20000603e900faff3a00e0af9f00f1af9f002f
:100f300082b79f0093b79f00e10f56000f00360065
:100f40006fa89700ffa897000fb197009fb1970077
:100f5000e00f5000e08f5800e00f5900e08f59007b
:100f6000cbff3a000800e000c9ff3c000d00e000a4
:100f7000020034000e18a300c5ff3a008900780073
:100f8000f4b79f00870478005fac97008a4178002f
:100f90000b0578008fbd97000500e00010003200bf
:100fa0003b02be002b03be00e4af9f00f5af9f00e5
:100fb00086b79f0097b79f00e00f5200e08f5a005e
:100fc000e00f5b00e08f5b00050032000c06e900db
:100fd00083707e000c06e90000c3b30080707e00c1
:100fe000ffb297000500e000030032000c06e900a4
:100ff00000c2b30080707e00480190000201e90049
:101000000c0151008c8040000e0278008a017800ab
:101010000900780025000700990090000188a300ce
:101020000400320098009000810f500001003d0044
:10103000010078004f0778004f06be004f05be0044
:101040004f04be00af01b10000000600820178002d
:1010500001017800f1ff2700e7013700889fbe00fb
:101060008a1f78008004780049009000020478000c
:10107000800f540001003600000478000801780059
:101080006a8544001a0078008bfd07001a004400ae
:10109000000d7800e8844400990c14000048eb002f
:1010a0004f0578004f04be0000000600f28747009d
:1010b000889fbe008a9fbe008c9fbe008e1f780056
:1010c0008004780001057800020478008305780028
:1010d0006107620002003a008b0f540008003900db
:1010e000080178008a00780009007800dbff07001b
:1010f0008b0f540002003900880578001e0037006d
:10110000088655000c017800f00f560001003600eb
:1011100002012000010220007e8057006dfd0700c3
:101120008c0678000500370002012000fe80570081
:1011300009007800c9ff0700f0865600ef8f5600bf
:10114000f9ff3e004461de0000ff2f000091b9006e
:1011500002014600fe80570009007800bfff07002b
:101160000e00e00004003a00080178008a007800d0
:1011700009007800b9ff07000b0078004f077800de
:101180004f06be004f05be004f04be002f01b10048
:10119000000006000000050000000500000005003a
:1011a000000178000040eb008080fb00818040005f
:1011b00023ab250063c278000404e00003003a007a
:1011c00030ab250060c07800000006009201780076
:1011d000934f520004003a0030ab250060c0780005
:1011e0000309e800010037000040e800ea4f500022
:1011f000edff360000000600f6874700889fbe001e
:101200008a9fbe008c9fbe008e1f780080047800ed
:101210000104780083057800040678000000eb00e4
:10122000c0b79f008080eb00d1b79f00e0b79f0060
:10123000f2b79f000008200080bf9f009800780050
:10124000010078000005eb00010037000a05e80006
:10125000304178000204e0000300320053c2b300c2
:10126000834f5100f9ff3a000a00e0000400320009
:101270000a0178000900780078ff0700180c450083
:101280001807780050c2b3009e4f100033013a0097
:101290000e07e8000e0c780010003700cfb0970062
:1012a0000100a0000b003700cfb097000110a00094
:1012b00008003700cfb097000120a00005003700dc
:1012c000cfb097000130a00002003700cfb09700e8
:1012d0000140a000c1b79f00000ce8001800780092
:1012e00090407800b2c2b30082cf5000f1ff3200cc
:1012f00007003c0002c2b30082cf5000f0ff320072
:1013000032c2b30082cf500007003a00efff37002f
:10131000d2c2b30082cf5000e0ff320002c3b3005c
:1013200082cf5000e0ff3200a2c2b30082cf500053
:101330000d003a00000ce8001c80e900000e780067
:1013400010007800e0b79f000000e0000f003d00b3
:10135000cfb097000100a200c1b79f000000ea00d3
:10136000e0b79f000900370093010700e0b79f0036
:1013700001003700000ce800180078009000fb0026
:101380000103b100e98f5000faff36004fb097001b
:101390000008a300020032000010a100c0b79f00a7
:1013a00018007800e1c2b30090cf100016003a0098
:1013b0008000eb00d1b79f000000e800000c78002f
:1013c000a1c2b30090cf100006003a00000ce80064
:1013d0001c80e900000e780010007800d0b79f0054
:1013e0000900370074010700d0b79f0001003700e3
:1013f000000ce800180078009000fb000103b10029
:10140000e98f5000faff36000800780064ff0700fb
:1014100080467800180078001000fb008c0107005f
:1014200091062000810f50003800320012003c006d
:1014300041062000810f5000340032000a003c00b9
:1014400011062000810f50002000320031062000dc
:10145000810f50009a00320051022000810f50008d
:10146000ae003a00a700370071062000810f50003f
:10147000aa003c008200370001072000810f5000c5
:101480005c00320007003c00e1062000810f5000a4
:1014900074003200f1062000810f50009f003a00d6
:1014a0003900370051072000810f5000270032001b
:1014b00081072000810f50004200320031072000d8
:1014c000810f500095003a00850037008d80fb00a9
:1014d0000c01780000fe2f000f0040006a01070099
:1014e0000000e0009c00320018007800000ce800ca
:1014f0009041780002fe2f000f014100f880570054
:101500000900780024ff07000e0037008d80fb00e3
:101510008c0178001200200000fe2f000f00400018
:10152000780107000000e0008b003200180ce80092
:1015300002fe2f000f014100f880570009007800db
:10154000eafc070000054500840037008d80fb00a1
:101550008c0178000001eb0000fe2f000f0040001e
:10156000680107000000e0007b003200180ce80072
:1015700002fe2f000f014100f8805700090078009b
:10158000e4fd0700efff37008d80fb008c01780041
:101590000001eb0000fe2f000f0040005901070082
:1015a0000000e0006c003200180ce80002fe2f0082
:1015b0000f014100f88057000900780024fd070062
:1015c000e0ff37008d80fb008c0178000001eb000c
:1015d00000fe2f000f0040004a0107000000e0005d
:1015e0005d00320018007800000ce800904178009f
:1015f000160037008c0178000001eb00010f20007d
:1016000000fe2f000f0040003e0107000000e00038
:1016100051003200180ce8000fb097009fb09700ff
:101620002fb19700bfb19700e00f5000e08f580036
:10163000e00f5900e08f590003003a008001eb00f1
:10164000c2aa25004000370083c7b30002fe2f0066
:101650000f014100f880570009007800d6fd07000f
:10166000b8ff37000b0145008d80fb008c0178002e
:1016700000fe2f000f0040007b01070036003700fe
:101680008d80fb000c01780000fe2f000f00400051
:10169000fd0007000000e0002f0032001800780075
:1016a000000ce8009041780002fe2f000f0141007d
:1016b000f880570009007800b7fe0700a1ff370047
:1016c00000c8b30080cf560023003a00180ce80091
:1016d0001c80e900000e7800104078000d003700f3
:1016e00000c8b30080cf56001b003a00180ce80079
:1016f0001c80e900000e78008001eb0010017800ea
:101700001100370001c8b30081cf560012003a0023
:10171000180ce800e0df9f000800370050c2b3005b
:10172000e0df9f000e0c78000000eb00c0b79f00c8
:10173000e0b79f008080eb00d1b79f00130020002e
:10174000e2fd2f000f014100f880570009007800ea
:10175000f4fc07007bff3700180ce8000a00780053
:101760004f0778004f06be004f05be004f04be0075
:101770006f01b100000006008200fa00889fbe00e1
:101780008a1f78000005780082047800c13f9f001e
:101790000004eb001000370009027800880178008f
:1017a000a2f72f000f01410081f72f008f8040002a
:1017b0000a00780090fe070008004000880f5000e3
:1017c00004003d00b0042000f0cf8a000084eb004c
:1017d00004003700000478004f3897001004e00040
:1017e000edff3a00080078004f0578004f04be0076
:1017f0000080fa0000000600f28747008e1f780084
:1018000002027800030178000000e00002003200cc
:101810000007780001003700728757008002eb0054
:101820000100e000010032008102e90070805700f1
:10183000060009000018eb007280570000a8eb00ba
:101840002310200093bf9f00aebf9f00b1bf9f0039
:10185000c5bf9f000100e00004003d00b00420006f
:10186000f0cf8a000080eb0005003700004feb004e
:10187000eebf9f00debf9f008400780003000700da
:101880004f0778002f01b100000006000200fa00a7
:10189000881f780000047800e2bf9f006481570031
:1018a00008007800b4ff0700980090000148a300ea
:1018b000010032000080eb004f0478000080fa0045
:1018c000000006001800fa00889fbe008a1f7800fa
:1018d000000578000a0078007b0207000203be00c2
:1018e0000002be000004be006011b8000400e10068
:1018f0000588e1000690e1000798e10010003a0039
:101900000002eb0094bf9f006022b800a4bf9f00bc
:10191000b5bf9f00a4b22500c4bf9f007e825700c0
:101920000b0107000000e00005003500fe825700b3
:101930000b000900351d78008a01b1000400370052
:10194000b0042000f0cf8a000084eb008084eb001c
:101950000800be004f0578004f04be000080fa006a
:101960000000060081017800000278003041780014
:10197000b14f510002003a000204e000f9ff3a00c2
:101980009480fb001380fb000080500000000600e4
:10199000800078001000200002022000828f50009a
:1019a00004003200e9805000e48f5000010036004e
:1019b0000000eb0000000600889fbe008a1f780030
:1019c000800478000904780088047800394578009c
:1019d0000a00fb00eeff07000000e000f9ff3a00fc
:1019e000b0c2b300804f550005003200d0c2b30032
:1019f0008000eb00804f550005003a0002003700e0
:101a00008000eb0001003700110020000804e8000e
:101a10000000eb00030037006a02b9000200520028
:101a20000003b0003801fb0003fd2f00828141005c
:101a3000e98f5100f8ff36000100e00001003a0094
:101a40000000ea004f0578004f04be0000000600c9
:101a5000f1fb2f0080804000f98f500001003e0014
:101a60000050a00000000600f9ff3700f1f92f0038
:101a700080804000f98f500001003e00f005b20068
:101a800000000600f9ff3700881f78000004780086
:101a900000082000808f500017003500100820003b
:101aa000808f50000b00340030082000808f5000e1
:101ab00011003a0092007800688050000009780018
:101ac0003002be002003be00049cbe000694be008f
:101ad0000700370092027800648052000009780005
:101ae0001000be0022030700009cbe000294be004e
:101af00010002000010037000000eb004f047800c8
:101b00000000060084082000848f50001d00320071
:101b10000d003c0014082000848f50002700320084
:101b200002003c00040820000400370024082000c4
:101b3000848f50002a00320044082000848f500017
:101b400048003a003b003700040a2000848f500010
:101b50002c00320004003c0004092000848f500057
:101b600040003a002d003700020c2000828f500008
:101b70001e003200020f2000828f500039003a0010
:101b8000300037009380e9000200e00005003200d9
:101b9000810978001102fb00cfa2de00612bb900a1
:101ba0002d00370081097800114278000482fb0083
:101bb0008002eb006033b800270037001302780082
:101bc000e40052000200e0000a00320081097800bf
:101bd0001102be004fabde00860378001e00370006
:101be00093027800e88052000e00370093027800dc
:101bf000e4805200810978001102be006033b80011
:101c0000150037009380e9008109780011027800ff
:101c1000cfa2de00612bb9000f003700130378005c
:101c2000e8005300810978003102be002103be00a4
:101c3000090037009380e9000200e0000200320052
:101c4000f1ff37009380e9008109780011027800e4
:101c50008002eb006033b8000498be000690be001e
:101c6000100005000000050044082000848f50008b
:101c7000270032000a003c0014082000848f500026
:101c80001c00320024082000848f500026003200ff
:101c900004082000848f50002c003a001c003700fc
:101ca00004092000848f50001f00320004003c0013
:101cb00084082000848f500024003a000700370079
:101cc000040a2000848f500011003200040c200010
:101cd000848f50001d003a00060037009380e90011
:101ce0008109780091007800010878008248780026
:101cf000150037009380e900810978009100780091
:101d000001087800cf91de008288be000e00370007
:101d10009380e9008109780091007800010878003b
:101d200082087800080037009380e9008109780074
:101d300091007800010878006112b900612bb900a8
:101d40008498be008690be001000050000000500cb
:101d50006f02b000889fbe008a9fbe008c9fbe00ad
:101d60008e1f7800b0b79f00c1b79f00d2b79f0009
:101d7000e3b79f000407780008002000092824002a
:101d80001a0f20000b00200008044000898448003e
:101d90000a0549008b8549000086eb0004b0270046
:101da000d5312800261e2000070020000440e10055
:101db00005c8e10006d0e10007d8e1003b013e0084
:101dc00008282a0039742c00faff2f00fbff2f008f
:101dd00008044000898448000a0549008b854900b1
:101de00004182500150020006033b8000800be006c
:101df0000a01be0057030700b0b79f00c1b79f009c
:101e0000d2b79f00e3b79f000418250015002000fb
:101e10006033b8000800be000a01be007d03070061
:101e20000004be00e00f5000e08f580010003d009d
:101e30000018250011002000080440008984480093
:101e40003fb09700cfb097005fb19700efb1970018
:101e500061005000e080580060015900e0815900a5
:101e6000b0b79f00c1b79f00d2b79f00e3b79f00f4
:101e70003fb29700cfb297005fb39700efb39700e0
:101e800063004200e0804a0060014b00e0814b00ab
:101e900074002000050020006033b8005d030700d7
:101ea00080027800c5af9f000500e00002003d0001
:101eb000e7824200c5af9f0014ab2300250020003d
:101ec0006033b8003fb09700cfb097005fb1970084
:101ed000efb197001f030700f0af9f0081b79f008d
:101ee00014ab2300250020006033b8003fb09700fa
:101ef000cfb097005fb19700efb19700450307009f
:101f00000006be00e00f5000e08f58000a003d00c0
:101f100010ab2300210020000c0640008d864800f5
:101f20007fad97008fb5970061055500e0855d0096
:101f3000faaf9f008bb79f00c2ea28000300200081
:101f40000c00be00fb0107000005be00e40f5000be
:101f5000e08f580002003a003a0020000b002000f9
:101f600042152700f3ff2f000a00be0046020700bb
:101f70000006460081864e00525b200003002000d0
:101f80000c00be00eb0107000002be00f90f50007c
:101f9000e08f580002003a00840120000500200074
:101fa000b2a42f00f3ff2f000400be00f4b79f007f
:101fb00085bf9f00340207000001460081814e006a
:101fc000b2b79f00c3b79f00d216200003002000c5
:101fd0003fb09700cfb09700d60107000006be00c3
:101fe0007fb297008fba9700e40f5000e08f58003f
:101ff00002003a003c0020000d00200032e92f00d2
:10200000f3ff2f000c00be00f4b79f0085bf9f00b8
:102010001d0207003fb39700cfb3970000034300b2
:1020200081834b00d6af9f00e7af9f000000eb001d
:102030007fb297008fba9700e00f5600e08f5e00e6
:1020400009003a0010002000e00f5200e08f5a0013
:1020500005003a000a80750000f0a7000000ea00c1
:102060000000e9004f00de00dfa89700b103b000d8
:1020700080804000b1af9f00c116200080804000ea
:10208000bfab9700878f500004003d0000805300d5
:1020900031e92f0081004000b1af9f009201200084
:1020a000030020000a00be00f4b79f0085bf9f0018
:1020b000f50107007fb297008fba97000402400035
:1020c000858248004228dd00ce20de0081007000bd
:1020d0004220dd000c0640008d8648000c02be0048
:1020e0004fabde0086037800f4a79f0085af9f000a
:1020f00096af9f00a7af9f007fab97008fb397006d
:102100000600be004f89de0082017800041920001d
:10211000050020006033b800ec0207007fa29700a2
:102120008faa97001fab9700afab97000002420049
:1021300081824a0002034b0083834b00b4b79f00a7
:10214000c5b79f00d6b79f00e7b79f0090b12500a5
:102150000005eb005fa99700efa997008a007800bf
:102160000300370004015100858159008100e80017
:102170005002fb00cfa2de00820f5200838f5a0074
:10218000f8ff3400d2af9f00e3af9f000105780055
:10219000e90f55000d0034006c0555003fb0970065
:1021a000cfb097005fb19700efb19700610040009a
:1021b000e080480060014900e0814900b0b79f001d
:1021c000c1b79f00d2b79f00e3b79f003fb297000f
:1021d000cfb297005fb39700efb397004006280097
:1021e000010020006011b8000002420081824a0014
:1021f00002034b0083834b00f4af9f0085b79f0021
:1022000096b79f00a7b79f000086eb00f0ff2f0056
:10221000010020006011b8000020e10001a8e100e9
:1022200002b0e10003b8e10020003e006a00470070
:10223000bfb09700420620000288400068004700b7
:102240000a88e80066004700dfa997000308e80055
:102250004faa970064079800bfaa970075079800d7
:1022600002e12000030020000800be003101070049
:1022700020079800c2032000030020000800be00d1
:102280002c010700c2032000030020006c0107009e
:1022900010079800c2032000030020000800be00c1
:1022a00067010700000f78000006eb000c007800c3
:1022b0004f0778004f06be004f05be004f04be001a
:1022c0006f02b100000006001a00fa00889fbe00ed
:1022d0008a1f7800000578005a0090006102b9005a
:1022e000612bb900d4b79f00e5b79f00f6b79f00f8
:1022f00087bf9f004a049000eb0f54001600360081
:10230000c4002000110009000404d8000104780072
:10231000000278000800e00002003d000402e9002d
:102320006c0444005fb09700efb097007fb1970056
:102330008fb99700cfa2de000000420081804a00e2
:1023400002814a0083814a00d0b79f00e1b79f0015
:10235000f2b79f0083bf9f0004fe2f000f024200d0
:102360005fb09700efb097007fb197008fb99700eb
:102370006700070090b79f00a1b79f00b2b79f000a
:10238000c3b79f008fb09700080078005200070085
:102390000004be002a009000cf80de006109b90071
:1023a00004e12000050020006033b8004702070068
:1023b000d0b79f00e1b79f00f2b79f0083bf9f0097
:1023c0001a009000cf80de006109b900c40320002c
:1023d000050020006033b8003c0207005fb29700a0
:1023e000efb297007fb397008fbb970000024200c7
:1023f00081824a0002034b0083834b0094bf9f00fd
:10240000a5bf9f00b6bf9f00c7bf9f001a007800fe
:10241000cf80de0004024000858248000683480029
:1024200087834800d4b79f00e5b79f00f6b79f00a9
:1024300087bf9f003a0090000000e900cf80de00d7
:102440006109b90004182500150020006033b800a8
:102450001e0207005fb29700efb297007fb39700ac
:102460008fbb97000002420081824a0002034b00aa
:1024700083834b0094bf9f00a5bf9f00b6bf9f0002
:10248000c7bf9f001fb09700afb097003fb1970044
:10249000cfb197000000420081804a0002014b004a
:1024a00083814b00d0b79f00e1b79f00f2b79f0038
:1024b00083bf9f004fcdde000000440081804c00b0
:1024c00002014d0083014d004f0578004f04be000e
:1024d0000080fa00000006000001be004210dd008e
:1024e00001a32500008040001000be000300e000b2
:1024f00006003200e10f51000400340002182500ec
:102500001300200000004100818049000000060007
:10251000e4874700889fbe008a9fbe008c9fbe0054
:102520008e1f78000205be000004be00040778007c
:10253000a0082000010020006011b8000040e10068
:1025400001c8e10002d0e10003d8e1001e003c0018
:10255000c1fb2f00888040004288de00e3806000dd
:1025600006003a000000e9000e00e000060032001c
:1025700011002000010f7800030037000e00e0007a
:1025800001003200000feb00cf80de0002182500b2
:1025900013002000bc0007000006be00a0fb2f00b7
:1025a00008004000cf80de0002382300131e200008
:1025b000b50007000c0040008d8048004f89de0008
:1025c00082017800550037000e00e00002003a005a
:1025d0008ebf9f0070875700cdf92f008886460078
:1025e00002192000110009008206d8008006780038
:1025f0000800be000a01be004006b1000180b10023
:102600000280b1000380b100041920000500200001
:102610006033b8007f0107000000e00005003a00c9
:1026200010002000000f78008000eb000106780009
:102630001c003700710c2000810f5000090034008d
:10264000b1122000810f500003003400c012b1000d
:102650003c00200009003700800cb1002c00200055
:10266000060037000006eb0031062000810f500005
:10267000070034004006b1001c0020000000e0000c
:1026800003003a00000f78008000eb0005003700df
:10269000c200de00630060000000e9004f00de00c1
:1026a000000f78001206200002e9b9009e065100d2
:1026b0000187460004382300151e20006033b8004f
:1026c0000800be000a01be00800107000870270054
:1026d00069c72700faff2f00fbff2f000804400006
:1026e000898448000a0549008b8549007860b90053
:1026f00000004700cf80de006109b9000418250002
:10270000150020006033b80070010700000044008d
:1027100081804c0002014d0083814d004f077800fd
:102720004f06be004f05be004f04be004f00b10073
:1027300000000600839f68000100e00002003d00e9
:1027400060001000e08018000300e00002003d007f
:1027500060011100e0811900c7f707004f00e00099
:1027600002003b0060001000e0801800000006003e
:10277000810378001d0007000001be006000b80062
:102780000478a30013003a006220e10015003e0027
:102790000d0039008301d1000281d3008180d30074
:1027a0008301d1000281d3008180d3008301d10055
:1027b0000281d3008180d3000538b000c42add0037
:1027c000f300b2008381720007f0a70003f0a000bd
:1027d0000000060083ff2700020020006110b900fe
:1027e000f9ff370003ff2700f7ff3700c70ade00b5
:1027f000f107b200f50fb20008003200e1cf42004d
:10280000020032000170a00024000500810f70005a
:10281000010032000408050044000500810f70002b
:1028200002003a00140005008502e90000004000a3
:1028300081c04800fcff3b000170a000240005009f
:10284000811f78000100e00002003d0060001000e0
:10285000e08018000300e00002003d00600111006c
:10286000e0811900050007004f00e00002003b0076
:1028700060001000e0801800000006007ef70700ee
:102880000400be0000000600020ab900001bb900e7
:102890000200b800810042008100430000000600f1
:1028a000889fbe008a9fbe0030044200b0844a0068
:1028b00030054b0090854b006000b1000898be00c9
:1028c0000a90be000440e10005c8e10006d0e10026
:1028d00007d8e10002003100680040001008e8005d
:1028e0004f05be004f04be0000000600889fbe00da
:1028f0008a9fbe003004be002005be0004185400ac
:1029000005985c0006185d0007985d001100200026
:102910000440e10005c8e10006d0e10007d8e1006d
:10292000010039008000eb00108810004f05be0048
:102930004f04be0000000600f4874700889fbe00d9
:102940008a9fbe008c9fbe008e1f7800d0b79f006c
:10295000e1b79f00f2b79f0083bf9f000605be004e
:102960000404be00cfae97000000eb00c0b79f008c
:10297000b0b79f00a0b79f0090b79f0080b79f009f
:10298000000678004fb09700000140000000e00012
:1029900006003d003c0007000f0747004500070008
:1029a0000f004000beff070005003700360007009b
:1029b0000f0747003f0007000f004000cbff070054
:1029c0004fb797000e00e0000c0035005fb2970093
:1029d000efb297007fb397008fbb970010002000e5
:1029e000010020006011b8000002720081827200b4
:1029f00002037300838373001c0007000c06e800c9
:102a000001042000810f5600deff3a000e00e000b6
:102a100005003d000802be000a03be0000fe2f00b4
:102a20000f0040009eff07000d00e00005003a0087
:102a30000fb297009fb297002fb39700bfb39700d4
:102a40000a0007005fb09700efb097007fb19700d2
:102a50008fb997004f0778004f06be004f05be00a4
:102a60004f04be004f01b100000006000100070046
:102a70000000060094b79f00a5b79f00b6b79f005f
:102a8000c7b79f00000006009fb097004f08de0008
:102a900002017000a2b79f000fb097004f01de0047
:102aa000818040008100710091b79f000efe2f00d1
:102ab00000000600de0078004f09de000000400044
:102ac0000000710080b79f006fa897004f01de00e3
:102ad00081804000010f71000e0007004f3ade00b8
:102ae0000000400004007000e0af9f0009000700f4
:102af0000402420085824a0006034b0087834b0094
:102b0000dcff07000802be000a03be0000fe2f0023
:102b1000000006001fb29700afb297003fb39700c6
:102b2000cfb3970000000600881f7800180020002f
:102b3000881f780080ff07008f87e9004f04780026
:102b400000000600801feb007bff07008f87e90075
:102b500000000600889fbe008a9fbe00e00f500064
:102b6000e08f5800e00f5900e08f59000c003d0045
:102b70006044b8006055b8000000540081805c00db
:102b800002015d0083815d00180020001500070030
:102b900008003d00180007000004eb0005003700a6
:102ba0000004eb000f00070002003d0012000700c8
:102bb00018002000dcff07000800e00006003200db
:102bc0006022b8006033b8000000520081805a00d3
:102bd00002015b0083815b004f05be004f04be0015
:102be00000000600e00f5200e08f5a00e00f5b008b
:102bf000e08f5b00000006006044b8006055b8003c
:102c00000402540085825c0006035d0087835d003a
:102c100000000600889fbe008a9fbe008c1f7800bf
:102c2000e00f5000e08f5800e00f5900e08f59008e
:102c30000d003d006044b8006055b800000054002d
:102c400081805c0002015d0083815d001c0020002a
:102c50000820e10009a8e1000ab0e1000bb8e1009a
:102c60000d003d00080037000006eb00e00f5200a9
:102c7000e08f5a00e00f5b00e08f5b0006003d0034
:102c80006044b8006055b8000402540085825c00be
:102c900006035d0087835d00aaff07000c00e000cb
:102ca000060032006022b8006033b8000000520015
:102cb00081805a0002015b0083815b004f0678002f
:102cc0004f05be004f04be0000000600889fbe00f6
:102cd0008a9fbe008c1f78000006eb00e00f5000ba
:102ce000e08f5800e00f5900e08f590007003d00c9
:102cf0006044b8006055b8000000540081805c005a
:102d000002015d0083815d001c002000e00f520085
:102d1000e08f5a00e00f5b00e08f5b0007003d0092
:102d20006044b8006055b8000402540085825c001d
:102d300006035d0087835d000c00a2000c00070005
:102d40000c00e000060032006022b8006033b800da
:102d50000000520081805a0002015b0083815b0009
:102d60004f0678004f05be004f04be00000006006d
:102d7000889fbe008a9fbe008c9fbe000404b800de
:102d80000506b8008904460060854e000606b800b6
:102d90000a054600e0854e000706b8008b05460090
:102da000040eb800890446000a854e00e0854d00f7
:102db000050eb8000a0546008b854e00060eb800c9
:102dc0008b0546000416b8000a0546008b854e00a8
:102dd0000516b8008b054600041eb8008b0546009a
:102de0000800be000a01be004f06be004f05be002f
:082df0004f04be0000000600c4
:020000040000fa
:102df80020200000202000002020000020200000cb
:102e080020200000202000002020000020200000ba
:102e180020200000202000002020000020200000aa
:102e2800202000002020000020200000202000009a
:102e3800202000002020000020200000202000008a
:102e4800202000002020000020200000202000007a
:102e58000d0a00000d0a00000d0a00000d0a00000e
:102e68000d0a000000000000000000002020000003
:102e7800202000002020000020200000202000004a
:102e8800202000002020000020200000202000003a
:102e9800202000002020000020200000202000002a
:102ea800544900004d4500002043000048410000ff
:102eb80052540000202000002020000020200000a4
:102ec80020200000202000002020000020200000fa
:102ed80020200000202000002020000020200000ea
:102ee8000d0a000000000000202000002020000043
:102ef80020200000202000002020000020200000ca
:102f080020200000202000002020000020200000b9
:102f18002020000020200000202000002d2d00008f
:102f28002d2d00002d2d00002d2d00002d2d000031
:102f38002020000020200000202000002020000089
:102f48002020000020200000202000002020000079
:102f58002020000020200000202000000d0a000092
:102f68000000000020200000202000002020000099
:102f780020200000202000004449000047490000ac
:102f8800544100004c200000415800004c4500000e
:102f9800204300004f5500004e54000045520000e9
:102fa8002053000053440000414300002d47000017
:102fb80033360000202000002020000020530000ad
:102fc8006c2e00004e6f00003a2000002020000008
:102fd80020200000202000000d0a00000000000052
:102fe80020200000202000002020000020200000d9
:102ff80020200000202000002020000020200000c9
:1030080020200000202000002020000020200000b8
:1030180020200000202000002020000020200000a8
:103028002020000020200000202000002020000098
:103038002020000020200000202000002020000088
:103048002020000020200000202000002020000078
:10305800202000000d0a00000000000020200000d1
:10306800202000002020000020200000203d00003b
:103078003d3d00003d3d00003d3d00003d3d000060
:103088003d3d00003d3d00003d3d00003d3d000050
:103098003d3d00003d3d00003d3d00003d3d000040
:1030a8003d3d00003d3d00003d3d00003d3d000030
:1030b8003d3d00003d3d00003d3d00003d3d000020
:1030c8003d3d00003d3d00003d3d00003d3d000010
:1030d8000d0a000000000000202000002020000051
:1030e8002020000020200000207c0000202000007c
:1030f80020200000202000002020000020200000c8
:1031080020200000202000002020000020200000b7
:103118002020000020200000207c0000202000004b
:103128002020000020200000202000002020000097
:103138002020000020200000202000002020000087
:103148002020000020200000207c00000d0a000044
:1031580000000000202000002020000020200000a7
:1031680020200000207c0000205400005241000074
:10317800494e0000204500004e54000052590000fe
:1031880020540000494d0000452000002020000088
:1031980020200000207c0000205400005241000044
:1031a800494e000020450000584900005420000006
:1031b800544900004d450000202000002020000058
:1031c80020200000207c00000d0a00000000000004
:1031d80020200000202000002020000020200000e7
:1031e800207c00002020000020200000202000007b
:1031f80020200000202000002020000020200000c7
:1032080020200000202000002020000020200000b6
:10321800207c00002020000020200000202000004a
:103228002020000020200000202000002020000096
:103238002020000020200000202000002020000086
:10324800207c00000d0a0000000000002020000083
:10325800202000002020000020200000207c00000a
:103268002020000020200000202000002020000056
:103278002020000020200000202000002020000046
:10328800202000002020000020200000207c0000da
:103298002020000020200000202000002020000026
:1032a8002020000020200000202000002020000016
:1032b800202000002020000020200000207c0000aa
:1032c8000d0a00000000000020200000202000005f
:1032d8002020000020200000207c0000202000008a
:1032e80020200000202000002020000020200000d6
:1032f80020200000202000002020000020200000c6
:103308002020000020200000207c00002020000059
:1033180020200000202000002020000020200000a5
:103328002020000020200000202000002020000095
:103338002020000020200000207c00000d0a000052
:1033480000000000202000002020000020200000b5
:1033580020200000207c00003d3d00003d3d000095
:103368003d3d00003d3d00003d3d00003d3d00006d
:103378003d3d00003d3d00003d3d00003d3d00005d
:103388003d3d00003d2b00003d3d00003d3d00005f
:103398003d3d00003d3d00003d3d00003d3d00003d
:1033a8003d3d00003d3d00003d3d00003d3d00002d
:1033b8003d3d00003d7c00000d0a000000000000bb
:1033c80020200000202000002020000020200000f5
:1033d800207c000020200000202000002020000089
:1033e80020200000202000002020000020200000d5
:1033f80020200000202000002020000020200000c5
:10340800207c000020200000202000002020000058
:1034180020200000202000002020000020200000a4
:103428002020000020200000202000002020000094
:10343800207c00000d0a0000000000002020000091
:10344800202000002020000020200000207c000018
:10345800204f000043430000555000004154000035
:10346800494f00004e200000445500005241000022
:10347800544900004f4e000020200000207c00002e
:10348800204c00004f410000444900004e47000016
:10349800204400005552000041540000494f0000ec
:1034a8004e2000002020000020200000207c00008a
:1034b8000d0a00000000000020200000202000006d
:1034c8002020000020200000207c00002020000098
:1034d8002020000020200000286900006e20000045
:1034e800486f00007572000073290000202000005a
:1034f8002020000020200000207c00002020000068
:103508002020000020280000696e000020480000ec
:103518006f75000072730000292000002020000051
:103528002020000020200000207c00000d0a000060
:1035380000000000202000002020000020200000c3
:1035480020200000207c0000202000002020000017
:103558002020000020200000202000002020000063
:103568002020000020200000202000002020000053
:1035780020200000207c00002020000020200000e7
:103588002020000020200000202000002020000033
:103598002020000020200000202000002020000023
:1035a80020200000207c00000d0a00000000000020
:1035b8002020000020200000202000002020000003
:1035c800207c000020200000202000002020000097
:1035d800202000002020000028680000683a000031
:1035e8006d6d00003a730000732900002020000070
:1035f800207c000020200000202000002020000067
:10360800202000002020000028680000683a000000
:103618006d6d00003a73000073290000202000003f
:10362800207c00000d0a000000000000202000009f
:10363800202000002020000020200000207c000026
:103648002020000020200000202000002020000072
:103658002020000020200000202000002020000062
:10366800202000002020000020200000207c0000f6
:103678002020000020200000202000002020000042
:103688002020000020200000202000002020000032
:10369800202000002020000020200000207c0000c6
:1036a8000d0a00000000000020200000202000007b
:1036b8002020000020200000207c00003d3d00006c
:1036c8003d3d00003d3d00003d3d00003d3d00000a
:1036d8003d3d00003d3d00003d3d00003d3d0000fa
:1036e8003d3d00003d3d00003d2b00003d3d0000fc
:1036f8003d3d00003d3d00003d3d00003d3d0000da
:103708003d3d00003d3d00003d3d00003d3d0000c9
:103718003d3d00003d3d00003d7c00000d0a0000dd
:1037280000000000202000002020000020200000d1
:1037380020200000207c0000202000002020000025
:103748002020000020200000202000002020000071
:103758002020000020200000202000002020000061
:1037680020200000207c00002020000020200000f5
:103778002020000020200000202000002020000041
:103788002020000020200000202000002020000031
:1037980020200000207c00000d0a0000000000002e
:1037a8002020000020200000202000002020000011
:1037b800207c0000204500004e54000052590000b3
:1037c80020410000584c000045200000434f0000f5
:1037d800554e000054530000202000002020000017
:1037e800207c000020200000202000002020000075
:1037f80020200000202000002020000020200000c1
:1038080020200000202000002020000020200000b0
:10381800207c00000d0a00000000000020200000ad
:10382800202000002020000020200000207c000034
:103838002020000020200000202000002020000080
:103848002020000020200000202000002020000070
:10385800202000002020000020200000207c000004
:103868002020000020200000202000002020000050
:103878002020000020200000202000002020000040
:10388800202000002020000020200000207c0000d4
:103898000d0a000000000000202000002020000089
:1038a8002020000020200000207c000020200000b4
:1038b8002020000020200000202000002020000000
:1038c80020200000202000002020000020200000f0
:1038d8002020000020200000207c00002020000084
:1038e80020200000202000002020000020200000d0
:1038f80020200000202000002020000020200000c0
:103908002020000020200000207c00000d0a00007c
:1039180000000000202000002020000020200000df
:1039280020200000203d00003d3d00003d3d0000fe
:103938003d3d00003d3d00003d3d00003d3d000097
:103948003d3d00003d3d00003d3d00003d3d000087
:103958003d3d00003d2b00003d3d00003d3d000089
:103968003d3d00003d3d00003d3d00003d3d000067
:103978003d3d00003d3d00003d3d00003d3d000057
:103988003d3d00003d3d00000d0a00000000000024
:1039980000c100008140000001c00000804100001b
:1039a80001c000008041000000c10000814000000b
:1039b80001c000008041000000c1000081400000fb
:1039c80000c100008140000001c0000080410000eb
:1039d80001c000008041000000c1000081400000db
:1039e80000c100008140000001c0000080410000cb
:1039f80000c100008140000001c0000080410000bb
:103a080001c000008041000000c1000081400000aa
:103a180001c000008041000000c10000814000009a
:103a280000c100008140000001c00000804100008a
:103a380000c100008140000001c00000804100007a
:103a480001c000008041000000c10000814000006a
:103a580000c100008140000001c00000804100005a
:103a680001c000008041000000c10000814000004a
:103a780001c000008041000000c10000814000003a
:103a880000c100008140000001c00000804100002a
:103a980001c000008041000000c10000814000001a
:103aa80000c100008140000001c00000804100000a
:103ab80000c100008140000001c0000080410000fa
:103ac80001c000008041000000c1000081400000ea
:103ad80000c100008140000001c0000080410000da
:103ae80001c000008041000000c1000081400000ca
:103af80001c000008041000000c1000081400000ba
:103b080000c100008140000001c0000080410000a9
:103b180000c100008140000001c000008041000099
:103b280001c000008041000000c100008140000089
:103b380001c000008041000000c100008140000079
:103b480000c100008140000001c000008041000069
:103b580001c000008041000000c100008140000059
:103b680000c100008140000001c000008041000049
:103b780000c100008140000001c000008041000039
:103b880001c000008041000000c100008140000029
:103b980000c00000c1010000c303000002c2000011
:103ba800c606000007c7000005c50000c4040000e1
:103bb800cc0c00000dcd00000fcf0000ce0e000091
:103bc8000aca0000cb0b0000c909000008c80000a1
:103bd800d818000019d900001bdb0000da1a000011
:103be8001ede0000df1f0000dd1d00001cdc0000e1
:103bf80014d40000d5150000d717000016d6000011
:103c0800d212000013d3000011d10000d010000020
:103c1800f030000031f1000033f30000f232000010
:103c280036f60000f7370000f535000034f40000e0
:103c38003cfc0000fd3d0000ff3f00003efe000090
:103c4800fa3a00003bfb000039f90000f8380000a0
:103c580028e80000e9290000eb2b00002aea000010
:103c6800ee2e00002fef00002ded0000ec2c0000e0
:103c7800e424000025e5000027e70000e626000010
:103c880022e20000e3230000e121000020e0000020
:103c9800a060000061a1000063a30000a262000010
:103ca80066a60000a7670000a565000064a40000e0
:103cb8006cac0000ad6d0000af6f00006eae000090
:103cc800aa6a00006bab000069a90000a8680000a0
:103cd80078b80000b9790000bb7b00007aba000010
:103ce800be7e00007fbf00007dbd0000bc7c0000e0
:103cf800b474000075b5000077b70000b676000010
:103d080072b20000b3730000b171000070b000001f
:103d1800509000009151000093530000529200000f
:103d280096560000579700005595000094540000df
:103d38009c5c00005d9d00005f9f00009e5e00008f
:103d48005a9a00009b5b000099590000589800009f
:103d580088480000498900004b8b00008a4a00000f
:103d68004e8e00008f4f00008d4d00004c8c0000df
:103d7800448400008545000087470000468600000f
:103d8800824200004383000041810000804000001f
:103d980012010000000200000200000000080000fc
:103da800d80400000a000000000100000102000021
:103db80000010000090200004300000002010000a9
:103dc80000c00000320900000400000000010000eb
:103dd800020200000100000005240000001000009d
:103de800010400002402000002050000240600006f
:103df8000001000005240000010000000107000088
:103e0800058100000308000000020000090400000a
:103e180001000000020a0000000000000007000086
:103e28000502000002400000000000000705000035
:103e380082020000400000000004000003090000a6
:103e480004340000034d0000006900000063000016
:103e580000720000006f00000063000000680000ae
:103e680000690000007000000020000000540000fd
:103e7800006500000063000000680000006e00009c
:103e8800006f0000006c0000006f00000067000079
:103e9800007900000020000000490000006e0000ca
:103ea80000630000002e00000034000003430000ff
:103eb8000044000000430000002000000052000001
:103ec80000530000002d0000003200000033000005
:103ed800003200000020000000450000006d0000d6
:103ee80000750000006c0000006100000074000014
:103ef80000690000006f0000006e00000020000054
:103f08000044000000650000006d0000006f000024
:103f18000000000003000000050000005c00000035
:103f28000900000002000000ff000000ff00000080
:103f3800070000000c0000000e0000001000000048
:103f48001200000014000000160000001800000015
:103f58001a0000001c0000001e00000020000000e5
:103f680022000000240000002600000028000000b5
:103f78002a0000002c0000002e0000003000000085
:103f88003200000034000000360000003800000055
:103f98003a0000003e00000040000000420000001f
:103fa8003c000000460000004400000048000000fb
:103fb8005f0000004a0000004c0000004e000000b6
:103fc800500000005200000054000000560000009d
:103fd800580000000400000006000000ff00000078
:103fe8000a000000ff000000ff000000ff000000c2
:103ff800ff0000000b0000000d0000000f00000093
:104008001100000013000000150000001700000058
:10401800190000001b0000001d0000001f00000028
:1040280021000000230000002500000027000000f8
:10403800290000002b0000002d0000002f000000c8
:104048003100000033000000350000003700000098
:10405800390000003d0000003f0000004100000062
:104068003b0000004500000043000000470000003e
:104078005e000000490000004b0000004d000000f9
:104088004f000000510000005300000055000000e0
:10409800570000002573000025730000002500006c
:1040a80073250000732500007300000025730000cd
:1040b8002225000073220000257300000053000031
:1040c800534400004143000020530000797300006e
:1040d800746500006d200000697300002074000002
:1040e800757200006e650000642000006f6e0000ad
:1040f8002025000063000000257300002025000033
:10410800630000004e7500006d62000065720000db
:104118002041000064640000656400002073000012
:104128007563000063650000737300006675000026
:104138006c6c0000792e000025630000004300002d
:104148004d4700004c0000002564000020250000b9
:10415800730000002564000020250000730a000099
:104168000000000000000000010100000102000042
:104178000201000002020000030300000404000022
:104188000505000006060000060200000206000001
:104198000601000001060000001f00001c1f0000af
:1041a8001e1f00001e1f00001f1e00001f1e000013
:1041b8001f00000000060000010b000002040000c0
:1041c80003040000040400000505000006040000c4
:1041d80001020000040800001020000040800000d8
:1041e800a1a00000a9a80000a5a40000adac000093
:020000040000fa
:1041f8000000fa0030b781000080fa0000000600d5
:104208000000fa00806e2300104078000080fa0059
:10421800000006000000fa00806e23008040eb00da
:10422800014878000080fa00000006000200fa0049
:104238000040eb00004f7800501a8100e60f500054
:1042480002003e001e4078009d003700814180003a
:1042580000002200008060000000e00005003a0035
:104268008141800000002400008060000000e00020
:1042780002003a001e4078009100370010c0b300d9
:10428800004f78003168a8003188a90031a8a8003b
:1042980031c8a9000000eb00801a8900c000200086
:1042a800701a89000000eb00c01a89000000eb00ba
:1042b800d01a89000000eb0020b789000000eb004d
:1042c80030b78900806e23008040eb0001487800f9
:1042d80078c8bf000080fb006c00b900800078003f
:1042e800a06e230000804000c1c8b30001487800d8
:1042f80078c8bf000080fb006c00b900800078001f
:10430800b06e23000080400080c0eb0001487800b8
:1043180078c8bf000080fb006c00b90080007800fe
:10432800c06e23000080400080c0eb000148780088
:1043380078c8bf000080fb006c00b90080007800de
:10434800d06e23000080400080c0eb000148780058
:1043580078c8bf000080fb006c00b90080007800be
:10436800e06e23000080400080c0eb000148780028
:1043780078c8bf000080fb006c00b900800078009e
:10438800f06e23000080400080c0eb0001487800f8
:1043980078c8bf000080fb006c00b900800078007e
:1043a800006f230000804000c1c8b30001487800b6
:1043b80078c8bf000080fb006c00b900800078005e
:1043c800106f23000080400080c0eb000148780097
:1043d80078c8bf000080fb006c00b900800078003e
:1043e800206f23000080400080c0eb000148780067
:1043f80078c8bf000080fb006c00b900800078001e
:10440800306f23000080400080c0eb000148780036
:1044180078c8bf000080fb006c00b90080007800fd
:10442800406f23000080400080c0eb000148780006
:1044380078c8bf000080fb006c00b90080007800dd
:10444800506f23000080400080c0eb0001487800d6
:1044580078c8bf000080fb006c00b90080007800bd
:10446800a06e230000804000900078000081e800e2
:1044780012017800640040009001780010c0b30079
:10448800fb55070078c8bf000080fb006c00b9002e
:1044980000007800e6004000a06e23000080400085
:1044a800900078000081e800120178006400400064
:1044b8009001780020c0b300ed5507001e40780039
:1044c8000080fa00000006000000fa000000eb007f
:1044d800501a8900c03422008040eb00014878005f
:1044e8001000200001002000901a8900a11a8900fc
:1044f8000000eb00c01a89000000eb00d01a890008
:104508000000eb0020b789000000eb0030b78900fd
:10451800806e23008040eb00014878000080fa009c
:10452800000006000000fa0070002000501a890000
:10453800c03422008040eb00014878003168a900af
:104548003188a80031a8a90031c8a8000080fa0065
:10455800000006001200fa00501a81008000eb00eb
:10456800d200200003002000820f5000838f5800e3
:1045780050023e00006001000d0037004700370080
:1045880083003700b9003700fc00370043013700cb
:104598004a02370044013700520137005d013700f5
:1045a80069013700f0013700fc01370011023700bc
:1045b8008d4c07008ce8b70031d4820050a52a0042
:1045c800808f50000400320031d48200a05a2500a8
:1045d800808f50001e003a0040d4820020b7890026
:1045e80050d4820030b7890030b781008000eb00da
:1045f800901a8900a11a8900901a8100a11a8100d5
:10460800000078000000e900914a07008ce8b70034
:104618000040eb00004f7800090037001e80fb00c7
:104628009e80fb00c2a825008100410091407800cf
:10463800000047000080e800014878001e4fe800ad
:104648001e407800ef4f5000f4ff3600100037008e
:104658000000eb0020b789000000eb0030b78900ac
:1046680030b781008000eb00901a8900a11a8900f8
:104678000000eb0040d48a000000eb0050d48a0010
:1046880050a52a0030d48a00154c07008ce8b700e2
:1046980050002000501a8900190237000040eb0032
:1046a800004f7800060037001e80fb00c2a82500d6
:1046b8008040eb0000004100014878001e4fe800f0
:1046c8001e407800ef4f5000f7ff3600901a810027
:1046d800a11a8100000078005d4a07008ce8b70045
:1046e8000040eb00004f7800090037001e80fb00f7
:1046f8009e80fb00c2a825008100410091407800ff
:10470800000047000080e800014878001e4fe800dc
:104718001e407800ef4f5000f4ff3600901a8100d9
:10472800a11a81000000780030b78900901a810032
:10473800a11a810061004000e0804800901a8900b9
:10474800a11a89000e80e80090407800a0cab30042
:1047580080cf500007003a00921a8100a31a810006
:10476800f0ff230001002000800f5100818f5900c5
:10477800d401340020002000501a8900f0ff2300e3
:1047880001002000901a8900a11a8900dc01370075
:104798000040eb00004f7800060037001e80fb0049
:1047a800c2a825008040eb000000410001487800c5
:1047b8001e4fe8001e407800ef4f5000f7ff36000c
:1047c800901a8100a11a810000007800204a070091
:1047d8008ce8b7000040eb00004f78000900370074
:1047e8001e80fb009e80fb00c2a8250081004100be
:1047f80091407800000047000080e80001487800f8
:104808001e4fe8001e407800ef4f5000f4ff3600be
:10481800901a8100a11a81000000780020b7890051
:10482800901a8100a11a810061005000e0805800b0
:10483800901a8900a11a89000e80e800904078003b
:10484800a0cab30080cf500005003a00901a81003a
:10485800a11a8100e00f5000e08f58009b013d0035
:1048680050002000501a8900a50137000040eb00d5
:10487800004f7800060037001e80fb00c2a8250004
:104888008040eb0000004100014878001e4fe8001e
:104898001e407800ef4f5000f7ff3600901a810055
:1048a800a11a810000007800e94907008ce8b700e8
:1048b8000040eb00004f7800090037001e80fb0025
:1048c8009e80fb00c2a8250081004100914078002d
:1048d800000047000080e800014878001e4fe8000b
:1048e8001e407800ef4f5000f4ff3600901a810008
:1048f800a11a81000000780030b78900901a810061
:10490800a11a810061005000e0805800901a8900c7
:10491800a11a89000e80e80090407800a0cab30070
:1049280080cf500007003a0040002000501a89004c
:104938001000200001002000901a8900a11a8900a7
:104948006f013700901a8100a11a8100e00f500012
:10495800e08f58005f013d0040002000501a890098
:104968001000200001002000901a8900a11a890077
:104978000000eb0030b78900610137000040eb0010
:10498800004f7800060037001e80fb00c2a82500f3
:104998008040eb0000004100014878001e4fe8000d
:1049a8001e407800ef4f5000f7ff3600901a810044
:1049b800a11a810000007800a54907008ce8b7001b
:1049c8000040eb00004f7800090037001e80fb0014
:1049d8009e80fb00c2a8250081004100914078001c
:1049e800000047000080e800014878001e4fe800fa
:1049f8001e407800ef4f5000f4ff3600901a8100f7
:104a0800a11a81000000780020b78900901a81005f
:104a1800a11a810061004000e0804800901a8900d6
:104a2800a11a89000e80e80090407800a0cab3005f
:104a380080cf500008003a0030b781008000e800bd
:104a4800f0ff23000080600030b78900500020008c
:104a5800501a89002a013700921a8100a31a81008e
:104a6800f0ff230001002000800f5100818f5900c2
:104a78001a01340030b781008000e800f0ff2300fd
:104a88000080600030b7890050002000501a89006b
:104a98000000eb0020b78900190137004413070014
:104aa800a0fe070016013700701a8100ec0f5000b5
:104ab80005003a0010002000e0ce8a00701a81003c
:104ac800501a89000e013700c11a8100d01a8100de
:104ad800808f50000301320080002000501a8900a6
:104ae80007013700fa100700e14f500006003a00ae
:104af80090002000501a8900c0342200a1c0b300e1
:104b080001487800fe003700a0002000501a8900f4
:104b1800fb003700154a07000004e00003003200dc
:104b280080002000501a8900f5003700c0342200a8
:104b3800104078000004e000ec003a0080002000fb
:104b4800501a8900ee003700d01107000004e00079
:104b580006003200b0002000501a8900c03422003c
:104b6800a1c0b30001487800e50037006035220095
:104b780010407800e14f500072003a0020b78100e1
:104b880040d48a0030b7810050d48a0041d48200d2
:104b980050d48200808f50000300310050a52a00b5
:104ba80030d48a0002003700a05a250030d48a0089
:104bb8000040eb00004f7800060037001e80fb0025
:104bc800c2a825008040eb000000410001487800a1
:104bd8001e4fe8001e407800ef4f5000f7ff3600e8
:104be80040d482001a4907008ce8b7000040eb0067
:104bf800004f7800090037001e80fb009e80fb00f4
:104c0800c2a82500810041009140780002312200ad
:104c180000004100014878001e4fe8001e4078005f
:104c2800ef4f5000f4ff36000040eb00004f7800d3
:104c3800060037001e80fb00c2a825008040eb005c
:104c480000004100014878001e4fe8001e4078002f
:104c5800ef4f5000f7ff360050d48200fc480700a1
:104c68008ce8b7000040eb00004f780009003700df
:104c78001e80fb009e80fb00c2a825008100410029
:104c8800914078000232220000004100014878007b
:104c98001e4fe8001e407800ef4f5000f4ff36002a
:104ca8000040eb00004f7800060037001e80fb0034
:104cb800c2a825008040eb000000410001487800b0
:104cc8001e4fe8001e407800ef4f5000f7ff3600f7
:104cd8000000eb00de4807008ce8b7000040eb005e
:104ce800004f7800090037001e80fb009e80fb0003
:104cf800c2a82500810041009140780002332200bb
:104d080000004100014878001e4fe8001e4078006e
:104d1800ef4f5000f4ff3600714a07008ce8b700e7
:104d2800603522008040eb0001487800b000200088
:104d3800501a8900c0342200a1c0b300014878008d
:104d48006f00370070002000501a8900c03422001c
:104d58008040eb0001487800603522008040eb007d
:104d68000148780066003700804907000004e00029
:104d780003003200a0002000501a890060003700ac
:104d8800c0342200104078000004e00059003a00c6
:104d9800a0002000501a89005900370010c0b30045
:104da80082e8b700801a8100c64707008e00e80035
:104db800804878000e00e80010407800e14f50006d
:104dc80006003a00f04480000000e00003003a00ca
:104dd800801a81000000e800801a8900d0002000b5
:104de800501a8900c0342200a1c0b30001487800dd
:104df800430037005d4907000004e00004003a0062
:104e0800c0342200104078000004e0003b003a0063
:104e1800801a8100e30f500003003e00c00020000c
:104e2800501a8900360037003168a9003188a80077
:104e380031a8a90031c8a8000000eb0020b78900fc
:104e48000000eb0030b7890030b781008000eb002c
:104e5800901a8900a11a89000000eb0040d48a004a
:104e68000000eb0050d48a000000eb0030d48a0028
:104e78001b4a07008ce8b700dd3e070060002000f1
:104e8800e0ce8a0010002000f0ce8a0070002000da
:104e9800501a8900c03422008040eb000148780095
:104ea80060002000701a89006007200022000700b7
:104eb8001300370000000000110037000000000058
:104ec8000f003700000000000d0037000000000050
:104ed8000b00370000000000090037000000000048
:104ee8000700370000000000050037000000000040
:104ef8000300370000000000010037000000000038
:104f08000080fa00000006000000fa00c034220009
:104f1800104078000004e00005003200c034220090
:104f2800104078008040e900c03422000148780031
:104f38000080fa00000006000200fa00000f780066
:104f4800d01a81008000e800401f2000000178008e
:104f5800110009008280d8008000fd00d01a890065
:104f6800d01a81006a00b90080007800c03522009c
:104f78000080400080c0eb0001487800d01a810012
:104f88009e007800014178006a00b900800078002e
:104f9800c0352200008040000000e8000248780088
:104fa800d01a81006a00b90080007800e03522003c
:104fb800008040008000eb0001087800d01a8100d2
:104fc8006a00b900800078000036220000804000a6
:104fd8008000eb0001087800d01a81000000e8008a
:104fe8006a00b90080007800803522000080400007
:104ff8008000eb0001087800d01a81006a00b9002f
:105008008000780040362200008040008000eb00dd
:10501800010878000080fa00000006000e00fa007f
:105028006a014700004978006c00470001087800d1
:105038000040eb00004f78006a00470010407800fd
:10504800e14f5000040032006a0047001040780029
:10505800e24f50000e013a008000eb000e80e8009d
:10506800010878008000eb00640047000108780020
:105078008000eb0066004700010878008000eb0024
:1050880068004700010878006a004700104078006f
:10509800e14f500077003a0078c8bf008080fb00dd
:1050a800000520000088b90000007800d004b00096
:1050b80001912100008040009040780050c5b30065
:1050c80080cf50005b003a0078c8bf008080fb00aa
:1050d800000520000088b900000078006800400042
:1050e8000191210000804000904078000e80e80087
:1050f8000148780078c8bf008080fb0000052000c8
:105108000088b90000007800690040000191210082
:105118000080400090407800630047000148780014
:1051280078c8bf008080fb00000520000088b90017
:10513800000078006a0040000191210000804000d2
:1051480090407800640047000148780078c8bf00a4
:105158008080fb00000520000088b900000078006e
:105168006b004000019121000080400090407800d1
:10517800650047000148780078c8bf008080fb00c0
:10518800000520000088b900000078006c0040008d
:10519800019121000080400090407800660047009f
:1051a8000148780078c8bf008080fb000005200017
:1051b8000088b900000078006d00400001912100ce
:1051c8000080400090407800670047000148780060
:1051d80078c8bf008080fb00000520000088b90067
:1051e800000078006e00400001912100008040001e
:1051f80090407800680047000148780078c8bf00f0
:105208008080fb00000520000088b90000007800bd
:105218006f0040000191210000804000904078001c
:1052280069004700014878003184200091407800e7
:10523800014f780078c8bf008080fb00000520007f
:105248000088b90000007800d004b0000191210066
:105258000080400090407800a0cab30080cf500082
:105268007a003a003184200091407800014f78009c
:105278007600370078c8bf008080fb00000520005a
:105288000088b90000007800d004b00001e12100d6
:10529800008040009040780050c5b30080cf500097
:1052a8005b003a0078c8bf008080fb000005200042
:1052b8000088b900000078006800400001e1210082
:1052c80000804000904078000e80e8000148780097
:1052d80078c8bf008080fb00000520000088b90066
:1052e800000078006900400001e1210000804000d2
:1052f80090407800630047000148780078c8bf00f4
:105308008080fb00000520000088b90000007800bc
:105318006a00400001e121000080400090407800d0
:10532800640047000148780078c8bf008080fb000f
:10533800000520000088b900000078006b004000dc
:1053480001e121000080400090407800650047009e
:105358000148780078c8bf008080fb000005200065
:105368000088b900000078006c00400001e12100cd
:1053780000804000904078006600470001487800af
:1053880078c8bf008080fb00000520000088b900b5
:10539800000078006d00400001e12100008040001d
:1053a80090407800670047000148780078c8bf003f
:1053b8008080fb00000520000088b900000078000c
:1053c8006e00400001e1210000804000904078001c
:1053d800680047000148780078c8bf008080fb005b
:1053e800000520000088b900000078006f00400028
:1053f80001e12100008040009040780069004700ea
:10540800014878004184200091407800014f7800dd
:1054180078c8bf008080fb00000520000088b90024
:1054280000007800d004b00001e1210000804000b5
:1054380090407800a0cab30080cf500003003a0023
:105448004184200091407800014f780068004700af
:10545800900178006600470010017800640047005a
:10546800900078000e80e800100078008302780031
:105478000202780081017800000178006c00470082
:10548800900078001e4078000e0b070001003700de
:10549800000000000080fa00000006000e00fa007c
:1054a8006a014700004978006c004700010878004d
:1054b8006a00470010407800e14f500004003200b5
:1054c8006a00470010407800e24f5000fa0a3a009c
:1054d8008000eb000e80e800010878008000eb00f7
:1054e80064004700010878008000eb006600470070
:1054f800010878008000eb00680047000108780088
:105508006a00470010407800e14f50006d053a00ee
:10551800809a2500104078000080fb00cf80de00d4
:10552800e200200003002000820f5000838f580003
:105538005f053e00006001000e00370024003700c0
:105548007c003700d40037009901370098013700f4
:105558009701370037023700fc0237008e04370006
:105568008d043700bf033700be033700bd03370083
:10557800bc03370078c8bf008080fb00000520000e
:105588000088b900000078005003b00001912100a4
:1055980000804000904078000e80e80001487800c4
:1055a80078c8bf008080fb00000520000088b90093
:1055b800000078006003b0000191210000804000e5
:1055c80090407800630047000148780039053700ab
:1055d80078c8bf008080fb00000520000088b90063
:1055e800000078005003b0000191210000804000c5
:1055f800904078000e80e8000148780078c8bf0025
:105608008080fb00000520000088b90000007800b9
:105618006003b000019121000080400090407800b4
:10562800630047000148780078c8bf008080fb000d
:10563800000520000088b90000007800d003b00001
:1056480001912100008040009040780064004700ec
:105658000148780078c8bf008080fb000005200062
:105668000088b90000007800e003b0000191210033
:1056780000804000904078006500470001487800ad
:1056880078c8bf008080fb00000520000088b900b2
:10569800000078007003b0000191210000804000f4
:1056a80090407800660047000148780078c8bf003d
:1056b8008080fb00000520000088b9000000780009
:1056c8008003b000019121000080400090407800e4
:1056d800670047000148780078c8bf008080fb0059
:1056e800000520000088b90000007800f003b00031
:1056f8000191210000804000904078006800470038
:105708000148780078c8bf008080fb0000052000b1
:105718000088b900000078000004b0000191210061
:1057280000804000904078006900470001487800f8
:10573800e004370078c8bf008080fb000005200027
:105748000088b900000078005002b00001912100e3
:1057580000804000904078000e80e8000148780002
:1057680078c8bf008080fb00000520000088b900d1
:10577800000078006002b000019121000080400024
:1057880090407800630047000148780078c8bf005f
:105798008080fb00000520000088b9000000780028
:1057a800d002b000019121000080400090407800b4
:1057b800640047000148780078c8bf008080fb007b
:1057c800000520000088b90000007800e002b00061
:1057d800019121000080400090407800650047005a
:1057e8000148780078c8bf008080fb0000052000d1
:1057f8000088b900000078007002b0000191210013
:10580800008040009040780066004700014878001a
:1058180078c8bf008080fb00000520000088b90020
:10582800000078008002b000019121000080400053
:1058380090407800670047000148780078c8bf00aa
:105848008080fb00000520000088b9000000780077
:10585800f002b000019121000080400090407800e3
:10586800680047000148780078c8bf008080fb00c6
:10587800000520000088b900000078000003b0008f
:1058880001912100008040009040780069004700a5
:1058980001487800870437006c00470090007800c2
:1058a800a0072000808f50000f0032006c004700d6
:1058b8009000780080072000808f50000a00320096
:1058c8006c00470090007800b0072000808f5000df
:1058d800050032006c004700900078009007200017
:1058e800808f500059003a0078c8bf008080fb00c4
:1058f800000520000088b900000078007002b000a0
:105908000191210000804000904078000e80e8005e
:105918000148780078c8bf008080fb00000520009f
:105928000088b900000078008002b00001912100d1
:1059380000804000904078006300470001487800ec
:1059480078c8bf008080fb00000520000088b900ef
:10595800000078005002b000019121000080400052
:1059680090407800640047000148780078c8bf007c
:105978008080fb00000520000088b9000000780046
:105988006002b00001912100008040009040780042
:10599800650047000148780078c8bf008080fb0098
:1059a800000520000088b900000078005003b0000e
:1059b8000191210000804000904078006600470077
:1059c8000148780078c8bf008080fb0000052000ef
:1059d8000088b900000078006003b0000191210040
:1059e8000080400090407800670047000148780038
:1059f80078c8bf008080fb00000520000088b9003f
:105a0800000078007003b000019121000080400080
:105a180090407800680047000148780078c8bf00c7
:105a28008080fb00000520000088b9000000780095
:105a38008003b00001912100008040009040780070
:105a480069004700014878001a04370078c8bf0089
:105a58008080fb00000520000088b9000000780065
:105a6800f002b000019121000080400090407800d1
:105a78000e80e8000148780078c8bf008080fb00ed
:105a8800000520000088b900000078000003b0007d
:105a98000191210000804000904078006300470099
:105aa8000148780078c8bf008080fb00000520000e
:105ab8000088b90000007800d002b00001912100f0
:105ac800008040009040780064004700014878005a
:105ad80078c8bf008080fb00000520000088b9005e
:105ae80000007800e002b000019121000080400031
:105af80090407800650047000148780078c8bf00ea
:105b08008080fb00000520000088b90000007800b4
:105b1800d003b0000191210000804000904078003f
:105b2800660047000148780078c8bf008080fb0005
:105b3800000520000088b90000007800e003b000ec
:105b480001912100008040009040780067004700e4
:105b58000148780078c8bf008080fb00000520005d
:105b68000088b90000007800f003b000019121001e
:105b780000804000904078006800470001487800a5
:105b880078c8bf008080fb00000520000088b900ad
:105b9800000078000004b00001912100008040005e
:105ba800904078006900470001487800c103370039
:105bb8006c00470090007800a0072000808f5000fc
:105bc8000f0032006c00470090007800800720002a
:105bd800808f50000a0032006c0047009000780067
:105be800b0072000808f5000050032006c0047008d
:105bf8009000780090072000808f500043003a0002
:105c080078c8bf008080fb00000520000088b9002c
:105c1800000078005002b00001912100008040008f
:105c2800904078000e80e8000148780078c8bf00ee
:105c38008080fb00000520000088b9000000780083
:105c48006002b0000191210000804000904078007f
:105c5800630047000148780078c8bf008080fb00d7
:105c6800000520000088b900000078007002b0002c
:105c780001912100008040009040780064004700b6
:105c88000148780078c8bf008080fb00000520002c
:105c98000088b900000078008002b000019121005e
:105ca8000080400090407800650047000148780077
:105cb80078c8bf008080fb00000520000088b9007c
:105cc800000078009002b00001912100008040009f
:105cd80090407800660047000148780078c8bf0007
:105ce8008080fb00000520000088b90000007800d3
:105cf800a002b0000191210000804000904078008f
:105d080067004700014878004200370078c8bf00a4
:105d18008080fb00000520000088b90000007800a2
:105d2800b002b0000191210000804000904078004e
:105d38000e80e8000148780078c8bf008080fb002a
:105d4800000520000088b90000007800c002b000fb
:105d580001912100008040009040780063004700d6
:105d68000148780078c8bf008080fb00000520004b
:105d78000088b90000007800d002b000019121002d
:105d88000080400090407800640047000148780097
:105d980078c8bf008080fb00000520000088b9009b
:105da80000007800e002b00001912100008040006e
:105db80090407800650047000148780078c8bf0027
:105dc8008080fb00000520000088b90000007800f2
:105dd800f002b0000191210000804000904078005e
:105de800660047000148780078c8bf008080fb0043
:105df800000520000088b900000078000003b0000a
:105e08000191210000804000904078006700470021
:105e1800014878006c0047001000780000407800c6
:105e28000080fb00e80040006c0047000108780093
:105e3800200337006c00470090007800a00720007e
:105e4800808f50000f0032006c00470090007800ef
:105e580080072000808f50000a0032006c00470045
:105e680090007800b0072000808f500005003200b5
