:1000000000020400000000000000000000000000EA
:1000100000000000000000000000000000000000E0
:1000200000000000000000000000000000000000D0
:1000300000000000000000000000000000000000C0
:1000400000000000000000000000000000000000B0
:1000500000000000000000000000000000000000A0
:100060000000000000000000000000000000000090
:100070000000000000000000000000000000000080
:100080000000000000000000000000000000000070
:100090000000000000000000000000000000000060
:1000A0000000000000000000000000000000000050
:1000B0000000000000000000000000000000000040
:1000C0000000000000000000000000000000000030
:1000D0000000000000000000000000000000000020
:1000E0000000000000000000000000000000000010
:1000F0000000000000000000000000000000000000
:1001000000000000000000000000000000000000EF
:1001100000000000000000000000000000000000DF
:1001200000000000000000000000000000000000CF
:1001300000000000000000000000000000000000BF
:1001400000000000000000000000000000000000AF
:10015000000000000000000000000000000000009F
:10016000000000000000000000000000000000008F
:10017000000000000000000000000000000000007F
:10018000000000000000000000000000000000006F
:10019000000000000000000000000000000000005F
:1001A000000000000000000000000000000000004F
:1001B000000000000000000000000000000000003F
:1001C000000000000000000000000000000000002F
:1001D000000000000000000000000000000000001F
:1001E000000000000000000000000000000000000F
:1001F00000000000000000000000000000000000FF
:10020000FFFFFF00FFFFFF000000000000000000F4
:1002100000000000000000000000000000000000DE
:1002200000000000000000000000000000000000CE
:1002300000000000000000000000000000000000BE
:1002400000000000000000000000000000000000AE
:10025000000000000000000000000000000000009E
:10026000000000000000000000000000000000008E
:10027000000000000000000000000000000000007E
:10028000000000000000000000000000000000006E
:10029000000000000000000000000000000000005E
:1002A000000000000000000000000000000000004E
:1002B000000000000000000000000000000000003E
:1002C000000000000000000000000000000000002E
:1002D000000000000000000000000000000000001E
:1002E000000000000000000000000000000000000E
:1002F00000000000000000000000000000000000FE
:1003000000000000000000000000000000000000ED
:1003100000000000000000000000000000000000DD
:1003200000000000000000000000000000000000CD
:1003300000000000000000000000000000000000BD
:1003400000000000000000000000000000000000AD
:10035000000000000000000000000000000000009D
:10036000000000000000000000000000000000008D
:10037000000000000000000000000000000000007D
:10038000000000000000000000000000000000006D
:10039000000000000000000000000000000000005D
:1003A000000000000000000000000000000000004D
:1003B000000000000000000000000000000000003D
:1003C000000000000000000000000000000000002D
:1003D000000000000000000000000000000000001D
:1003E000000000000000000000000000000000000D
:1003F00000000000000000000000000000000000FD
:100400000FC325000EFF27000E018800000000002A
:10041000000020000000E000020032000001200087
:100420002002880014000700A40007000000E0007C
:1004300003003A00C020270001002000020037001E
:100440000000200001002000810F70000100320038
:1004500014000700000020000000E000020032004D
:1004600000000200000000001499020000000000DB
:100470000040DA000000FE004440A90000A0200077
:100480000000E000030032000020200090018800FE
:100490004440A800000006008A1F78008B1F7800E7
:1004A00000000600A1028800800478000000EB0034
:1004B0001F003700E284440054A0B4009905BA003C
:1004C000E284440054A0B4009906BA00E2844400D7
:1004D00054A0B4000006EB00476FDE00FD07B20039
:1004E000AE018800636CE10003003A00EAFF0700F8
:1004F0000000EB000E003700606CE10008003A00DD
:10050000004DEB000A05E800020039003420EC0041
:100510000AF0A0008B05E900F9FF3E000400370057
:100520006168E100010032000086EB000B0007006B
:1005300019C7BA001905BA000E04E00003003A001A
:100540000A00E000DBFF3A0000000600FE07B200F0
:10055000AE0288008A047800F5FF37000CD0A300B3
:10056000E20F4D001C00390089027800354DBA00B9
:100570000A05E800020039003420EC000AF0A0006F
:100580008B05E9000F003200254DBA000A05E8008E
:10059000020039003420EC000AF0A0008B05E900CD
:1005A000080032000C00E0000600320015CDBA0051
:1005B0000A05E800020039003420EC000AF0A0002F
:1005C0008B05E9008984E80054A0B4000B00E0002A
:1005D000E2FF3A00000006009902BA00055D7800CB
:1005E0008B05E900F7FF3200C82ADE00055D7800C0
:1005F0008B05E900F3FF32000C00E000F1FF320050
:1006000019DDBA00EEFF37000A00FA00E20F5000D1
:100610001F003E00E0D88200E10F500006003200CB
:1006200080232000452320002323200004232000D2
:100630000000E00004003A00802220004522200053
:1006400023222000042220000600280094036300D7
:1006500002003A0007087800140A730013A8A300E8
:1006600001003A0013A0A000020078000500370046
:100670001388A300FEFF32003102FB00840A7800D9
:100680000000E9000000E000F9FF3A000800370030
:1006900033002000B3BF9F00C0BF9F00D1BF9F00A9
:1006A000E2BF9F006A805700220407006FB99700DD
:1006B000020078000080FA0000000600000005003B
:1006C0005400F800A1028800800278006200400017
:1006D000E08048003549BA003204E0000410A70069
:1006E000100032008301E9000E0032002549BA00F3
:1006F0003204E0000410A7000A0032008301E90080
:10070000080032000408A300EEFF320015C9BA0049
:100710003204E0000410A700020032008301E90067
:10072000E8FF3A005400F900000006006022B8001B
:10073000060220000000D0008180D2000482D20096
:100740008582D2000000A0000202520083825A007B
:10075000030031000202420083824A000000A1002F
:100760000603E900F3FF3A00000006000C00FA005F
:10077000889FBE0000047800F0FF2700D0BF9F00D4
:100780008004EB0099BF9F0088BF9F00A8BF9F0017
:10079000200C2000B0BF9F0078815700CFB0970099
:1007A00070805700100007000FB8970009487800C4
:1007B0008FB89700088050004F04BE000080FA00F8
:1007C00000000600D0019000028151004240A900C3
:1007D0000300340010017800014978000208E800A5
:1007E0000100780000000600F6874700889FBE00E1
:1007F0008A9FBE008C9FBE008E1F78000005780087
:10080000A1B79F00020778008004EB009002370038
:10081000AFB097008100E800A1B79F0051C2B300BC
:10082000814F500003003A00AFB097000004EB0086
:1008300011003700BA0090000000FB000168A3001F
:100840000700320009017800800078000A00780073
:10085000DCFF07000000E00005003A007C023700E2
:100860008A00780086020700E10F4000780232001B
:100870008904E800760237000100780031417800F1
:10088000D3C2B300834F51000C00320007003C007C
:10089000EDC15100834F51000A003200EBC141000D
:1008A000834F51000D003A000800370003C3B30026
:1008B000834F510009003A00060037000830A000BD
:1008C000EDFF37000800A000EBFF37000810A00084
:1008D000E9FF37000820A000E7FF37000818A30051
:1008E000010032000800A1000838A3000100320016
:1008F0000820A1008200FB000103B100E98F500035
:100900000C003E00000178008000EB006A08B9008E
:10091000B201FB000303B1008080410002007800B7
:100920009201FB000303B100E98F5100F7FF36008D
:10093000060037008000EB00A3C2B300834F5100D4
:1009400002003A00CE0078000000E8008005EB00CD
:10095000E2C2B300904F110009003A0008E0A00085
:1009600064415100D04F11000300320000017800B3
:100970000102780006003700CE0578000000E8008C
:1009800000017800090037006A58B90080854100ED
:1009900002007800B201FB000303B100E98F5100AF
:1009A000F9FF360084007800F5FF37003240780008
:1009B000A2B79F00C3C6B300834F5000250032008A
:1009C0000F003C0032C6B300824F50008800320056
:1009D00004003C000004E000220232006B415100A0
:1009E0000F00370042C6B300824F5000170032009C
:1009F00065414100824F500094003A0013003700D7
:100A000032C7B300824F50001B00320007003C0089
:100A100064415100824F5000100032000241E80052
:100A2000824F500089003A000F00370052C7B300D0
:100A3000824F50008A00320063414100824F5000D3
:100A400082003A00E0DF9F0009003700E0DF9F00EE
:100A5000850037000840A000D4FF3700E0DF9F008A
:100A60000860A00080003700E0DF9F000850A00071
:100A70000870A0007C003700E0DF9F004E00780087
:100A8000000678000000E00001003A00AC97250065
:100A90000C0178000000EB00010037000000E800C6
:100AA000E24178000304E000FCFF3A008006780091
:100AB0000B00E000030032008D8F55000100310073
:100AC0008B0678008005EB008D8F5000010036000A
:100AD0008D855000680464002A003A001100370038
:100AE0003A0090000068A300070032000901780076
:100AF000010220000A00780032FF07000000E00039
:100B000006003A00060037008A0078000002200044
:100B1000DB010700E10F4000010032008904E8001A
:100B20008B05E9000B00E000EDFF3A008085EB004B
:100B3000140037003A0090000068A300090032005A
:100B40000C007800B000FB00000678000901780076
:100B50000A0078001BFF07000000E00008003A00D0
:100B6000080037008C0078003100FB000106780097
:100B70008A007800C2010700E10F40000100320046
:100B80008904E8000D0078008006E9000000E0001C
:100B9000E8FF3A000800E000AD0132001100370024
:100BA0003A0090000068A3000700320009017800B5
:100BB000010220000A00780002FF07000000E000A8
:100BC00006003A00060037008A0078000002200084
:100BD000AB010700E10F4000010032008904E8008A
:100BE0008B05E9000B00E000EDFF3A0098013700AB
:100BF0004E017800CF91DE00C81ADE004818DD00F3
:100C00004812DE0004027000E4DF9F000848A300E1
:100C1000080032000404E00006003200E14F420008
:100C200004003200F4DF9F0082E79F002D002000C7
:100C300002003700F2DF9F001D002000E2FD2F00C0
:100C40000F0141000206E80099FF3700E0DF9F0036
:100C5000ECFD2F000F0646001D00200094FF37001A
:100C6000E0DF9F00080CB30008017800020CB2001E
:100C7000700064000200E0000D003A000000E00097
:100C8000020032004E06BE00020037004E06780019
:100C9000CFE6DE00E00F5600E08F5E000A003D0068
:100CA0003800B30060061600E0861E00060037001C
:100CB0000000E000020032004E06BE0002003700D5
:100CC0004E0678008006EB000B00E00005003A00BD
:100CD0008C8576000BF0A7008B05EA008B05E900F8
:100CE000CF5DDE0088017800030CB200E3B79F00FF
:100CF00000042000808F51002300320003003C00DC
:100D00000300E000080032002D003700000820003A
:100D10006FB29700800F52000D003200000C2000CF
:100D2000800F520026003A002298250010C0B30020
:100D300064014100B20F5600A28F5E001F0039000F
:100D40000040E800EA4F5000F9FF3A001B0037006E
:100D500010C0B3000201200003002000820F5600E3
:100D6000838F5E0015003900441ADD00CC11DE00CF
:100D7000830172004411DD000040E800E84F50009C
:100D8000F6FF3A000D00370010C0B30082002000CB
:100D900003002000820F5600838F5E000700390099
:100DA000431ADD00CD11DE00830172004311DD0026
:100DB0000040E800EB4F5000F6FF3A00E0DF9F00F4
:100DC0006FD997000200FB008B0F500002003D001E
:100DD000EBDF9F0003003700808F550001003D00CE
:100DE000800578000100E000030032006300640029
:100DF000010032008100E90008E8A300050032008C
:100E00008B8F5000020034008B80500001003700AF
:100E10008000EB00EFD997000300FB000002EB001D
:100E2000D4B79F00808F5000020034000080500033
:100E3000D0B79F000828A300400032006101640081
:100E40000818A3000F0032003A0090000068A300C9
:100E500006003200B10220000200E0000100320072
:100E60008180E800090178000D003700B002200001
:100E70000200E000010032000080E8008A007800F3
:100E80000E0037000200E000100032003A0090002F
:100E90000068A30007003200090178000102200069
:100EA0000A00780047FE07000000E00006003A0054
:100EB000060037008A00780000022000F0000700DA
:100EC000E10F4000010032008904E8005FB09700A4
:100ED0000000E0005A003200BCB79F00CDB79F0071
:100EE000800678003A0090000068A30007003200F6
:100EF00009017800010320000A00780031FE070094
:100F00000000E00006003A00060037008A00780082
:100F100000032000DA000700E10F4000010032006A
:100F20008904E8008D06E900EEFF3A00DDB79F0076
:100F30003FB69700CFB6970041003700DFB197006A
:100F40000300E0001A0032000838A30018003A003D
:100F5000BCB79F00CDB79F00830678003A00900091
:100F60000068A30007003200090178000102200098
:100F70000A00780013FE07000000E00006003A00B7
:100F8000060037008A00780000022000BC0007003D
:100F9000E10F4000010032008904E8008D06E900FD
:100FA000EEFF3A00DDB79F003FB69700CFB697003F
:100FB000610164000818A3000F0032003A0090009D
:100FC0000068A30006003200B10220000200E00029
:100FD000010032008180E800090178000D0037002F
:100FE000B00220000200E000010032000080E800B2
:100FF0008A0078000E0037000200E0001000320086
:101000003A0090000068A300070032000901780050
:10101000010220000A007800EAFD07000000E0005D
:1010200006003A00060037008A007800000220001F
:1010300093000700E10F4000010032008904E8003E
:101040000B03E9006330B90000017800B2B79F00DC
:101050004233DD0020982500000343008E01780014
:1010600093B79F0008077800060478005C003700FB
:101070008B05E900000420006FB29700800F52003A
:101080003800320003003C000400E0000800320099
:101090003E00370000082000EFB09700808F50001E
:1010A00020003200000C2000808F500037003A00F2
:1010B0000E48A300100032001802BE000401BE005A
:1010C0000C00BE00F4B79F0085BF9F0097FD07008E
:1010D000E0DF9F000000FB00CF80DE007FB29700C2
:1010E0008FBA97000401BE00A60107000006560053
:1010F00081865E00070037001801780011000900A2
:101100000286D800A2002000110009000280D80049
:10111000E1DF9F006FD997000243B000E2DF9F003C
:101120001A003700909625000E58A30001003200E7
:101130008095250021982500810054000C01BE00F7
:101140008100E900030033008301D1000281D30054
:10115000FBFF3700EF006100E0C07800E1DF9F0097
:101160000A0037000C00BE00BFB197008301E90000
:10117000030033008100D1000080D300FBFF370063
:10118000674060000043B000E0DF9F00BA009000BD
:101190006FDA97000400FB000168A300070032002B
:1011A00009017800800078000A00780085FD0700BA
:1011B0000000E00005003A00050037008A007800D2
:1011C0002F000700E10F4000010032008904E80011
:1011D0003FB0970063005000B0B79F006404540014
:1011E0000B00E000A2FF3A000E0478001FB7970042
:1011F0000838A30016003200DFB097000100E000BD
:1012000013003400010478003A0090000068A30045
:101210000700320009017800010220000A0078006E
:1012200068FD07000000E00006003A0006003700F5
:101230008A0078000002200011000700E10F400042
:10124000010032008904E8000804E900EEFF3A00DA
:101250002FB1970012407800E0DF9F000004E0000B
:101260006BFD3A00090078004F0778004F06BE007A
:101270004F05BE004F04BE006F01B1000000060024
:10128000889FBE0001047800B80090008084EB00C5
:101290000118A3003A003200180190000198A30041
:1012A00002003A000200E00035003A000190A00080
:1012B0003104980080047800F90FB2000200E000C9
:1012C00002003A0028009000000C7800EA8F5400D9
:1012D00005003A000178A30003003A008800780076
:1012E000D0002000E6FF070018009000D800900012
:1012F000810F50000B0032000000E800100498003D
:101300001800780009487800000CE80011C0B3000C
:1013100020B1250001487800EA8F540018003A00F7
:10132000050037008800780009407800C2000700F7
:101330008004780012003700380090000088A30075
:101340000F00320018019000A800900048009000A3
:10135000ADFC070098009000810F5000040032009F
:10136000380090000003B300300498008084EB0044
:101370000000EB001004980028009000000C78009A
:10138000090078004F04BE000000060080017800CC
:1013900002003700B15978000201E9000200E000C4
:1013A000FCFF3A00000006008001780002003700D0
:1013B000815978000201E9000200E000FCFF3A00D8
:1013C00000000600800178000219200011000900C9
:1013D0008281D8008000FD0000017800110020000B
:1013E0000200E0000A003200638161008000EB002F
:1013F00007003A0042062000110009008281D8004F
:1014000001F0A7008100EA008100EA00CF08DE00B9
:10141000010078000000060011BF20000180B90023
:1014200012442F0000004100420620001100090074
:101430000280D80000000600881F780000047800B1
:101440004242DE0003192000110009000384D80085
:10145000000178008001EB0002014200E0814900B8
:10146000D61620000643B8000202430083824B00D8
:1014700042062000110009000284D8008000FD000F
:1014800001005200E0805A004F047800000006007E
:10149000889FBE008A9FBE000004BE00020578003F
:1014A0000900E800DCFF07000A0540008005EB00AA
:1014B000E18F54000A00360008007800C1FF0700E1
:1014C00022002000030020000000E00002003200A3
:1014D00012002000030020000205550083855D00F6
:1014E0000800E900D4FF07000000450081804D009E
:1014F0004F05BE004F04BE0000000600889FBE00DE
:101500008A9FBE008C9FBE0000047800D804900023
:10151000A3FB2F00898141000080EB008080EB005D
:10152000E2102000828F510032003E00C076200081
:101530000080440038019000C8009000D4FF0700EC
:101540000006BE00120020008000EB00207B20007F
:10155000CFFF07000005560081855E007200200065
:10156000030020000A00BE00740007006400400071
:10157000E080480072002000030020006F00070098
:1015800060049800B076200000804400AAFF0700A5
:101590000C06E900000656007C0498008201200039
:1015A000030020000A00BE0076000700280190001A
:1015B000CF91DE000000410081804900C20320007D
:1015C000030020006F00070018019000CF91DE009B
:1015D0000000410081804900C20320000300200078
:1015E0006800070018017800CF91DE00000041007C
:1015F000818049004F06BE004F05BE004F04BE006B
:1016000000000600B041780031C1510002003A00EC
:101610000304E000FBFF3A000200FB0000000600AC
:10162000800078003104E000FEFF3A000080EA000C
:1016300000804000000006000200FA00889FBE0003
:10164000A0FF9F0001047800380090000068A3000C
:1016500033003A00E200600005003A000003B300E6
:1016600030049800110498000080EB002E00370031
:10167000D80490000900E00006003A0012002000A3
:10168000E680570048009000DFFB0700190498002F
:1016900023003700A80090000100E00008003A0095
:1016A00051B1250021049800010C78002100200090
:1016B00051049800110498000030A00030049800F4
:1016C00018019000A800900048009000CEFB070091
:1016D000280090008080EB0011049800AFF897007C
:1016E00001487800000CE8002FF89700EA4F5000FE
:1016F0000B003A00380090000088A3000800320078
:1017000018019000A800900048009000BEFB070060
:101710000000EB0010049800A8009000010C780075
:10172000AFF897000100FB004F04BE000080FA00F4
:101730000000060000C0DA0000000600811F7800EB
:101740000100E00002003D0060001000E080180091
:101750000300E00002003D0060011100E08119007B
:10176000050007004F00E00002003B006000100091
:10177000E080180000000600ECFB07000400BE003B
:1017800000000600020AB900001BB9000200B80000
:10179000810042008100430000000600202000007C
:1017A0002020000020200000202000002020000039
:1017B0002020000020200000202000002020000029
:1017C0002020000020200000202000002020000019
:1017D0002020000020200000202000002020000009
:1017E00020200000202000002020000020200000F9
:1017F0002020000020200000202000000D0A000012
:101800000D0A00000D0A00000D0A00000D0A00007C
:101810000000000000000000202000002020000048
:1018200020200000202000002020000020200000B8
:1018300020200000202000002020000020200000A8
:10184000202000002020000020200000544900003B
:101850004D45000020430000484100005254000064
:101860002020000020200000202000002020000078
:101870002020000020200000202000002020000068
:101880002020000020200000202000000D0A000081
:101890000000000020200000202000002020000088
:1018A0002020000020200000202000002020000038
:1018B0002020000020200000202000002020000028
:1018C00020200000202000002D2D00002D2D0000E4
:1018D0002D2D00002D2D00002D2D000020200000BA
:1018E00020200000202000002020000020200000F8
:1018F00020200000202000002020000020200000E8
:1019000020200000202000000D0A00000000000040
:1019100020200000202000002020000020200000C7
:1019200020200000444900004749000054410000C5
:101930004C200000415800004C45000020430000AE
:101940004F5500004E540000455200002053000047
:1019500053440000414300002D470000333600008F
:101960002020000020200000205300006C2E0000EA
:101970004E6F00003A2000002020000020200000D0
:10198000202000000D0A00000000000020200000C0
:101990002020000020200000202000002020000047
:1019A0002020000020200000202000002020000037
:1019B0002020000020200000202000002020000027
:1019C0002020000020200000202000002020000017
:1019D0002020000020200000202000002020000007
:1019E00020200000202000002020000020200000F7
:1019F00020200000202000002020000020200000E7
:101A00000D0A00000000000020200000202000003F
:101A10002020000020200000203D00003D3D00006F
:101A20003D3D00003D3D00003D3D00003D3D0000CE
:101A30003D3D00003D3D00003D3D00003D3D0000BE
:101A40003D3D00003D3D00003D3D00003D3D0000AE
:101A50003D3D00003D3D00003D3D00003D3D00009E
:101A60003D3D00003D3D00003D3D00003D3D00008E
:101A70003D3D00003D3D00003D3D00000D0A0000E1
:101A80000000000020200000202000002020000096
:101A900020200000207C00002020000020200000EA
:101AA0002020000020200000202000002020000036
:101AB0002020000020200000202000002020000026
:101AC00020200000207C00002020000020200000BA
:101AD0002020000020200000202000002020000006
:101AE00020200000202000002020000020200000F6
:101AF00020200000207C00000D0A000000000000F3
:101B000020200000202000002020000020200000D5
:101B1000207C00002054000052410000494E00008B
:101B2000204500004E54000052590000205400008F
:101B3000494D00004520000020200000202000002A
:101B4000207C00002054000052410000494E00005B
:101B5000204500005849000054200000544900006E
:101B60004D45000020200000202000002020000023
:101B7000207C00000D0A0000000000002020000072
:101B8000202000002020000020200000207C0000F9
:101B90002020000020200000202000002020000045
:101BA0002020000020200000202000002020000035
:101BB000202000002020000020200000207C0000C9
:101BC0002020000020200000202000002020000015
:101BD0002020000020200000202000002020000005
:101BE000202000002020000020200000207C000099
:101BF0000D0A00000000000020200000202000004E
:101C00002020000020200000207C00002020000078
:101C100020200000202000002020000020200000C4
:101C200020200000202000002020000020200000B4
:101C30002020000020200000207C00002020000048
:101C40002020000020200000202000002020000094
:101C50002020000020200000202000002020000084
:101C60002020000020200000207C00000D0A000041
:101C700000000000202000002020000020200000A4
:101C800020200000207C00002020000020200000F8
:101C90002020000020200000202000002020000044
:101CA0002020000020200000202000002020000034
:101CB00020200000207C00002020000020200000C8
:101CC0002020000020200000202000002020000014
:101CD0002020000020200000202000002020000004
:101CE00020200000207C00000D0A00000000000001
:101CF00020200000202000002020000020200000E4
:101D0000207C00003D3D00003D3D00003D3D0000C9
:101D10003D3D00003D3D00003D3D00003D3D0000DB
:101D20003D3D00003D3D00003D3D00003D3D0000CB
:101D30003D2B00003D3D00003D3D00003D3D0000CD
:101D40003D3D00003D3D00003D3D00003D3D0000AB
:101D50003D3D00003D3D00003D3D00003D3D00009B
:101D60003D7C00000D0A0000000000002020000063
:101D7000202000002020000020200000207C000007
:101D80002020000020200000202000002020000053
:101D90002020000020200000202000002020000043
:101DA000202000002020000020200000207C0000D7
:101DB0002020000020200000202000002020000023
:101DC0002020000020200000202000002020000013
:101DD000202000002020000020200000207C0000A7
:101DE0000D0A00000000000020200000202000005C
:101DF0002020000020200000207C0000204F000058
:101E0000434300005550000041540000494F00007A
:101E10004E2000004455000052410000544900008B
:101E20004F4E000020200000207C0000204C0000CD
:101E30004F410000444900004E470000204400008C
:101E40005552000041540000494F00004E20000050
:101E50002020000020200000207C00000D0A00004F
:101E600000000000202000002020000020200000B2
:101E700020200000207C0000202000002020000006
:101E800020200000286900006E200000486F00003C
:101E9000757200007329000020200000202000003F
:101EA00020200000207C00002020000020200000D6
:101EB00020280000696E0000204800006F750000B7
:101EC0007273000029200000202000002020000064
:101ED00020200000207C00000D0A0000000000000F
:101EE00020200000202000002020000020200000F2
:101EF000207C000020200000202000002020000086
:101F000020200000202000002020000020200000D1
:101F100020200000202000002020000020200000C1
:101F2000207C000020200000202000002020000055
:101F300020200000202000002020000020200000A1
:101F40002020000020200000202000002020000091
:101F5000207C00000D0A000000000000202000008E
:101F6000202000002020000020200000207C000015
:101F70002020000020200000202000002020000061
:101F80002020000028680000683A00006D6D000005
:101F90003A7300007329000020200000207C00001C
:101FA0002020000020200000202000002020000031
:101FB0002020000028680000683A00006D6D0000D5
:101FC0003A7300007329000020200000207C0000EC
:101FD0000D0A00000000000020200000202000006A
:101FE0002020000020200000207C00002020000095
:101FF00020200000202000002020000020200000E1
:1020000020200000202000002020000020200000D0
:102010002020000020200000207C00002020000064
:1020200020200000202000002020000020200000B0
:1020300020200000202000002020000020200000A0
:102040002020000020200000207C00000D0A00005D
:1020500000000000202000002020000020200000C0
:1020600020200000207C00003D3D00003D3D0000A0
:102070003D3D00003D3D00003D3D00003D3D000078
:102080003D3D00003D3D00003D3D00003D3D000068
:102090003D3D00003D2B00003D3D00003D3D00006A
:1020A0003D3D00003D3D00003D3D00003D3D000048
:1020B0003D3D00003D3D00003D3D00003D3D000038
:1020C0003D3D00003D7C00000D0A000000000000C6
:1020D0002020000020200000202000002020000000
:1020E000207C000020200000202000002020000094
:1020F00020200000202000002020000020200000E0
:1021000020200000202000002020000020200000CF
:10211000207C000020200000202000002020000063
:1021200020200000202000002020000020200000AF
:10213000202000002020000020200000202000009F
:10214000207C00000D0A000000000000202000009C
:10215000202000002020000020200000207C000023
:10216000204500004E54000052590000204100005C
:10217000584C000045200000434F0000554E000021
:10218000545300002020000020200000207C00008C
:10219000202000002020000020200000202000003F
:1021A000202000002020000020200000202000002F
:1021B000202000002020000020200000207C0000C3
:1021C0000D0A000000000000202000002020000078
:1021D0002020000020200000207C000020200000A3
:1021E00020200000202000002020000020200000EF
:1021F00020200000202000002020000020200000DF
:102200002020000020200000207C00002020000072
:1022100020200000202000002020000020200000BE
:1022200020200000202000002020000020200000AE
:102230002020000020200000207C00000D0A00006B
:1022400000000000202000002020000020200000CE
:1022500020200000207C0000202000002020000022
:10226000202000002020000020200000202000006E
:10227000202000002020000020200000202000005E
:1022800020200000207C00002020000020200000F2
:10229000202000002020000020200000202000003E
:1022A000202000002020000020200000202000002E
:1022B00020200000207C00000D0A0000000000002B
:1022C000202000002020000020200000202000000E
:1022D000203D00003D3D00003D3D00003D3D000033
:1022E0003D3D00003D3D00003D3D00003D3D000006
:1022F0003D3D00003D3D00003D3D00003D3D0000F6
:102300003D2B00003D3D00003D3D00003D3D0000F7
:102310003D3D00003D3D00003D3D00003D3D0000D5
:102320003D3D00003D3D00003D3D00003D3D0000C5
:102330003D3D00000D0A00000000000000C100004B
:102340008140000001C000008041000001C0000089
:102350008041000000C100008140000001C0000079
:102360008041000000C100008140000000C1000069
:102370008140000001C000008041000001C0000059
:102380008041000000C100008140000000C1000049
:102390008140000001C000008041000000C1000039
:1023A0008140000001C000008041000001C0000029
:1023B0008041000000C100008140000001C0000019
:1023C0008041000000C100008140000000C1000009
:1023D0008140000001C000008041000000C10000F9
:1023E0008140000001C000008041000001C00000E9
:1023F0008041000000C100008140000000C10000D9
:102400008140000001C000008041000001C00000C8
:102410008041000000C100008140000001C00000B8
:102420008041000000C100008140000000C10000A8
:102430008140000001C000008041000001C0000098
:102440008041000000C100008140000000C1000088
:102450008140000001C000008041000000C1000078
:102460008140000001C000008041000001C0000068
:102470008041000000C100008140000000C1000058
:102480008140000001C000008041000001C0000048
:102490008041000000C100008140000001C0000038
:1024A0008041000000C100008140000000C1000028
:1024B0008140000001C000008041000000C1000018
:1024C0008140000001C000008041000001C0000008
:1024D0008041000000C100008140000001C00000F8
:1024E0008041000000C100008140000000C10000E8
:1024F0008140000001C000008041000001C00000D8
:102500008041000000C100008140000000C10000C7
:102510008140000001C000008041000000C10000B7
:102520008140000001C000008041000001C00000A7
:102530008041000000C100008140000000C0000098
:10254000C1010000C303000002C20000C606000073
:1025500007C7000005C50000C4040000CC0C000043
:102560000DCD00000FCF0000CE0E00000ACA000003
:10257000CB0B0000C909000008C80000D8180000F3
:1025800019D900001BDB0000DA1A00001EDE000073
:10259000DF1F0000DD1D00001CDC000014D4000063
:1025A000D5150000D717000016D60000D212000083
:1025B00013D3000011D10000D0100000F030000053
:1025C00031F1000033F30000F232000036F6000073
:1025D000F7370000F535000034F400003CFC000043
:1025E000FD3D0000FF3F00003EFE0000FA3A000003
:1025F0003BFB000039F90000F838000028E8000033
:10260000E9290000EB2B00002AEA0000EE2E000072
:102610002FEF00002DED0000EC2C0000E424000062
:1026200025E5000027E70000E626000022E2000082
:10263000E3230000E121000020E00000A060000092
:1026400061A1000063A30000A262000066A6000072
:10265000A7670000A565000064A400006CAC000042
:10266000AD6D0000AF6F00006EAE0000AA6A000002
:102670006BAB000069A90000A868000078B80000F2
:10268000B9790000BB7B00007ABA0000BE7E000072
:102690007FBF00007DBD0000BC7C0000B474000062
:1026A00075B5000077B70000B676000072B2000082
:1026B000B3730000B171000070B0000050900000D2
:1026C0009151000093530000529200009656000072
:1026D0005797000055950000945400009C5C000042
:1026E0005D9D00005F9F00009E5E00005A9A000002
:1026F0009B5B000099590000589800008848000032
:10270000498900004B8B00008A4A00004E8E000071
:102710008F4F00008D4D00004C8C00004484000061
:102720008545000087470000468600008242000081
:10273000438300004181000080400000120100003E
:10274000000200000200000000080000D8040000A1
:102750000A0000000001000001020000000100006A
:1027600009020000430000000201000000C0000058
:102770003209000004000000000100000202000015
:10278000010000000524000000100000010400000A
:1027900024020000020500002406000000010000E1
:1027A0000524000001000000010700000581000071
:1027B00003080000000200000904000001000000FE
:1027C000020A0000000000000007000005020000EF
:1027D0000240000000000000070500008202000027
:1027E0004000000000040000030900000434000061
:1027F000034D00000069000000630000007200004B
:10280000006F000000630000006800000069000025
:10281000007000000020000000540000006500006F
:102820000063000000680000006E0000006F000000
:10283000006C0000006F00000067000000790000DD
:102840000020000000490000006E0000006300004E
:10285000002E00000034000003430000004400008C
:102860000043000000200000005200000053000060
:10287000002D000000320000003300000032000094
:102880000020000000450000006D00000075000001
:10289000006C00000061000000740000006900008E
:1028A000006F0000006E00000020000000440000E7
:1028B00000650000006D0000006F000000000000D7
:1028C00003000000050000005C000000090000009B
:1028D00002000000FF000000FF00000007000000F1
:1028E0000C0000000E0000001000000012000000AC
:1028F0001400000016000000180000001A0000007C
:102900001C0000001E00000020000000220000004B
:102910002400000026000000280000002A0000001B
:102920002C0000002E0000003000000032000000EB
:102930003400000036000000380000003A000000BB
:102940003E00000040000000420000003C0000008B
:102950004600000044000000480000005F00000046
:102960004A0000004C0000004E0000005000000033
:102970005200000054000000560000005800000003
:102980000400000006000000FF0000000A00000034
:10299000FF000000FF000000FF000000FF0000003B
:1029A0000B0000000D0000000F00000011000000EF
:1029B00013000000150000001700000019000000BF
:1029C0001B0000001D0000001F000000210000008F
:1029D000230000002500000027000000290000005F
:1029E0002B0000002D0000002F000000310000002F
:1029F00033000000350000003700000039000000FF
:102A00003D0000003F000000410000003B000000CE
:102A10004500000043000000470000005E00000089
:102A2000490000004B0000004D0000004F00000076
:102A30005100000053000000550000005700000046
:102A40002573000025730000002500007325000099
:102A5000732500007300000025730000222500008C
:102A6000732200002573000000530000534400004F
:102A7000414300002053000079730000746500009A
:102A80006D20000069730000207400007572000062
:102A90006E650000642000006F6E000020250000BD
:102AA0006300000025730000202500006300000083
:102AB0004E7500006D62000065720000204100004C
:102AC000646400006564000020730000756300000A
:102AD0006365000073730000667500006C6C000095
:102AE000792E000025630000004300004D470000E0
:102AF0004C00000025640000202500007300000049
:102B00002564000020250000730A0000000000007A
:102B100000000000010100000102000002010000AD
:102B20000202000003030000040400000505000089
:102B30000606000006020000020600000601000072
:102B400001060000001F00001C1F00001E1F0000E7
:102B50001E1F00001F1E00001F1E00001F0000009F
:102B600000060000010B0000020400000304000046
:102B70000404000005050000060400000102000036
:102B8000040800001020000040800000A1A0000008
:102B9000A9A80000A5A40000ADAC00000000FA0048
:102BA00020B781000080FA00000006000000FA0053
:102BB000606E2300104078000080FA0000000600DC
:102BC0000000FA00606E23008040EB0001487800AE
:102BD0000080FA00000006000200FA000040EB004E
:102BE000004F7800401A8100E60F500002003E00BE
:102BF0001E407800990037008141800000002200CB
:102C0000008060000000E00005003A008141800083
:102C100000002400008060000000E00002003A0094
:102C20001E4078008D00370010C0B300004F7800C0
:102C30003168A8003188A90031A8A80031C8A900CE
:102C40000000EB00701A8900C0002000601A8900A3
:102C50000000EB00B01A89000000EB00C01A8900E8
:102C60000000EB0010B789000000EB0020B78900DE
:102C7000606E23008040EB000148780076C8BF00FA
:102C80000080FB006C00B90080007800806E23009B
:102C900000804000C1C8B3000148780076C8BF007A
:102CA0000080FB006C00B90080007800906E23006B
:102CB0000080400080C0EB000148780076C8BF006B
:102CC0000080FB006C00B90080007800A06E23003B
:102CD0000080400080C0EB000148780076C8BF004B
:102CE0000080FB006C00B90080007800B06E23000B
:102CF0000080400080C0EB000148780076C8BF002B
:102D00000080FB006C00B90080007800C06E2300DA
:102D10000080400080C0EB000148780076C8BF000A
:102D20000080FB006C00B90080007800D06E2300AA
:102D30000080400080C0EB000148780076C8BF00EA
:102D40000080FB006C00B90080007800E06E23007A
:102D500000804000C1C8B3000148780076C8BF00B9
:102D60000080FB006C00B90080007800F06E23004A
:102D70000080400080C0EB000148780076C8BF00AA
:102D80000080FB006C00B90080007800006F230019
:102D90000080400080C0EB000148780076C8BF008A
:102DA0000080FB006C00B90080007800106F2300E9
:102DB0000080400080C0EB000148780076C8BF006A
:102DC0000080FB006C00B90080007800206F2300B9
:102DD0000080400080C0EB000148780076C8BF004A
:102DE0000080FB006C00B90080007800306F230089
:102DF0000080400080C0EB000148780076C8BF002A
:102E00000080FB006C00B90080007800806E230019
:102E1000008040009000780010019000A001900018
:102E200010C0B300544F070076C8BF000080FB00FD
:102E30006C00B90000007800E6004000806E2300BE
:102E4000008040009000780010019000A0019000E8
:102E500020C0B300484F07001E4078000080FA00F1
:102E6000000006000000FA000000EB00401A890094
:102E7000A03422008040EB000148780010002000C0
:102E800001002000801A8900911A89000000EB00DF
:102E9000B01A89000000EB00C01A89000000EB00A6
:102EA00010B789000000EB0020B78900606E230096
:102EB0008040EB00014878000080FA000000060026
:102EC0000000FA0070002000401A8900A03422009F
:102ED0008040EB00014878003168A9003188A800E3
:102EE00031A8A90031C8A8000080FA00000006003F
:102EF0001200FA00401A81008000EB00D20020008E
:102F000003002000820F5000838F580033023E00E0
:102F1000006001000D003700450037007D003700DC
:102F2000AF003700EE003700310137002D023700C7
:102F300032013700400137004B013700570137009D
:102F4000D5013700E1013700F401370007450700DC
:102F50008AE8B70091D2820050A52A00808F5000E5
:102F60000400320091D28200A05A2500808F5000C8
:102F70001C003A00A0D2820010B78900B0D28200B3
:102F800020B7890020B781008000EB00801A8900FB
:102F9000911A8900801A8100911A8100000078003E
:102FA0000000E900444307008AE8B7000040EB0056
:102FB000004F7800070037001E80FB009E80FB005A
:102FC00082A52500E2C0780000004700214098005B
:102FD0001E4FE8001E407800EF4F5000F6FF36000D
:102FE000100037000000EB0010B789000000EB0074
:102FF00020B7890020B781008000EB00801A89008B
:10300000911A89000000EB00A0D28A000000EB00BA
:10301000B0D28A0050A52A0090D28A0097440700B7
:103020008AE8B70050002000401A8900FE013700EE
:103030000040EB00004F7800050037001E80FB00C9
:1030400081A525000041EB00827078001E4FE8004A
:103050001E407800EF4F5000F8FF3600801A8100C4
:10306000911A810000007800134307008AE8B70036
:103070000040EB00004F7800070037001E80FB0087
:103080009E80FB0082A52500E2C07800000047007A
:10309000214098001E4FE8001E407800EF4F50007E
:1030A000F6FF3600801A8100911A81000000780036
:1030B00020B78900801A8100911A810061004000C8
:1030C000E0804800801A8900911A8900AE40900083
:1030D000A0CAB30080CF500007003A00821A8100D6
:1030E000931A8100F0FF230001002000800F51009F
:1030F000818F5900BD01340020002000401A890052
:10310000F0FF230001002000801A8900911A890035
:10311000C50137000040EB00004F78000500370084
:103120001E80FB0081A525000041EB008270780025
:103130001E4FE8001E407800EF4F5000F8FF3600A9
:10314000801A8100911A810000007800DA4207009D
:103150008AE8B7000040EB00004F78000700370016
:103160001E80FB009E80FB0082A52500E2C0780047
:1031700000004700214098001E4FE8001E407800E4
:10318000EF4F5000F6FF3600801A8100911A81003F
:103190000000780010B78900801A8100911A810020
:1031A00061005000E0805800801A8900911A89005F
:1031B000AE409000A0CAB30080CF500005003A0096
:1031C000801A8100911A8100E00F5000E08F5800B2
:1031D00088013D0050002000401A8900920137000C
:1031E0000040EB00004F7800050037001E80FB0018
:1031F00081A525000041EB00827078001E4FE80099
:103200001E407800EF4F5000F8FF3600801A810012
:10321000911A810000007800A74207008AE8B700F1
:103220000040EB00004F7800070037001E80FB00D5
:103230009E80FB0082A52500E2C0780000004700C8
:10324000214098001E4FE8001E407800EF4F5000CC
:10325000F6FF3600801A8100911A81000000780084
:1032600020B78900801A8100911A81006100500006
:10327000E0805800801A8900911A8900AE409000C1
:10328000A0CAB30080CF500007003A0040002000E1
:10329000401A89001000200001002000801A8900D7
:1032A000911A890060013700801A8100911A81000B
:1032B000E00F5000E08F580050013D00400020001A
:1032C000401A89001000200001002000801A8900A7
:1032D000911A89000000EB0020B7890052013700E5
:1032E0000040EB00004F7800050037001E80FB0017
:1032F00081A525000041EB00827078001E4FE80098
:103300001E407800EF4F5000F8FF3600801A810011
:10331000911A810000007800674207008AE8B70030
:103320000040EB00004F7800070037001E80FB00D4
:103330009E80FB0082A52500E2C0780000004700C7
:10334000214098001E4FE8001E407800EF4F5000CB
:10335000F6FF3600801A8100911A81000000780083
:1033600010B78900801A8100911A81006100400025
:10337000E0804800801A8900911A8900AE409000D0
:10338000A0CAB30080CF500008003A0020B78100E7
:103390008000E800F0FF23000080600020B7890073
:1033A00050002000401A89001F013700821A810056
:1033B000931A8100F0FF230001002000800F5100CC
:1033C000818F59000F01340020B781008000E80090
:1033D000F0FF23000080600020B78900500020002B
:1033E000401A89000000EB0010B789000E01370079
:1033F00059100700B2FE07000B013700601A810068
:10340000EC0F500005003A0010002000F0D48A00B4
:10341000601A8100401A890003013700B11A810047
:10342000C01A8100808F5000F80032008000200018
:10343000401A8900FC0037002C0E0700E14F5000B5
:1034400006003A0090002000401A8900A0342200B3
:10345000A1C0B30001487800F3003700A0002000AD
:10346000401A8900F0003700C64207000004E0005F
:103470000300320080002000401A8900EA00370073
:10348000A0342200104078000004E000E1003A007F
:1034900080002000401A8900E3003700010F070078
:1034A0000004E00006003200B0002000401A89004D
:1034B000A0342200A1C0B30001487800DA00370030
:1034C0004035220010407800E14F500069003A007A
:1034D00010B78100A0D28A0020B78100B0D28A0044
:1034E000A1D28200B0D28200808F50000300310050
:1034F00050A52A0090D28A0002003700A05A250069
:1035000090D28A000040EB00004F780005003700A1
:103510001E80FB0081A525000041EB008270780031
:103520001E4FE8001E407800EF4F5000F8FF3600B5
:10353000A0D28200E04107008AE8B7000040EB001B
:10354000004F7800070037001E80FB009E80FB00C4
:1035500082A5250062C17800E130220082707800E7
:103560001E4FE8001E407800EF4F5000F6FF360077
:103570000040EB00004F7800050037001E80FB0084
:1035800081A525000041EB00827078001E4FE80005
:103590001E407800EF4F5000F8FF3600B0D2820096
:1035A000C54107008AE8B7000040EB00004F7800F3
:1035B000070037001E80FB009E80FB0082A52500CF
:1035C00062C17800E1312200827078001E4FE8006D
:1035D0001E407800EF4F5000F6FF36000040EB0031
:1035E000004F7800050037001E80FB0081A52500F4
:1035F0000041EB00827078001E4FE8001E4078000A
:10360000EF4F5000F8FF36000000EB00AA41070022
:103610008AE8B7000040EB00004F78000700370051
:103620001E80FB009E80FB0082A5250062C1780001
:10363000E1322200827078001E4FE8001E407800C0
:10364000EF4F5000F6FF36000C4307008AE8B70042
:10365000403522008040EB0001487800B000200097
:10366000401A8900A0342200A1C0B30001487800AC
:103670006D00370070002000401A8900A03422003D
:103680008040EB0001487800403522008040EB008C
:1036900001487800640037003A4207000004E00067
:1036A00003003200A0002000401A89005E003700AD
:1036B000A0342200104078000004E00057003A00D7
:1036C000A0002000401A89005700370010C0B30046
:1036D00080E8B700701A8100B240070010479800D8
:1036E0001E409000E14F500006003A00E044800088
:1036F0000000E00003003A00701A81000000E800BA
:10370000701A8900D0002000401A8900A0342200DD
:10371000A1C0B300014878004300370019420700F8
:103720000004E00004003A00A034220010407800B9
:103730000004E0003B003A00701A8100E30F5000E3
:1037400003003E00C0002000401A89003600370008
:103750003168A9003188A80031A8A90031C8A800A3
:103760000000EB0010B789000000EB0020B78900D3
:1037700020B781008000EB00801A8900911A89002F
:103780000000EB00A0D28A000000EB00B0D28A005B
:103790000000EB0090D28A00B84207008AE8B70028
:1037A0003E34070060002000F0D48A0010002000A2
:1037B00000D58A0070002000401A8900A034220041
:1037C0008040EB000148780060002000601A89000A
:1037D00060072000220007001300370000000000EF
:1037E00011003700000000000F003700000000004B
:1037F0000D003700000000000B0037000000000043
:10380000090037000000000007003700000000003A
:103810000500370000000000030037000000000032
:1038200001003700000000000080FA0000000600E0
:103830000000FA00A0342200104078000004E000EC
:1038400005003200A0342200104078008040E900DA
:10385000A0342200014878000080FA000000060031
:103860000200FA00000F7800C01A81008000E80012
:10387000401F200000017800110009008280D8005C
:103880008000FD00C01A8900C01A81006A00B900DA
:1038900080007800A03522000080400080C0EB004E
:1038A00001487800C01A81009E007800014178002C
:1038B0006A00B90080007800A03522000080400036
:1038C00012409800C01A81006A00B9008000780098
:1038D000C0352200008040008000EB000108780025
:1038E000C01A81006A00B90080007800E03522002B
:1038F000008040008000EB0001087800C01A8100C1
:103900000000E8006A00B9008000780060352200FD
:10391000008040008000EB0001087800C01A8100A0
:103920006A00B90080007800203622000080400044
:103930008000EB00010878000080FA00000006001B
:103940000E00FA00204F9800610798000040EB003D
:10395000004F78002E489000E14F500003003200E5
:103960002E489000E24F5000E0003A000000EB00CB
:10397000100798000000EB00200798000000EB0003
:10398000300798000000EB00400798002E48900098
:10399000E14F500065003A0076C8BF008080FB0010
:1039A000000520000088B90000007800D004B000B5
:1039B000E1902100E140780050C5B30080CF500075
:1039C0004B003A0076C8BF008080FB000005200055
:1039D0000088B9000000780068004000E1902100F4
:1039E000614078002047980076C8BF008080FB00C7
:1039F000000520000088B900000078006900400040
:103A0000E1902100614078003047980076C8BF00FF
:103A10008080FB00000520000088B90000007800CD
:103A20006A004000E1902100614078004047980022
:103A300076C8BF008080FB00000520000088B90028
:103A4000000078006B004000E190210061407800A8
:103A50005047980076C8BF008080FB00000520001A
:103A60000088B900000078006C004000E19021005F
:103A7000614078006047980076C8BF008080FB00F6
:103A8000000520000088B900000078006D004000AB
:103A9000E1902100614078007047980076C8BF002F
:103AA0008080FB00000520000088B900000078003D
:103AB0006E004000E190210061407800004F9800C6
:103AC00076C8BF008080FB00000520000088B90098
:103AD000000078006F004000E19021006140780014
:103AE000104F98003184200091407800014F7800F9
:103AF00076C8BF008080FB00000520000088B90068
:103B000000007800D004B000E1902100E14078008E
:103B1000A0CAB30080CF500068003A003184200072
:103B200091407800014F78006400370076C8BF00EC
:103B30008080FB00000520000088B90000007800AC
:103B4000D004B000E1E02100E140780050C5B300AE
:103B500080CF50004B003A0076C8BF008080FB0049
:103B6000000520000088B9000000780068004000CF
:103B7000E1E02100614078002047980076C8BF004E
:103B80008080FB00000520000088B900000078005C
:103B900069004000E1E02100614078003047980072
:103BA00076C8BF008080FB00000520000088B900B7
:103BB000000078006A004000E1E0210061407800E8
:103BC0004047980076C8BF008080FB0000052000B9
:103BD0000088B900000078006B004000E1E021009F
:103BE000614078005047980076C8BF008080FB0095
:103BF000000520000088B900000078006C0040003B
:103C0000E1E02100614078006047980076C8BF007D
:103C10008080FB00000520000088B90000007800CB
:103C20006D004000E1E0210061407800704798009D
:103C300076C8BF008080FB00000520000088B90026
:103C4000000078006E004000E1E021006140780053
:103C5000004F980076C8BF008080FB000005200060
:103C60000088B900000078006F004000E1E021000A
:103C700061407800104F9800418420009140780006
:103C8000014F780076C8BF008080FB00000520004F
:103C90000088B90000007800D004B000E1E0210005
:103CA000E1407800A0CAB30080CF500003003A0082
:103CB0004184200091407800014F7800CE019000AF
:103CC0003E019000AE0090001E009000830278003C
:103CD000020278008101780000017800EE00900077
:103CE0001E407800100907000100370000000000A6
:103CF0000080FA00000006000E00FA00204F980035
:103D0000610798002E489000E14F500003003200F8
:103D10002E489000E24F500000093A000000EB00EE
:103D2000100798000000EB00200798000000EB004F
:103D3000300798000000EB00400798002E489000E4
:103D4000E14F500075043A00809F25001040780034
:103D50000080FB00CF80DE00E20020000300200096
:103D6000820F5000838F580067043E0000600100FE
:103D70000E0037002000370068003700B000370021
:103D800051013700500137004F013700D101370092
:103D900072023700BA033700B90337001103370046
:103DA000100337000F0337000E03370076C8BF003B
:103DB0008080FB00000520000088B900000078002A
:103DC0005003B000E1902100614078002047980046
:103DD00076C8BF008080FB00000520000088B90085
:103DE000000078006003B000E1902100614078009D
:103DF000304798004504370076C8BF008080FB003C
:103E0000000520000088B900000078005003B000D1
:103E1000E1902100614078002047980076C8BF00FB
:103E20008080FB00000520000088B90000007800B9
:103E30006003B000E19021006140780030479800B5
:103E400076C8BF008080FB00000520000088B90014
:103E5000000078007003B000E1902100614078001C
:103E60004047980076C8BF008080FB000005200016
:103E70000088B900000078008003B000E1902100C4
:103E8000614078005047980076C8BF008080FB00F2
:103E9000000520000088B90000007800D003B000C1
:103EA000E1902100614078006047980076C8BF002B
:103EB0008080FB00000520000088B9000000780029
:103EC000E003B000E1902100614078007047980065
:103ED00076C8BF008080FB00000520000088B90084
:103EE00000007800F003B000E1902100614078000C
:103EF000004F980076C8BF008080FB0000052000BE
:103F00000088B900000078000004B000E1902100B2
:103F100061407800104F9800FC03370076C8BF005E
:103F20008080FB00000520000088B90000007800B8
:103F3000D002B000E1902100614078002047980055
:103F400076C8BF008080FB00000520000088B90013
:103F500000007800E002B000E190210061407800AC
:103F60003047980076C8BF008080FB000005200025
:103F70000088B90000007800F002B000E190210054
:103F8000614078004047980076C8BF008080FB0001
:103F9000000520000088B900000078000003B00090
:103FA000E1902100614078005047980076C8BF003A
:103FB0008080FB00000520000088B9000000780028
:103FC0005002B000E1902100614078006047980005
:103FD00076C8BF008080FB00000520000088B90083
:103FE000000078006002B000E1902100614078009C
:103FF0007047980076C8BF008080FB000005200055
:104000000088B900000078007002B000E190210043
:1040100061407800004F980076C8BF008080FB00A8
:10402000000520000088B900000078008002B00080
:10403000E190210061407800104F9800B3033700F1
:10404000EE009000A0072000808F50000C0032008E
:10405000EE00900080072000808F500008003200A2
:10406000EE009000B0072000808F50000400320066
:10407000EE00900090072000808F500049003A0029
:1040800076C8BF008080FB00000520000088B900D2
:10409000000078007002B000E190210061407800DB
:1040A0002047980076C8BF008080FB0000052000F4
:1040B0000088B900000078008002B000E190210083
:1040C000614078003047980076C8BF008080FB00D0
:1040D000000520000088B900000078005002B00000
:1040E000E1902100614078004047980076C8BF0009
:1040F0008080FB00000520000088B90000007800E7
:104100006002B000E19021006140780050479800C3
:1041100076C8BF008080FB00000520000088B90041
:10412000000078005003B000E19021006140780069
:104130006047980076C8BF008080FB000005200023
:104140000088B900000078006003B000E190210011
:10415000614078007047980076C8BF008080FB00FF
:10416000000520000088B900000078007003B0004E
:10417000E190210061407800004F980076C8BF00B0
:104180008080FB00000520000088B9000000780056
:104190008003B000E190210061407800104F98004A
:1041A0005A03370076C8BF008080FB00000520005E
:1041B0000088B90000007800F002B000E190210012
:1041C000614078002047980076C8BF008080FB00DF
:1041D000000520000088B900000078000003B0004E
:1041E000E1902100614078003047980076C8BF0018
:1041F0008080FB00000520000088B90000007800E6
:10420000D002B000E1902100614078004047980062
:1042100076C8BF008080FB00000520000088B90040
:1042200000007800E002B000E190210061407800D9
:104230005047980076C8BF008080FB000005200032
:104240000088B90000007800D003B000E1902100A0
:10425000614078006047980076C8BF008080FB000E
:10426000000520000088B90000007800E003B000DD
:10427000E1902100614078007047980076C8BF0047
:104280008080FB00000520000088B9000000780055
:10429000F003B000E190210061407800004F9800E9
:1042A00076C8BF008080FB00000520000088B900B0
:1042B000000078000004B000E19021006140780027
:1042C000104F980011033700EE009000A007200067
:1042D000808F50000C003200EE009000800720001C
:1042E000808F500008003200EE009000B0072000E0
:1042F000808F500004003200EE00900090072000F4
:10430000808F500037003A0076C8BF008080FB00E5
:10431000000520000088B900000078005002B000BD
:10432000E1902100614078002047980076C8BF00E6
:104330008080FB00000520000088B90000007800A4
:104340006002B000E19021006140780030479800A1
:1043500076C8BF008080FB00000520000088B900FF
:10436000000078007002B000E19021006140780008
:104370004047980076C8BF008080FB000005200001
:104380000088B900000078008002B000E1902100B0
:10439000614078005047980076C8BF008080FB00DD
:1043A000000520000088B900000078009002B000ED
:1043B000E1902100614078006047980076C8BF0016
:1043C0008080FB00000520000088B9000000780014
:1043D000A002B000E1902100614078007047980091
:1043E0003600370076C8BF008080FB000005200043
:1043F0000088B90000007800B002B000E190210010
:10440000614078002047980076C8BF008080FB009C
:10441000000520000088B90000007800C002B0004C
:10442000E1902100614078003047980076C8BF00D5
:104430008080FB00000520000088B90000007800A3
:10444000D002B000E1902100614078004047980020
:1044500076C8BF008080FB00000520000088B900FE
:1044600000007800E002B000E19021006140780097
:104470005047980076C8BF008080FB0000052000F0
:104480000088B90000007800F002B000E19021003F
:10449000614078006047980076C8BF008080FB00CC
:1044A000000520000088B900000078000003B0007B
:1044B000E190210061407800704798006E00900004
:1044C000004078000080FB00680040006007980012
:1044D0008E023700EE009000A0072000808F500071
:1044E0000C003200EE00900080072000808F50000A
:1044F00008003200EE009000B0072000808F5000CE
:1045000004003200EE00900090072000808F5000E1
:1045100049003A0076C8BF008080FB0000052000FB
:104520000088B900000078005002B000E19021003E
:10453000614078002047980076C8BF008080FB006B
:10454000000520000088B900000078006002B0007B
:10455000E1902100614078003047980076C8BF00A4
:104560008080FB00000520000088B9000000780072
:104570007003B000E190210061407800404798004E
:1045800076C8BF008080FB00000520000088B900CD
:10459000000078008003B000E190210061407800C5
:1045A0005047980076C8BF008080FB0000052000BF
:1045B0000088B900000078005003B000E1902100AD
:1045C000614078006047980076C8BF008080FB009B
:1045D000000520000088B900000078006003B000EA
:1045E000E1902100614078007047980076C8BF00D4
:1045F0008080FB00000520000088B90000007800E2
:10460000F002B000E190210061407800004F980076
:1046100076C8BF008080FB00000520000088B9003C
:10462000000078000003B000E190210061407800B4
:10463000104F98003502370076C8BF008080FB001D
:10464000000520000088B90000007800D002B0000A
:10465000E1902100614078002047980076C8BF00B3
:104660008080FB00000520000088B9000000780071
:10467000E002B000E19021006140780030479800EE
:1046800076C8BF008080FB00000520000088B900CC
:1046900000007800F003B000E19021006140780054
:1046A0004047980076C8BF008080FB0000052000CE
:1046B0000088B900000078000004B000E1902100FB
:1046C000614078005047980076C8BF008080FB00AA
:1046D000000520000088B90000007800D003B00079
:1046E000E1902100614078006047980076C8BF00E3
:1046F0008080FB00000520000088B90000007800E1
:10470000E003B000E190210061407800704798001C
:1047100076C8BF008080FB00000520000088B9003B
:10472000000078007002B000E19021006140780044
:10473000004F980076C8BF008080FB000005200075
:104740000088B900000078008002B000E1902100EC
:1047500061407800104F9800EC013700EE009000A7
:10476000A0072000808F50000C003200EE00900067
:1047700080072000808F500008003200EE0090007B
:10478000B0072000808F500004003200EE0090003F
:1047900090072000808F500049003A0076C8BF0083
:1047A0008080FB00000520000088B9000000780030
:1047B000F003B000E19021006140780020479800AC
:1047C00076C8BF008080FB00000520000088B9008B
:1047D000000078000004B000E19021006140780002
:1047E0003047980076C8BF008080FB00000520009D
:1047F0000088B900000078005003B000E19021006B
:10480000614078004047980076C8BF008080FB0078
:10481000000520000088B900000078006003B000A7
:10482000E1902100614078005047980076C8BF00B1
:104830008080FB00000520000088B900000078009F
:104840007002B000E190210061407800604798005C
:1048500076C8BF008080FB00000520000088B900FA
:10486000000078008002B000E190210061407800F3
:104870007047980076C8BF008080FB0000052000CC
:104880000088B900000078005002B000E1902100DB
:1048900061407800004F980076C8BF008080FB0020
:1048A000000520000088B900000078006002B00018
:1048B000E190210061407800104F9800930137008B
:1048C00076C8BF008080FB00000520000088B9008A
:1048D000000078007003B000E19021006140780092
:1048E0002047980076C8BF008080FB0000052000AC
:1048F0000088B900000078008003B000E19021003A
:10490000614078003047980076C8BF008080FB0087
:10491000000520000088B90000007800D003B00036
:10492000E1902100614078004047980076C8BF00C0
:104930008080FB00000520000088B900000078009E
:10494000E003B000E19021006140780050479800FA
:1049500076C8BF008080FB00000520000088B900F9
:1049600000007800F002B000E19021006140780082
:104970006047980076C8BF008080FB0000052000DB
:104980000088B900000078000003B000E190210029
:10499000614078007047980076C8BF008080FB00B7
:1049A000000520000088B90000007800D002B000A7
:1049B000E190210061407800004F980076C8BF0068
:1049C0008080FB00000520000088B900000078000E
:1049D000E002B000E190210061407800104F9800A3
:1049E0004A013700EE009000A0072000808F5000A1
:1049F0000C003200EE00900080072000808F5000F5
:104A000008003200EE009000B0072000808F5000B8
:104A100004003200EE00900090072000808F5000CC
:104A200049003A0076C8BF008080FB0000052000E6
:104A30000088B900000078005002B000E190210029
:104A4000614078002047980076C8BF008080FB0056
:104A5000000520000088B900000078006002B00066
:104A6000E1902100614078003047980076C8BF008F
:104A70008080FB00000520000088B900000078005D
:104A80007002B000E190210061407800404798003A
:104A900076C8BF008080FB00000520000088B900B8
:104AA000000078008002B000E190210061407800B1
:104AB0005047980076C8BF008080FB0000052000AA
:104AC0000088B900000078009002B000E190210059
:104AD000614078006047980076C8BF008080FB0086
:104AE000000520000088B90000007800A002B00096
:104AF000E1902100614078007047980076C8BF00BF
:104B00008080FB00000520000088B90000007800CC
:104B1000B002B000E190210061407800004F9800A1
:104B200076C8BF008080FB00000520000088B90027
:104B300000007800C002B000E190210061407800E0
:104B4000104F98004800370076C8BF008080FB00F7
:104B5000000520000088B90000007800D002B000F5
:104B6000E1902100614078002047980076C8BF009E
:104B70008080FB00000520000088B900000078005C
:104B8000E002B000E19021006140780030479800D9
:104B900076C8BF008080FB00000520000088B900B7
:104BA00000007800F002B000E19021006140780040
:104BB0004047980076C8BF008080FB0000052000B9
:104BC0000088B900000078000003B000E1902100E7
:104BD000614078005047980076C8BF008080FB0095
:104BE000000520000088B900000078001003B00024
:104BF000E1902100614078006047980076C8BF00CE
:104C00008080FB00000520000088B90000007800CB
:104C10002003B000E19021006140780070479800C7
:104C200076C8BF008080FB00000520000088B90026
:104C3000000078003003B000E1902100614078006E
:104C4000004F980076C8BF008080FB000005200060
:104C50000088B900000078004003B000E190210016
:104C600061407800104F98006E009000004078007E
:104C70000080FB006800400060079800A300370038
:104C8000EE009000A0072000808F50000C00320042
:104C9000EE00900080072000808F50000800320056
:104CA000EE009000B0072000808F5000040032001A
:104CB000EE00900090072000808F500049003A00DD
:104CC00076C8BF008080FB00000520000088B90086
:104CD000000078005003B000E190210061407800AE
:104CE0002047980076C8BF008080FB0000052000A8
:104CF0000088B900000078006003B000E190210056
:104D0000614078003047980076C8BF008080FB0083
:104D1000000520000088B900000078005002B000B3
:104D2000E1902100614078004047980076C8BF00BC
:104D30008080FB00000520000088B900000078009A
:104D40006002B000E1902100614078005047980077
:104D500076C8BF008080FB00000520000088B900F5
:104D6000000078007002B000E190210061407800FE
:104D70006047980076C8BF008080FB0000052000D7
:104D80000088B900000078008002B000E1902100A6
:104D9000614078007047980076C8BF008080FB00B3
:104DA000000520000088B900000078007003B00002
:104DB000E190210061407800004F980076C8BF0064
:104DC0008080FB00000520000088B900000078000A
:104DD0008003B000E190210061407800104F9800FE
:104DE0004A00370076C8BF008080FB000005200025
:104DF0000088B90000007800D003B000E1902100E5
:104E0000614078002047980076C8BF008080FB0092
:104E1000000520000088B90000007800E003B00021
:104E2000E1902100614078003047980076C8BF00CB
:104E30008080FB00000520000088B9000000780099
:104E4000D002B000E1902100614078004047980016
:104E500076C8BF008080FB00000520000088B900F4
:104E600000007800E002B000E1902100614078008D
:104E70005047980076C8BF008080FB0000052000E6
:104E80000088B90000007800F002B000E190210035
:104E9000614078006047980076C8BF008080FB00C2
:104EA000000520000088B900000078000003B00071
:104EB000E1902100614078007047980076C8BF00FB
:104EC0008080FB00000520000088B9000000780009
:104ED000F003B000E190210061407800004F98009D
:104EE00076C8BF008080FB00000520000088B90064
:104EF000000078000004B000E190210061407800DB
:104F0000104F98000100370000000000318420009D
:104F100091407800014F780074043700809F25008D
:104F2000104078000080FB00CF80DE00E20020000F
:104F300003002000820F5000838F580067043E005A
:104F4000006001000E0037002000370068003700C5
:104F5000B000370051013700500137004F013700D2
:104F6000D101370072023700BA033700B9033700A6
:104F700011033700100337000F0337000E0337000B
:104F800076C8BF008080FB00000520000088B900C3
:104F9000000078005003B000E1E02100614078009B
:104FA0002047980076C8BF008080FB0000052000E5
:104FB0000088B900000078006003B000E1E0210043
:104FC00061407800304798004504370076C8BF003C
:104FD0008080FB00000520000088B90000007800F8
:104FE0005003B000E1E021006140780020479800C4
:104FF00076C8BF008080FB00000520000088B90053
:10500000000078006003B000E1E02100614078001A
:105010003047980076C8BF008080FB000005200064
:105020000088B900000078007003B000E1E02100C2
:10503000614078004047980076C8BF008080FB0040
:10504000000520000088B900000078008003B0004F
:10505000E1E02100614078005047980076C8BF0029
:105060008080FB00000520000088B9000000780067
:10507000D003B000E1E02100614078006047980073
:1050800076C8BF008080FB00000520000088B900C2
:1050900000007800E003B000E1E02100614078000A
:1050A0007047980076C8BF008080FB000005200094
:1050B0000088B90000007800F003B000E1E02100B2
:1050C00061407800004F980076C8BF008080FB00E8
:1050D000000520000088B900000078000004B0003E
:1050E000E1E0210061407800104F9800FC03370098
:1050F00076C8BF008080FB00000520000088B90052
:1051000000007800D002B000E1E0210061407800AA
:105110002047980076C8BF008080FB000005200073
:105120000088B90000007800E002B000E1E0210052
:10513000614078003047980076C8BF008080FB004F
:10514000000520000088B90000007800F002B000DF
:10515000E1E02100614078004047980076C8BF0038
:105160008080FB00000520000088B9000000780066
:105170000003B000E1E02100614078005047980052
:1051800076C8BF008080FB00000520000088B900C1
:10519000000078005002B000E1E02100614078009A
:1051A0006047980076C8BF008080FB0000052000A3
:1051B0000088B900000078006002B000E1E0210042
:1051C000614078007047980076C8BF008080FB007F
:1051D000000520000088B900000078007002B000CF
:1051E000E1E0210061407800004F980076C8BF00E0
:1051F0008080FB00000520000088B90000007800D6
:105200008002B000E1E0210061407800104F98007A
:10521000B3033700EE009000A0072000808F5000FD
:105220000C003200EE00900080072000808F5000BC
:1052300008003200EE009000B0072000808F500080
:1052400004003200EE00900090072000808F500094
:1052500049003A0076C8BF008080FB0000052000AE
:105260000088B900000078007002B000E1E0210081
:10527000614078002047980076C8BF008080FB001E
:10528000000520000088B900000078008002B0000E
:10529000E1E02100614078003047980076C8BF0007
:1052A0008080FB00000520000088B9000000780025
:1052B0005002B000E1E021006140780040479800D2
:1052C00076C8BF008080FB00000520000088B90080
:1052D000000078006002B000E1E021006140780049
:1052E0005047980076C8BF008080FB000005200072
:1052F0000088B900000078005003B000E1E0210010
:10530000614078006047980076C8BF008080FB004D
:10531000000520000088B900000078006003B0009C
:10532000E1E02100614078007047980076C8BF0036
:105330008080FB00000520000088B9000000780094
:105340007003B000E1E0210061407800004F980058
:1053500076C8BF008080FB00000520000088B900EF
:10536000000078008003B000E1E021006140780097
:10537000104F98005A03370076C8BF008080FB00AA
:10538000000520000088B90000007800F002B0009D
:10539000E1E02100614078002047980076C8BF0016
:1053A0008080FB00000520000088B9000000780024
:1053B0000003B000E1E02100614078003047980030
:1053C00076C8BF008080FB00000520000088B9007F
:1053D00000007800D002B000E1E0210061407800D8
:1053E0004047980076C8BF008080FB000005200081
:1053F0000088B90000007800E002B000E1E0210080
:10540000614078005047980076C8BF008080FB005C
:10541000000520000088B90000007800D003B0002B
:10542000E1E02100614078006047980076C8BF0045
:105430008080FB00000520000088B9000000780093
:10544000E003B000E1E0210061407800704798007F
:1054500076C8BF008080FB00000520000088B900EE
:1054600000007800F003B000E1E021006140780026
:10547000004F980076C8BF008080FB000005200028
:105480000088B900000078000004B000E1E02100CD
:1054900061407800104F980011033700EE00900033
:1054A000A0072000808F50000C003200EE0090001A
:1054B00080072000808F500008003200EE0090002E
:1054C000B0072000808F500004003200EE009000F2
:1054D00090072000808F500037003A0076C8BF0048
:1054E0008080FB00000520000088B90000007800E3
:1054F0005002B000E1E021006140780020479800B0
:1055000076C8BF008080FB00000520000088B9003D
:10551000000078006002B000E1E021006140780006
:105520003047980076C8BF008080FB00000520004F
:105530000088B900000078007002B000E1E02100AE
:10554000614078004047980076C8BF008080FB002B
:10555000000520000088B900000078008002B0003B
:10556000E1E02100614078005047980076C8BF0014
:105570008080FB00000520000088B9000000780052
:105580009002B000E1E0210061407800604798009F
:1055900076C8BF008080FB00000520000088B900AD
:1055A00000007800A002B000E1E021006140780036
:1055B000704798003600370076C8BF008080FB0037
:1055C000000520000088B90000007800B002B0009B
:1055D000E1E02100614078002047980076C8BF00D4
:1055E0008080FB00000520000088B90000007800E2
:1055F000C002B000E1E0210061407800304798002F
:1056000076C8BF008080FB00000520000088B9003C
:1056100000007800D002B000E1E021006140780095
:105620004047980076C8BF008080FB00000520003E
:105630000088B90000007800E002B000E1E021003D
:10564000614078005047980076C8BF008080FB001A
:10565000000520000088B90000007800F002B000CA
:10566000E1E02100614078006047980076C8BF0003
:105670008080FB00000520000088B9000000780051
:105680000003B000E1E0210061407800704798001D
:105690006E009000004078000080FB006800400031
:1056A000600798008E023700EE009000A0072000EF
:1056B000808F50000C003200EE0090008007200028
:1056C000808F500008003200EE009000B0072000EC
:1056D000808F500004003200EE0090009007200000
:1056E000808F500049003A0076C8BF008080FB00E0
:1056F000000520000088B900000078005002B000CA
:10570000E1E02100614078002047980076C8BF00A2
:105710008080FB00000520000088B90000007800B0
:105720006002B000E1E0210061407800304798005D
:1057300076C8BF008080FB00000520000088B9000B
:10574000000078007003B000E1E0210061407800C3
:105750004047980076C8BF008080FB00000520000D
:105760000088B900000078008003B000E1E021006B
:10577000614078005047980076C8BF008080FB00E9
:10578000000520000088B900000078005003B00038
:10579000E1E02100614078006047980076C8BF00D2
:1057A0008080FB00000520000088B9000000780020
:1057B0006003B000E1E0210061407800704798008C
:1057C00076C8BF008080FB00000520000088B9007B
:1057D00000007800F002B000E1E0210061407800B4
:1057E000004F980076C8BF008080FB0000052000B5
:1057F0000088B900000078000003B000E1E021005B
:1058000061407800104F98003502370076C8BF001D
:105810008080FB00000520000088B90000007800AF
:10582000D002B000E1E021006140780020479800FC
:1058300076C8BF008080FB00000520000088B9000A
:1058400000007800E002B000E1E021006140780053
:105850003047980076C8BF008080FB00000520001C
:105860000088B90000007800F003B000E1E02100FA
:10587000614078004047980076C8BF008080FB00F8
:10588000000520000088B900000078000004B00086
:10589000E1E02100614078005047980076C8BF00E1
:1058A0008080FB00000520000088B900000078001F
:1058B000D003B000E1E0210061407800604798002B
:1058C00076C8BF008080FB00000520000088B9007A
:1058D00000007800E003B000E1E0210061407800C2
:1058E0007047980076C8BF008080FB00000520004C
:1058F0000088B900000078007002B000E1E02100EB
:1059000061407800004F980076C8BF008080FB009F
:10591000000520000088B900000078008002B00077
:10592000E1E0210061407800104F9800EC01370061
:10593000EE009000A0072000808F50000C00320085
:10594000EE00900080072000808F50000800320099
:10595000EE009000B0072000808F5000040032005D
:10596000EE00900090072000808F500049003A0020
:1059700076C8BF008080FB00000520000088B900C9
:1059800000007800F003B000E1E021006140780001
:105990002047980076C8BF008080FB0000052000EB
:1059A0000088B900000078000004B000E1E02100A8
:1059B000614078003047980076C8BF008080FB00C7
:1059C000000520000088B900000078005003B000F6
:1059D000E1E02100614078004047980076C8BF00B0
:1059E0008080FB00000520000088B90000007800DE
:1059F0006003B000E1E0210061407800504798006A
:105A000076C8BF008080FB00000520000088B90038
:105A1000000078007002B000E1E0210061407800F1
:105A20006047980076C8BF008080FB00000520001A
:105A30000088B900000078008002B000E1E0210099
:105A4000614078007047980076C8BF008080FB00F6
:105A5000000520000088B900000078005002B00066
:105A6000E1E0210061407800004F980076C8BF0057
:105A70008080FB00000520000088B900000078004D
:105A80006002B000E1E0210061407800104F980012
:105A90009301370076C8BF008080FB00000520001E
:105AA0000088B900000078007003B000E1E0210038
:105AB000614078002047980076C8BF008080FB00D6
:105AC000000520000088B900000078008003B000C5
:105AD000E1E02100614078003047980076C8BF00BF
